{
	"contracts/first_contract.sol": {
		"variables_modifiers": {
			"abi": [
				{
					"inputs": [],
					"name": "b",
					"outputs": [
						{
							"internalType": "uint8",
							"name": "",
							"type": "uint8"
						}
					],
					"stateMutability": "view",
					"type": "function"
				},
				{
					"inputs": [],
					"name": "bool_true",
					"outputs": [
						{
							"internalType": "bool",
							"name": "",
							"type": "bool"
						}
					],
					"stateMutability": "view",
					"type": "function"
				},
				{
					"inputs": [],
					"name": "hashing",
					"outputs": [
						{
							"internalType": "bytes32",
							"name": "",
							"type": "bytes32"
						}
					],
					"stateMutability": "view",
					"type": "function"
				},
				{
					"inputs": [],
					"name": "str_public",
					"outputs": [
						{
							"internalType": "string",
							"name": "",
							"type": "string"
						}
					],
					"stateMutability": "view",
					"type": "function"
				}
			],
			"devdoc": {
				"kind": "dev",
				"methods": {},
				"version": 1
			},
			"evm": {
				"assembly": "    /* \"contracts/first_contract.sol\":60:733  contract variables_modifiers {\r... */\n  mstore(0x40, 0x80)\n    /* \"contracts/first_contract.sol\":215:216  3 */\n  0x03\n    /* \"contracts/first_contract.sol\":198:216  uint8 public b = 3 */\n  0x01\n  exp(0x0100, 0x00)\n  dup2\n  sload\n  dup2\n  0xff\n  mul\n  not\n  and\n  swap1\n  dup4\n  0xff\n  and\n  mul\n  or\n  swap1\n  sstore\n  pop\n    /* \"contracts/first_contract.sol\":275:278  -32 */\n  0xffffffffffffffffffffffffffffffffffffffffffffffffffffffffffffffe0\n    /* \"contracts/first_contract.sol\":266:278  int8 d = -32 */\n  0x03\n  exp(0x0100, 0x00)\n  dup2\n  sload\n  dup2\n  0xff\n  mul\n  not\n  and\n  swap1\n  dup4\n  0x00\n  signextend\n  0xff\n  and\n  mul\n  or\n  swap1\n  sstore\n  pop\n    /* \"contracts/first_contract.sol\":293:295  65 */\n  0x41\n    /* \"contracts/first_contract.sol\":285:295  int e = 65 */\n  0x04\n  sstore\n    /* \"contracts/first_contract.sol\":337:379  string public str_public = \"String public\" */\n  mload(0x40)\n  dup1\n  0x40\n  add\n  0x40\n  mstore\n  dup1\n  0x0d\n  dup2\n  mstore\n  0x20\n  add\n  0x537472696e67207075626c696300000000000000000000000000000000000000\n  dup2\n  mstore\n  pop\n  0x06\n  swap1\n  dup1\n  mload\n  swap1\n  0x20\n  add\n  swap1\n  tag_1\n  swap3\n  swap2\n  swap1\n  tag_2\n  jump\t// in\ntag_1:\n  pop\n    /* \"contracts/first_contract.sol\":386:431  string private str_private = \"String Private\" */\n  mload(0x40)\n  dup1\n  0x40\n  add\n  0x40\n  mstore\n  dup1\n  0x0e\n  dup2\n  mstore\n  0x20\n  add\n  0x537472696e672050726976617465000000000000000000000000000000000000\n  dup2\n  mstore\n  pop\n  0x07\n  swap1\n  dup1\n  mload\n  swap1\n  0x20\n  add\n  swap1\n  tag_3\n  swap3\n  swap2\n  swap1\n  tag_2\n  jump\t// in\ntag_3:\n  pop\n    /* \"contracts/first_contract.sol\":498:502  true */\n  0x01\n    /* \"contracts/first_contract.sol\":474:502  bool public bool_true = true */\n  0x08\n  exp(0x0100, 0x01)\n  dup2\n  sload\n  dup2\n  0xff\n  mul\n  not\n  and\n  swap1\n  dup4\n  iszero\n  iszero\n  mul\n  or\n  swap1\n  sstore\n  pop\n    /* \"contracts/first_contract.sol\":535:540  false */\n  0x00\n    /* \"contracts/first_contract.sol\":509:540  bool private bool_false = false */\n  0x08\n  exp(0x0100, 0x02)\n  dup2\n  sload\n  dup2\n  0xff\n  mul\n  not\n  and\n  swap1\n  dup4\n  iszero\n  iszero\n  mul\n  or\n  swap1\n  sstore\n  pop\n    /* \"contracts/first_contract.sol\":696:726  abi.encodePacked(\"Hello word\") */\n  add(0x20, mload(0x40))\n  tag_4\n  swap1\n  tag_5\n  jump\t// in\ntag_4:\n  mload(0x40)\n  0x20\n  dup2\n  dup4\n  sub\n  sub\n  dup2\n  mstore\n  swap1\n  0x40\n  mstore\n    /* \"contracts/first_contract.sol\":686:727  keccak256(abi.encodePacked(\"Hello word\")) */\n  dup1\n  mload\n  swap1\n  0x20\n  add\n  keccak256\n    /* \"contracts/first_contract.sol\":661:727  bytes32 public hashing = keccak256(abi.encodePacked(\"Hello word\")) */\n  0x0b\n  sstore\n    /* \"contracts/first_contract.sol\":60:733  contract variables_modifiers {\r... */\n  callvalue\n  dup1\n  iszero\n  tag_6\n  jumpi\n  0x00\n  dup1\n  revert\ntag_6:\n  pop\n  jump(tag_7)\ntag_2:\n  dup3\n  dup1\n  sload\n  tag_8\n  swap1\n  tag_9\n  jump\t// in\ntag_8:\n  swap1\n  0x00\n  mstore\n  keccak256(0x00, 0x20)\n  swap1\n  0x1f\n  add\n  0x20\n  swap1\n  div\n  dup2\n  add\n  swap3\n  dup3\n  tag_11\n  jumpi\n  0x00\n  dup6\n  sstore\n  jump(tag_10)\ntag_11:\n  dup3\n  0x1f\n  lt\n  tag_12\n  jumpi\n  dup1\n  mload\n  not(0xff)\n  and\n  dup4\n  dup1\n  add\n  or\n  dup6\n  sstore\n  jump(tag_10)\ntag_12:\n  dup3\n  dup1\n  add\n  0x01\n  add\n  dup6\n  sstore\n  dup3\n  iszero\n  tag_10\n  jumpi\n  swap2\n  dup3\n  add\ntag_13:\n  dup3\n  dup2\n  gt\n  iszero\n  tag_14\n  jumpi\n  dup3\n  mload\n  dup3\n  sstore\n  swap2\n  0x20\n  add\n  swap2\n  swap1\n  0x01\n  add\n  swap1\n  jump(tag_13)\ntag_14:\ntag_10:\n  pop\n  swap1\n  pop\n  tag_15\n  swap2\n  swap1\n  tag_16\n  jump\t// in\ntag_15:\n  pop\n  swap1\n  jump\t// out\ntag_16:\ntag_17:\n  dup1\n  dup3\n  gt\n  iszero\n  tag_18\n  jumpi\n  0x00\n  dup2\n  0x00\n  swap1\n  sstore\n  pop\n  0x01\n  add\n  jump(tag_17)\ntag_18:\n  pop\n  swap1\n  jump\t// out\n    /* \"#utility.yul\":7:409   */\ntag_20:\n    /* \"#utility.yul\":167:170   */\n  0x00\n    /* \"#utility.yul\":188:273   */\n  tag_22\n    /* \"#utility.yul\":270:272   */\n  0x0a\n    /* \"#utility.yul\":265:268   */\n  dup4\n    /* \"#utility.yul\":188:273   */\n  tag_23\n  jump\t// in\ntag_22:\n    /* \"#utility.yul\":181:273   */\n  swap2\n  pop\n    /* \"#utility.yul\":282:375   */\n  tag_24\n    /* \"#utility.yul\":371:374   */\n  dup3\n    /* \"#utility.yul\":282:375   */\n  tag_25\n  jump\t// in\ntag_24:\n    /* \"#utility.yul\":400:402   */\n  0x0a\n    /* \"#utility.yul\":395:398   */\n  dup3\n    /* \"#utility.yul\":391:403   */\n  add\n    /* \"#utility.yul\":384:403   */\n  swap1\n  pop\n    /* \"#utility.yul\":7:409   */\n  swap2\n  swap1\n  pop\n  jump\t// out\n    /* \"#utility.yul\":415:796   */\ntag_5:\n    /* \"#utility.yul\":600:603   */\n  0x00\n    /* \"#utility.yul\":622:770   */\n  tag_27\n    /* \"#utility.yul\":766:769   */\n  dup3\n    /* \"#utility.yul\":622:770   */\n  tag_20\n  jump\t// in\ntag_27:\n    /* \"#utility.yul\":615:770   */\n  swap2\n  pop\n    /* \"#utility.yul\":787:790   */\n  dup2\n    /* \"#utility.yul\":780:790   */\n  swap1\n  pop\n    /* \"#utility.yul\":415:796   */\n  swap2\n  swap1\n  pop\n  jump\t// out\n    /* \"#utility.yul\":802:950   */\ntag_23:\n    /* \"#utility.yul\":904:915   */\n  0x00\n    /* \"#utility.yul\":941:944   */\n  dup2\n    /* \"#utility.yul\":926:944   */\n  swap1\n  pop\n    /* \"#utility.yul\":802:950   */\n  swap3\n  swap2\n  pop\n  pop\n  jump\t// out\n    /* \"#utility.yul\":956:1276   */\ntag_9:\n    /* \"#utility.yul\":1000:1006   */\n  0x00\n    /* \"#utility.yul\":1037:1038   */\n  0x02\n    /* \"#utility.yul\":1031:1035   */\n  dup3\n    /* \"#utility.yul\":1027:1039   */\n  div\n    /* \"#utility.yul\":1017:1039   */\n  swap1\n  pop\n    /* \"#utility.yul\":1084:1085   */\n  0x01\n    /* \"#utility.yul\":1078:1082   */\n  dup3\n    /* \"#utility.yul\":1074:1086   */\n  and\n    /* \"#utility.yul\":1105:1123   */\n  dup1\n    /* \"#utility.yul\":1095:1176   */\n  tag_30\n  jumpi\n    /* \"#utility.yul\":1161:1165   */\n  0x7f\n    /* \"#utility.yul\":1153:1159   */\n  dup3\n    /* \"#utility.yul\":1149:1166   */\n  and\n    /* \"#utility.yul\":1139:1166   */\n  swap2\n  pop\n    /* \"#utility.yul\":1095:1176   */\ntag_30:\n    /* \"#utility.yul\":1223:1225   */\n  0x20\n    /* \"#utility.yul\":1215:1221   */\n  dup3\n    /* \"#utility.yul\":1212:1226   */\n  lt\n    /* \"#utility.yul\":1192:1210   */\n  dup2\n    /* \"#utility.yul\":1189:1227   */\n  eq\n    /* \"#utility.yul\":1186:1270   */\n  iszero\n  tag_31\n  jumpi\n    /* \"#utility.yul\":1242:1260   */\n  tag_32\n  tag_33\n  jump\t// in\ntag_32:\n    /* \"#utility.yul\":1186:1270   */\ntag_31:\n    /* \"#utility.yul\":1007:1276   */\n  pop\n    /* \"#utility.yul\":956:1276   */\n  swap2\n  swap1\n  pop\n  jump\t// out\n    /* \"#utility.yul\":1282:1462   */\ntag_33:\n    /* \"#utility.yul\":1330:1407   */\n  0x4e487b7100000000000000000000000000000000000000000000000000000000\n    /* \"#utility.yul\":1327:1328   */\n  0x00\n    /* \"#utility.yul\":1320:1408   */\n  mstore\n    /* \"#utility.yul\":1427:1431   */\n  0x22\n    /* \"#utility.yul\":1424:1425   */\n  0x04\n    /* \"#utility.yul\":1417:1432   */\n  mstore\n    /* \"#utility.yul\":1451:1455   */\n  0x24\n    /* \"#utility.yul\":1448:1449   */\n  0x00\n    /* \"#utility.yul\":1441:1456   */\n  revert\n    /* \"#utility.yul\":1468:1628   */\ntag_25:\n    /* \"#utility.yul\":1608:1620   */\n  0x48656c6c6f20776f726400000000000000000000000000000000000000000000\n    /* \"#utility.yul\":1604:1605   */\n  0x00\n    /* \"#utility.yul\":1596:1602   */\n  dup3\n    /* \"#utility.yul\":1592:1606   */\n  add\n    /* \"#utility.yul\":1585:1621   */\n  mstore\n    /* \"#utility.yul\":1468:1628   */\n  pop\n  jump\t// out\n    /* \"contracts/first_contract.sol\":60:733  contract variables_modifiers {\r... */\ntag_7:\n  dataSize(sub_0)\n  dup1\n  dataOffset(sub_0)\n  0x00\n  codecopy\n  0x00\n  return\nstop\n\nsub_0: assembly {\n        /* \"contracts/first_contract.sol\":60:733  contract variables_modifiers {\r... */\n      mstore(0x40, 0x80)\n      callvalue\n      dup1\n      iszero\n      tag_1\n      jumpi\n      0x00\n      dup1\n      revert\n    tag_1:\n      pop\n      jumpi(tag_2, lt(calldatasize, 0x04))\n      shr(0xe0, calldataload(0x00))\n      dup1\n      0x4df7e3d0\n      eq\n      tag_3\n      jumpi\n      dup1\n      0x5760fa05\n      eq\n      tag_4\n      jumpi\n      dup1\n      0xb83d07b7\n      eq\n      tag_5\n      jumpi\n      dup1\n      0xcd97d84e\n      eq\n      tag_6\n      jumpi\n    tag_2:\n      0x00\n      dup1\n      revert\n        /* \"contracts/first_contract.sol\":198:216  uint8 public b = 3 */\n    tag_3:\n      tag_7\n      tag_8\n      jump\t// in\n    tag_7:\n      mload(0x40)\n      tag_9\n      swap2\n      swap1\n      tag_10\n      jump\t// in\n    tag_9:\n      mload(0x40)\n      dup1\n      swap2\n      sub\n      swap1\n      return\n        /* \"contracts/first_contract.sol\":474:502  bool public bool_true = true */\n    tag_4:\n      tag_11\n      tag_12\n      jump\t// in\n    tag_11:\n      mload(0x40)\n      tag_13\n      swap2\n      swap1\n      tag_14\n      jump\t// in\n    tag_13:\n      mload(0x40)\n      dup1\n      swap2\n      sub\n      swap1\n      return\n        /* \"contracts/first_contract.sol\":337:379  string public str_public = \"String public\" */\n    tag_5:\n      tag_15\n      tag_16\n      jump\t// in\n    tag_15:\n      mload(0x40)\n      tag_17\n      swap2\n      swap1\n      tag_18\n      jump\t// in\n    tag_17:\n      mload(0x40)\n      dup1\n      swap2\n      sub\n      swap1\n      return\n        /* \"contracts/first_contract.sol\":661:727  bytes32 public hashing = keccak256(abi.encodePacked(\"Hello word\")) */\n    tag_6:\n      tag_19\n      tag_20\n      jump\t// in\n    tag_19:\n      mload(0x40)\n      tag_21\n      swap2\n      swap1\n      tag_22\n      jump\t// in\n    tag_21:\n      mload(0x40)\n      dup1\n      swap2\n      sub\n      swap1\n      return\n        /* \"contracts/first_contract.sol\":198:216  uint8 public b = 3 */\n    tag_8:\n      0x01\n      0x00\n      swap1\n      sload\n      swap1\n      0x0100\n      exp\n      swap1\n      div\n      0xff\n      and\n      dup2\n      jump\t// out\n        /* \"contracts/first_contract.sol\":474:502  bool public bool_true = true */\n    tag_12:\n      0x08\n      0x01\n      swap1\n      sload\n      swap1\n      0x0100\n      exp\n      swap1\n      div\n      0xff\n      and\n      dup2\n      jump\t// out\n        /* \"contracts/first_contract.sol\":337:379  string public str_public = \"String public\" */\n    tag_16:\n      0x06\n      dup1\n      sload\n      tag_23\n      swap1\n      tag_24\n      jump\t// in\n    tag_23:\n      dup1\n      0x1f\n      add\n      0x20\n      dup1\n      swap2\n      div\n      mul\n      0x20\n      add\n      mload(0x40)\n      swap1\n      dup2\n      add\n      0x40\n      mstore\n      dup1\n      swap3\n      swap2\n      swap1\n      dup2\n      dup2\n      mstore\n      0x20\n      add\n      dup3\n      dup1\n      sload\n      tag_25\n      swap1\n      tag_24\n      jump\t// in\n    tag_25:\n      dup1\n      iszero\n      tag_26\n      jumpi\n      dup1\n      0x1f\n      lt\n      tag_27\n      jumpi\n      0x0100\n      dup1\n      dup4\n      sload\n      div\n      mul\n      dup4\n      mstore\n      swap2\n      0x20\n      add\n      swap2\n      jump(tag_26)\n    tag_27:\n      dup3\n      add\n      swap2\n      swap1\n      0x00\n      mstore\n      keccak256(0x00, 0x20)\n      swap1\n    tag_28:\n      dup2\n      sload\n      dup2\n      mstore\n      swap1\n      0x01\n      add\n      swap1\n      0x20\n      add\n      dup1\n      dup4\n      gt\n      tag_28\n      jumpi\n      dup3\n      swap1\n      sub\n      0x1f\n      and\n      dup3\n      add\n      swap2\n    tag_26:\n      pop\n      pop\n      pop\n      pop\n      pop\n      dup2\n      jump\t// out\n        /* \"contracts/first_contract.sol\":661:727  bytes32 public hashing = keccak256(abi.encodePacked(\"Hello word\")) */\n    tag_20:\n      sload(0x0b)\n      dup2\n      jump\t// out\n        /* \"#utility.yul\":7:116   */\n    tag_30:\n        /* \"#utility.yul\":88:109   */\n      tag_32\n        /* \"#utility.yul\":103:108   */\n      dup2\n        /* \"#utility.yul\":88:109   */\n      tag_33\n      jump\t// in\n    tag_32:\n        /* \"#utility.yul\":83:86   */\n      dup3\n        /* \"#utility.yul\":76:110   */\n      mstore\n        /* \"#utility.yul\":7:116   */\n      pop\n      pop\n      jump\t// out\n        /* \"#utility.yul\":122:240   */\n    tag_34:\n        /* \"#utility.yul\":209:233   */\n      tag_36\n        /* \"#utility.yul\":227:232   */\n      dup2\n        /* \"#utility.yul\":209:233   */\n      tag_37\n      jump\t// in\n    tag_36:\n        /* \"#utility.yul\":204:207   */\n      dup3\n        /* \"#utility.yul\":197:234   */\n      mstore\n        /* \"#utility.yul\":122:240   */\n      pop\n      pop\n      jump\t// out\n        /* \"#utility.yul\":246:610   */\n    tag_38:\n        /* \"#utility.yul\":334:337   */\n      0x00\n        /* \"#utility.yul\":362:401   */\n      tag_40\n        /* \"#utility.yul\":395:400   */\n      dup3\n        /* \"#utility.yul\":362:401   */\n      tag_41\n      jump\t// in\n    tag_40:\n        /* \"#utility.yul\":417:488   */\n      tag_42\n        /* \"#utility.yul\":481:487   */\n      dup2\n        /* \"#utility.yul\":476:479   */\n      dup6\n        /* \"#utility.yul\":417:488   */\n      tag_43\n      jump\t// in\n    tag_42:\n        /* \"#utility.yul\":410:488   */\n      swap4\n      pop\n        /* \"#utility.yul\":497:549   */\n      tag_44\n        /* \"#utility.yul\":542:548   */\n      dup2\n        /* \"#utility.yul\":537:540   */\n      dup6\n        /* \"#utility.yul\":530:534   */\n      0x20\n        /* \"#utility.yul\":523:528   */\n      dup7\n        /* \"#utility.yul\":519:535   */\n      add\n        /* \"#utility.yul\":497:549   */\n      tag_45\n      jump\t// in\n    tag_44:\n        /* \"#utility.yul\":574:603   */\n      tag_46\n        /* \"#utility.yul\":596:602   */\n      dup2\n        /* \"#utility.yul\":574:603   */\n      tag_47\n      jump\t// in\n    tag_46:\n        /* \"#utility.yul\":569:572   */\n      dup5\n        /* \"#utility.yul\":565:604   */\n      add\n        /* \"#utility.yul\":558:604   */\n      swap2\n      pop\n        /* \"#utility.yul\":338:610   */\n      pop\n        /* \"#utility.yul\":246:610   */\n      swap3\n      swap2\n      pop\n      pop\n      jump\t// out\n        /* \"#utility.yul\":616:728   */\n    tag_48:\n        /* \"#utility.yul\":699:721   */\n      tag_50\n        /* \"#utility.yul\":715:720   */\n      dup2\n        /* \"#utility.yul\":699:721   */\n      tag_51\n      jump\t// in\n    tag_50:\n        /* \"#utility.yul\":694:697   */\n      dup3\n        /* \"#utility.yul\":687:722   */\n      mstore\n        /* \"#utility.yul\":616:728   */\n      pop\n      pop\n      jump\t// out\n        /* \"#utility.yul\":734:944   */\n    tag_14:\n        /* \"#utility.yul\":821:825   */\n      0x00\n        /* \"#utility.yul\":859:861   */\n      0x20\n        /* \"#utility.yul\":848:857   */\n      dup3\n        /* \"#utility.yul\":844:862   */\n      add\n        /* \"#utility.yul\":836:862   */\n      swap1\n      pop\n        /* \"#utility.yul\":872:937   */\n      tag_53\n        /* \"#utility.yul\":934:935   */\n      0x00\n        /* \"#utility.yul\":923:932   */\n      dup4\n        /* \"#utility.yul\":919:936   */\n      add\n        /* \"#utility.yul\":910:916   */\n      dup5\n        /* \"#utility.yul\":872:937   */\n      tag_30\n      jump\t// in\n    tag_53:\n        /* \"#utility.yul\":734:944   */\n      swap3\n      swap2\n      pop\n      pop\n      jump\t// out\n        /* \"#utility.yul\":950:1172   */\n    tag_22:\n        /* \"#utility.yul\":1043:1047   */\n      0x00\n        /* \"#utility.yul\":1081:1083   */\n      0x20\n        /* \"#utility.yul\":1070:1079   */\n      dup3\n        /* \"#utility.yul\":1066:1084   */\n      add\n        /* \"#utility.yul\":1058:1084   */\n      swap1\n      pop\n        /* \"#utility.yul\":1094:1165   */\n      tag_55\n        /* \"#utility.yul\":1162:1163   */\n      0x00\n        /* \"#utility.yul\":1151:1160   */\n      dup4\n        /* \"#utility.yul\":1147:1164   */\n      add\n        /* \"#utility.yul\":1138:1144   */\n      dup5\n        /* \"#utility.yul\":1094:1165   */\n      tag_34\n      jump\t// in\n    tag_55:\n        /* \"#utility.yul\":950:1172   */\n      swap3\n      swap2\n      pop\n      pop\n      jump\t// out\n        /* \"#utility.yul\":1178:1491   */\n    tag_18:\n        /* \"#utility.yul\":1291:1295   */\n      0x00\n        /* \"#utility.yul\":1329:1331   */\n      0x20\n        /* \"#utility.yul\":1318:1327   */\n      dup3\n        /* \"#utility.yul\":1314:1332   */\n      add\n        /* \"#utility.yul\":1306:1332   */\n      swap1\n      pop\n        /* \"#utility.yul\":1378:1387   */\n      dup2\n        /* \"#utility.yul\":1372:1376   */\n      dup2\n        /* \"#utility.yul\":1368:1388   */\n      sub\n        /* \"#utility.yul\":1364:1365   */\n      0x00\n        /* \"#utility.yul\":1353:1362   */\n      dup4\n        /* \"#utility.yul\":1349:1366   */\n      add\n        /* \"#utility.yul\":1342:1389   */\n      mstore\n        /* \"#utility.yul\":1406:1484   */\n      tag_57\n        /* \"#utility.yul\":1479:1483   */\n      dup2\n        /* \"#utility.yul\":1470:1476   */\n      dup5\n        /* \"#utility.yul\":1406:1484   */\n      tag_38\n      jump\t// in\n    tag_57:\n        /* \"#utility.yul\":1398:1484   */\n      swap1\n      pop\n        /* \"#utility.yul\":1178:1491   */\n      swap3\n      swap2\n      pop\n      pop\n      jump\t// out\n        /* \"#utility.yul\":1497:1711   */\n    tag_10:\n        /* \"#utility.yul\":1586:1590   */\n      0x00\n        /* \"#utility.yul\":1624:1626   */\n      0x20\n        /* \"#utility.yul\":1613:1622   */\n      dup3\n        /* \"#utility.yul\":1609:1627   */\n      add\n        /* \"#utility.yul\":1601:1627   */\n      swap1\n      pop\n        /* \"#utility.yul\":1637:1704   */\n      tag_59\n        /* \"#utility.yul\":1701:1702   */\n      0x00\n        /* \"#utility.yul\":1690:1699   */\n      dup4\n        /* \"#utility.yul\":1686:1703   */\n      add\n        /* \"#utility.yul\":1677:1683   */\n      dup5\n        /* \"#utility.yul\":1637:1704   */\n      tag_48\n      jump\t// in\n    tag_59:\n        /* \"#utility.yul\":1497:1711   */\n      swap3\n      swap2\n      pop\n      pop\n      jump\t// out\n        /* \"#utility.yul\":1717:1816   */\n    tag_41:\n        /* \"#utility.yul\":1769:1775   */\n      0x00\n        /* \"#utility.yul\":1803:1808   */\n      dup2\n        /* \"#utility.yul\":1797:1809   */\n      mload\n        /* \"#utility.yul\":1787:1809   */\n      swap1\n      pop\n        /* \"#utility.yul\":1717:1816   */\n      swap2\n      swap1\n      pop\n      jump\t// out\n        /* \"#utility.yul\":1822:1991   */\n    tag_43:\n        /* \"#utility.yul\":1906:1917   */\n      0x00\n        /* \"#utility.yul\":1940:1946   */\n      dup3\n        /* \"#utility.yul\":1935:1938   */\n      dup3\n        /* \"#utility.yul\":1928:1947   */\n      mstore\n        /* \"#utility.yul\":1980:1984   */\n      0x20\n        /* \"#utility.yul\":1975:1978   */\n      dup3\n        /* \"#utility.yul\":1971:1985   */\n      add\n        /* \"#utility.yul\":1956:1985   */\n      swap1\n      pop\n        /* \"#utility.yul\":1822:1991   */\n      swap3\n      swap2\n      pop\n      pop\n      jump\t// out\n        /* \"#utility.yul\":1997:2087   */\n    tag_33:\n        /* \"#utility.yul\":2031:2038   */\n      0x00\n        /* \"#utility.yul\":2074:2079   */\n      dup2\n        /* \"#utility.yul\":2067:2080   */\n      iszero\n        /* \"#utility.yul\":2060:2081   */\n      iszero\n        /* \"#utility.yul\":2049:2081   */\n      swap1\n      pop\n        /* \"#utility.yul\":1997:2087   */\n      swap2\n      swap1\n      pop\n      jump\t// out\n        /* \"#utility.yul\":2093:2170   */\n    tag_37:\n        /* \"#utility.yul\":2130:2137   */\n      0x00\n        /* \"#utility.yul\":2159:2164   */\n      dup2\n        /* \"#utility.yul\":2148:2164   */\n      swap1\n      pop\n        /* \"#utility.yul\":2093:2170   */\n      swap2\n      swap1\n      pop\n      jump\t// out\n        /* \"#utility.yul\":2176:2262   */\n    tag_51:\n        /* \"#utility.yul\":2211:2218   */\n      0x00\n        /* \"#utility.yul\":2251:2255   */\n      0xff\n        /* \"#utility.yul\":2244:2249   */\n      dup3\n        /* \"#utility.yul\":2240:2256   */\n      and\n        /* \"#utility.yul\":2229:2256   */\n      swap1\n      pop\n        /* \"#utility.yul\":2176:2262   */\n      swap2\n      swap1\n      pop\n      jump\t// out\n        /* \"#utility.yul\":2268:2575   */\n    tag_45:\n        /* \"#utility.yul\":2336:2337   */\n      0x00\n        /* \"#utility.yul\":2346:2459   */\n    tag_66:\n        /* \"#utility.yul\":2360:2366   */\n      dup4\n        /* \"#utility.yul\":2357:2358   */\n      dup2\n        /* \"#utility.yul\":2354:2367   */\n      lt\n        /* \"#utility.yul\":2346:2459   */\n      iszero\n      tag_68\n      jumpi\n        /* \"#utility.yul\":2445:2446   */\n      dup1\n        /* \"#utility.yul\":2440:2443   */\n      dup3\n        /* \"#utility.yul\":2436:2447   */\n      add\n        /* \"#utility.yul\":2430:2448   */\n      mload\n        /* \"#utility.yul\":2426:2427   */\n      dup2\n        /* \"#utility.yul\":2421:2424   */\n      dup5\n        /* \"#utility.yul\":2417:2428   */\n      add\n        /* \"#utility.yul\":2410:2449   */\n      mstore\n        /* \"#utility.yul\":2382:2384   */\n      0x20\n        /* \"#utility.yul\":2379:2380   */\n      dup2\n        /* \"#utility.yul\":2375:2385   */\n      add\n        /* \"#utility.yul\":2370:2385   */\n      swap1\n      pop\n        /* \"#utility.yul\":2346:2459   */\n      jump(tag_66)\n    tag_68:\n        /* \"#utility.yul\":2477:2483   */\n      dup4\n        /* \"#utility.yul\":2474:2475   */\n      dup2\n        /* \"#utility.yul\":2471:2484   */\n      gt\n        /* \"#utility.yul\":2468:2569   */\n      iszero\n      tag_69\n      jumpi\n        /* \"#utility.yul\":2557:2558   */\n      0x00\n        /* \"#utility.yul\":2548:2554   */\n      dup5\n        /* \"#utility.yul\":2543:2546   */\n      dup5\n        /* \"#utility.yul\":2539:2555   */\n      add\n        /* \"#utility.yul\":2532:2559   */\n      mstore\n        /* \"#utility.yul\":2468:2569   */\n    tag_69:\n        /* \"#utility.yul\":2317:2575   */\n      pop\n        /* \"#utility.yul\":2268:2575   */\n      pop\n      pop\n      pop\n      jump\t// out\n        /* \"#utility.yul\":2581:2901   */\n    tag_24:\n        /* \"#utility.yul\":2625:2631   */\n      0x00\n        /* \"#utility.yul\":2662:2663   */\n      0x02\n        /* \"#utility.yul\":2656:2660   */\n      dup3\n        /* \"#utility.yul\":2652:2664   */\n      div\n        /* \"#utility.yul\":2642:2664   */\n      swap1\n      pop\n        /* \"#utility.yul\":2709:2710   */\n      0x01\n        /* \"#utility.yul\":2703:2707   */\n      dup3\n        /* \"#utility.yul\":2699:2711   */\n      and\n        /* \"#utility.yul\":2730:2748   */\n      dup1\n        /* \"#utility.yul\":2720:2801   */\n      tag_71\n      jumpi\n        /* \"#utility.yul\":2786:2790   */\n      0x7f\n        /* \"#utility.yul\":2778:2784   */\n      dup3\n        /* \"#utility.yul\":2774:2791   */\n      and\n        /* \"#utility.yul\":2764:2791   */\n      swap2\n      pop\n        /* \"#utility.yul\":2720:2801   */\n    tag_71:\n        /* \"#utility.yul\":2848:2850   */\n      0x20\n        /* \"#utility.yul\":2840:2846   */\n      dup3\n        /* \"#utility.yul\":2837:2851   */\n      lt\n        /* \"#utility.yul\":2817:2835   */\n      dup2\n        /* \"#utility.yul\":2814:2852   */\n      eq\n        /* \"#utility.yul\":2811:2895   */\n      iszero\n      tag_72\n      jumpi\n        /* \"#utility.yul\":2867:2885   */\n      tag_73\n      tag_74\n      jump\t// in\n    tag_73:\n        /* \"#utility.yul\":2811:2895   */\n    tag_72:\n        /* \"#utility.yul\":2632:2901   */\n      pop\n        /* \"#utility.yul\":2581:2901   */\n      swap2\n      swap1\n      pop\n      jump\t// out\n        /* \"#utility.yul\":2907:3087   */\n    tag_74:\n        /* \"#utility.yul\":2955:3032   */\n      0x4e487b7100000000000000000000000000000000000000000000000000000000\n        /* \"#utility.yul\":2952:2953   */\n      0x00\n        /* \"#utility.yul\":2945:3033   */\n      mstore\n        /* \"#utility.yul\":3052:3056   */\n      0x22\n        /* \"#utility.yul\":3049:3050   */\n      0x04\n        /* \"#utility.yul\":3042:3057   */\n      mstore\n        /* \"#utility.yul\":3076:3080   */\n      0x24\n        /* \"#utility.yul\":3073:3074   */\n      0x00\n        /* \"#utility.yul\":3066:3081   */\n      revert\n        /* \"#utility.yul\":3093:3195   */\n    tag_47:\n        /* \"#utility.yul\":3134:3140   */\n      0x00\n        /* \"#utility.yul\":3185:3187   */\n      0x1f\n        /* \"#utility.yul\":3181:3188   */\n      not\n        /* \"#utility.yul\":3176:3178   */\n      0x1f\n        /* \"#utility.yul\":3169:3174   */\n      dup4\n        /* \"#utility.yul\":3165:3179   */\n      add\n        /* \"#utility.yul\":3161:3189   */\n      and\n        /* \"#utility.yul\":3151:3189   */\n      swap1\n      pop\n        /* \"#utility.yul\":3093:3195   */\n      swap2\n      swap1\n      pop\n      jump\t// out\n\n    auxdata: 0xa2646970667358221220bdd86ebca58bb99e6cea173f0d0eee29144e083548e11b43bd0c11a0f3af63c164736f6c63430008070033\n}\n",
				"bytecode": {
					"linkReferences": {},
					"object": "60806040526003600160006101000a81548160ff021916908360ff1602179055507fffffffffffffffffffffffffffffffffffffffffffffffffffffffffffffffe0600360006101000a81548160ff021916908360000b60ff16021790555060416004556040518060400160405280600d81526020017f537472696e67207075626c696300000000000000000000000000000000000000815250600690805190602001906100ae92919061016b565b506040518060400160405280600e81526020017f537472696e672050726976617465000000000000000000000000000000000000815250600790805190602001906100fa92919061016b565b506001600860016101000a81548160ff0219169083151502179055506000600860026101000a81548160ff02191690831515021790555060405160200161014090610231565b60405160208183030381529060405280519060200120600b5534801561016557600080fd5b506102db565b82805461017790610251565b90600052602060002090601f01602090048101928261019957600085556101e0565b82601f106101b257805160ff19168380011785556101e0565b828001600101855582156101e0579182015b828111156101df5782518255916020019190600101906101c4565b5b5090506101ed91906101f1565b5090565b5b8082111561020a5760008160009055506001016101f2565b5090565b600061021b600a83610246565b9150610226826102b2565b600a82019050919050565b600061023c8261020e565b9150819050919050565b600081905092915050565b6000600282049050600182168061026957607f821691505b6020821081141561027d5761027c610283565b5b50919050565b7f4e487b7100000000000000000000000000000000000000000000000000000000600052602260045260246000fd5b7f48656c6c6f20776f726400000000000000000000000000000000000000000000600082015250565b610376806102ea6000396000f3fe608060405234801561001057600080fd5b506004361061004c5760003560e01c80634df7e3d0146100515780635760fa051461006f578063b83d07b71461008d578063cd97d84e146100ab575b600080fd5b6100596100c9565b6040516100669190610241565b60405180910390f35b6100776100dc565b60405161008491906101e9565b60405180910390f35b6100956100ef565b6040516100a2919061021f565b60405180910390f35b6100b361017d565b6040516100c09190610204565b60405180910390f35b600160009054906101000a900460ff1681565b600860019054906101000a900460ff1681565b600680546100fc906102ce565b80601f0160208091040260200160405190810160405280929190818152602001828054610128906102ce565b80156101755780601f1061014a57610100808354040283529160200191610175565b820191906000526020600020905b81548152906001019060200180831161015857829003601f168201915b505050505081565b600b5481565b61018c81610278565b82525050565b61019b81610284565b82525050565b60006101ac8261025c565b6101b68185610267565b93506101c681856020860161029b565b6101cf8161032f565b840191505092915050565b6101e38161028e565b82525050565b60006020820190506101fe6000830184610183565b92915050565b60006020820190506102196000830184610192565b92915050565b6000602082019050818103600083015261023981846101a1565b905092915050565b600060208201905061025660008301846101da565b92915050565b600081519050919050565b600082825260208201905092915050565b60008115159050919050565b6000819050919050565b600060ff82169050919050565b60005b838110156102b957808201518184015260208101905061029e565b838111156102c8576000848401525b50505050565b600060028204905060018216806102e657607f821691505b602082108114156102fa576102f9610300565b5b50919050565b7f4e487b7100000000000000000000000000000000000000000000000000000000600052602260045260246000fd5b6000601f19601f830116905091905056fea2646970667358221220bdd86ebca58bb99e6cea173f0d0eee29144e083548e11b43bd0c11a0f3af63c164736f6c63430008070033",
					"opcodes": "PUSH1 0x80 PUSH1 0x40 MSTORE PUSH1 0x3 PUSH1 0x1 PUSH1 0x0 PUSH2 0x100 EXP DUP2 SLOAD DUP2 PUSH1 0xFF MUL NOT AND SWAP1 DUP4 PUSH1 0xFF AND MUL OR SWAP1 SSTORE POP PUSH32 0xFFFFFFFFFFFFFFFFFFFFFFFFFFFFFFFFFFFFFFFFFFFFFFFFFFFFFFFFFFFFFFE0 PUSH1 0x3 PUSH1 0x0 PUSH2 0x100 EXP DUP2 SLOAD DUP2 PUSH1 0xFF MUL NOT AND SWAP1 DUP4 PUSH1 0x0 SIGNEXTEND PUSH1 0xFF AND MUL OR SWAP1 SSTORE POP PUSH1 0x41 PUSH1 0x4 SSTORE PUSH1 0x40 MLOAD DUP1 PUSH1 0x40 ADD PUSH1 0x40 MSTORE DUP1 PUSH1 0xD DUP2 MSTORE PUSH1 0x20 ADD PUSH32 0x537472696E67207075626C696300000000000000000000000000000000000000 DUP2 MSTORE POP PUSH1 0x6 SWAP1 DUP1 MLOAD SWAP1 PUSH1 0x20 ADD SWAP1 PUSH2 0xAE SWAP3 SWAP2 SWAP1 PUSH2 0x16B JUMP JUMPDEST POP PUSH1 0x40 MLOAD DUP1 PUSH1 0x40 ADD PUSH1 0x40 MSTORE DUP1 PUSH1 0xE DUP2 MSTORE PUSH1 0x20 ADD PUSH32 0x537472696E672050726976617465000000000000000000000000000000000000 DUP2 MSTORE POP PUSH1 0x7 SWAP1 DUP1 MLOAD SWAP1 PUSH1 0x20 ADD SWAP1 PUSH2 0xFA SWAP3 SWAP2 SWAP1 PUSH2 0x16B JUMP JUMPDEST POP PUSH1 0x1 PUSH1 0x8 PUSH1 0x1 PUSH2 0x100 EXP DUP2 SLOAD DUP2 PUSH1 0xFF MUL NOT AND SWAP1 DUP4 ISZERO ISZERO MUL OR SWAP1 SSTORE POP PUSH1 0x0 PUSH1 0x8 PUSH1 0x2 PUSH2 0x100 EXP DUP2 SLOAD DUP2 PUSH1 0xFF MUL NOT AND SWAP1 DUP4 ISZERO ISZERO MUL OR SWAP1 SSTORE POP PUSH1 0x40 MLOAD PUSH1 0x20 ADD PUSH2 0x140 SWAP1 PUSH2 0x231 JUMP JUMPDEST PUSH1 0x40 MLOAD PUSH1 0x20 DUP2 DUP4 SUB SUB DUP2 MSTORE SWAP1 PUSH1 0x40 MSTORE DUP1 MLOAD SWAP1 PUSH1 0x20 ADD KECCAK256 PUSH1 0xB SSTORE CALLVALUE DUP1 ISZERO PUSH2 0x165 JUMPI PUSH1 0x0 DUP1 REVERT JUMPDEST POP PUSH2 0x2DB JUMP JUMPDEST DUP3 DUP1 SLOAD PUSH2 0x177 SWAP1 PUSH2 0x251 JUMP JUMPDEST SWAP1 PUSH1 0x0 MSTORE PUSH1 0x20 PUSH1 0x0 KECCAK256 SWAP1 PUSH1 0x1F ADD PUSH1 0x20 SWAP1 DIV DUP2 ADD SWAP3 DUP3 PUSH2 0x199 JUMPI PUSH1 0x0 DUP6 SSTORE PUSH2 0x1E0 JUMP JUMPDEST DUP3 PUSH1 0x1F LT PUSH2 0x1B2 JUMPI DUP1 MLOAD PUSH1 0xFF NOT AND DUP4 DUP1 ADD OR DUP6 SSTORE PUSH2 0x1E0 JUMP JUMPDEST DUP3 DUP1 ADD PUSH1 0x1 ADD DUP6 SSTORE DUP3 ISZERO PUSH2 0x1E0 JUMPI SWAP2 DUP3 ADD JUMPDEST DUP3 DUP2 GT ISZERO PUSH2 0x1DF JUMPI DUP3 MLOAD DUP3 SSTORE SWAP2 PUSH1 0x20 ADD SWAP2 SWAP1 PUSH1 0x1 ADD SWAP1 PUSH2 0x1C4 JUMP JUMPDEST JUMPDEST POP SWAP1 POP PUSH2 0x1ED SWAP2 SWAP1 PUSH2 0x1F1 JUMP JUMPDEST POP SWAP1 JUMP JUMPDEST JUMPDEST DUP1 DUP3 GT ISZERO PUSH2 0x20A JUMPI PUSH1 0x0 DUP2 PUSH1 0x0 SWAP1 SSTORE POP PUSH1 0x1 ADD PUSH2 0x1F2 JUMP JUMPDEST POP SWAP1 JUMP JUMPDEST PUSH1 0x0 PUSH2 0x21B PUSH1 0xA DUP4 PUSH2 0x246 JUMP JUMPDEST SWAP2 POP PUSH2 0x226 DUP3 PUSH2 0x2B2 JUMP JUMPDEST PUSH1 0xA DUP3 ADD SWAP1 POP SWAP2 SWAP1 POP JUMP JUMPDEST PUSH1 0x0 PUSH2 0x23C DUP3 PUSH2 0x20E JUMP JUMPDEST SWAP2 POP DUP2 SWAP1 POP SWAP2 SWAP1 POP JUMP JUMPDEST PUSH1 0x0 DUP2 SWAP1 POP SWAP3 SWAP2 POP POP JUMP JUMPDEST PUSH1 0x0 PUSH1 0x2 DUP3 DIV SWAP1 POP PUSH1 0x1 DUP3 AND DUP1 PUSH2 0x269 JUMPI PUSH1 0x7F DUP3 AND SWAP2 POP JUMPDEST PUSH1 0x20 DUP3 LT DUP2 EQ ISZERO PUSH2 0x27D JUMPI PUSH2 0x27C PUSH2 0x283 JUMP JUMPDEST JUMPDEST POP SWAP2 SWAP1 POP JUMP JUMPDEST PUSH32 0x4E487B7100000000000000000000000000000000000000000000000000000000 PUSH1 0x0 MSTORE PUSH1 0x22 PUSH1 0x4 MSTORE PUSH1 0x24 PUSH1 0x0 REVERT JUMPDEST PUSH32 0x48656C6C6F20776F726400000000000000000000000000000000000000000000 PUSH1 0x0 DUP3 ADD MSTORE POP JUMP JUMPDEST PUSH2 0x376 DUP1 PUSH2 0x2EA PUSH1 0x0 CODECOPY PUSH1 0x0 RETURN INVALID PUSH1 0x80 PUSH1 0x40 MSTORE CALLVALUE DUP1 ISZERO PUSH2 0x10 JUMPI PUSH1 0x0 DUP1 REVERT JUMPDEST POP PUSH1 0x4 CALLDATASIZE LT PUSH2 0x4C JUMPI PUSH1 0x0 CALLDATALOAD PUSH1 0xE0 SHR DUP1 PUSH4 0x4DF7E3D0 EQ PUSH2 0x51 JUMPI DUP1 PUSH4 0x5760FA05 EQ PUSH2 0x6F JUMPI DUP1 PUSH4 0xB83D07B7 EQ PUSH2 0x8D JUMPI DUP1 PUSH4 0xCD97D84E EQ PUSH2 0xAB JUMPI JUMPDEST PUSH1 0x0 DUP1 REVERT JUMPDEST PUSH2 0x59 PUSH2 0xC9 JUMP JUMPDEST PUSH1 0x40 MLOAD PUSH2 0x66 SWAP2 SWAP1 PUSH2 0x241 JUMP JUMPDEST PUSH1 0x40 MLOAD DUP1 SWAP2 SUB SWAP1 RETURN JUMPDEST PUSH2 0x77 PUSH2 0xDC JUMP JUMPDEST PUSH1 0x40 MLOAD PUSH2 0x84 SWAP2 SWAP1 PUSH2 0x1E9 JUMP JUMPDEST PUSH1 0x40 MLOAD DUP1 SWAP2 SUB SWAP1 RETURN JUMPDEST PUSH2 0x95 PUSH2 0xEF JUMP JUMPDEST PUSH1 0x40 MLOAD PUSH2 0xA2 SWAP2 SWAP1 PUSH2 0x21F JUMP JUMPDEST PUSH1 0x40 MLOAD DUP1 SWAP2 SUB SWAP1 RETURN JUMPDEST PUSH2 0xB3 PUSH2 0x17D JUMP JUMPDEST PUSH1 0x40 MLOAD PUSH2 0xC0 SWAP2 SWAP1 PUSH2 0x204 JUMP JUMPDEST PUSH1 0x40 MLOAD DUP1 SWAP2 SUB SWAP1 RETURN JUMPDEST PUSH1 0x1 PUSH1 0x0 SWAP1 SLOAD SWAP1 PUSH2 0x100 EXP SWAP1 DIV PUSH1 0xFF AND DUP2 JUMP JUMPDEST PUSH1 0x8 PUSH1 0x1 SWAP1 SLOAD SWAP1 PUSH2 0x100 EXP SWAP1 DIV PUSH1 0xFF AND DUP2 JUMP JUMPDEST PUSH1 0x6 DUP1 SLOAD PUSH2 0xFC SWAP1 PUSH2 0x2CE JUMP JUMPDEST DUP1 PUSH1 0x1F ADD PUSH1 0x20 DUP1 SWAP2 DIV MUL PUSH1 0x20 ADD PUSH1 0x40 MLOAD SWAP1 DUP2 ADD PUSH1 0x40 MSTORE DUP1 SWAP3 SWAP2 SWAP1 DUP2 DUP2 MSTORE PUSH1 0x20 ADD DUP3 DUP1 SLOAD PUSH2 0x128 SWAP1 PUSH2 0x2CE JUMP JUMPDEST DUP1 ISZERO PUSH2 0x175 JUMPI DUP1 PUSH1 0x1F LT PUSH2 0x14A JUMPI PUSH2 0x100 DUP1 DUP4 SLOAD DIV MUL DUP4 MSTORE SWAP2 PUSH1 0x20 ADD SWAP2 PUSH2 0x175 JUMP JUMPDEST DUP3 ADD SWAP2 SWAP1 PUSH1 0x0 MSTORE PUSH1 0x20 PUSH1 0x0 KECCAK256 SWAP1 JUMPDEST DUP2 SLOAD DUP2 MSTORE SWAP1 PUSH1 0x1 ADD SWAP1 PUSH1 0x20 ADD DUP1 DUP4 GT PUSH2 0x158 JUMPI DUP3 SWAP1 SUB PUSH1 0x1F AND DUP3 ADD SWAP2 JUMPDEST POP POP POP POP POP DUP2 JUMP JUMPDEST PUSH1 0xB SLOAD DUP2 JUMP JUMPDEST PUSH2 0x18C DUP2 PUSH2 0x278 JUMP JUMPDEST DUP3 MSTORE POP POP JUMP JUMPDEST PUSH2 0x19B DUP2 PUSH2 0x284 JUMP JUMPDEST DUP3 MSTORE POP POP JUMP JUMPDEST PUSH1 0x0 PUSH2 0x1AC DUP3 PUSH2 0x25C JUMP JUMPDEST PUSH2 0x1B6 DUP2 DUP6 PUSH2 0x267 JUMP JUMPDEST SWAP4 POP PUSH2 0x1C6 DUP2 DUP6 PUSH1 0x20 DUP7 ADD PUSH2 0x29B JUMP JUMPDEST PUSH2 0x1CF DUP2 PUSH2 0x32F JUMP JUMPDEST DUP5 ADD SWAP2 POP POP SWAP3 SWAP2 POP POP JUMP JUMPDEST PUSH2 0x1E3 DUP2 PUSH2 0x28E JUMP JUMPDEST DUP3 MSTORE POP POP JUMP JUMPDEST PUSH1 0x0 PUSH1 0x20 DUP3 ADD SWAP1 POP PUSH2 0x1FE PUSH1 0x0 DUP4 ADD DUP5 PUSH2 0x183 JUMP JUMPDEST SWAP3 SWAP2 POP POP JUMP JUMPDEST PUSH1 0x0 PUSH1 0x20 DUP3 ADD SWAP1 POP PUSH2 0x219 PUSH1 0x0 DUP4 ADD DUP5 PUSH2 0x192 JUMP JUMPDEST SWAP3 SWAP2 POP POP JUMP JUMPDEST PUSH1 0x0 PUSH1 0x20 DUP3 ADD SWAP1 POP DUP2 DUP2 SUB PUSH1 0x0 DUP4 ADD MSTORE PUSH2 0x239 DUP2 DUP5 PUSH2 0x1A1 JUMP JUMPDEST SWAP1 POP SWAP3 SWAP2 POP POP JUMP JUMPDEST PUSH1 0x0 PUSH1 0x20 DUP3 ADD SWAP1 POP PUSH2 0x256 PUSH1 0x0 DUP4 ADD DUP5 PUSH2 0x1DA JUMP JUMPDEST SWAP3 SWAP2 POP POP JUMP JUMPDEST PUSH1 0x0 DUP2 MLOAD SWAP1 POP SWAP2 SWAP1 POP JUMP JUMPDEST PUSH1 0x0 DUP3 DUP3 MSTORE PUSH1 0x20 DUP3 ADD SWAP1 POP SWAP3 SWAP2 POP POP JUMP JUMPDEST PUSH1 0x0 DUP2 ISZERO ISZERO SWAP1 POP SWAP2 SWAP1 POP JUMP JUMPDEST PUSH1 0x0 DUP2 SWAP1 POP SWAP2 SWAP1 POP JUMP JUMPDEST PUSH1 0x0 PUSH1 0xFF DUP3 AND SWAP1 POP SWAP2 SWAP1 POP JUMP JUMPDEST PUSH1 0x0 JUMPDEST DUP4 DUP2 LT ISZERO PUSH2 0x2B9 JUMPI DUP1 DUP3 ADD MLOAD DUP2 DUP5 ADD MSTORE PUSH1 0x20 DUP2 ADD SWAP1 POP PUSH2 0x29E JUMP JUMPDEST DUP4 DUP2 GT ISZERO PUSH2 0x2C8 JUMPI PUSH1 0x0 DUP5 DUP5 ADD MSTORE JUMPDEST POP POP POP POP JUMP JUMPDEST PUSH1 0x0 PUSH1 0x2 DUP3 DIV SWAP1 POP PUSH1 0x1 DUP3 AND DUP1 PUSH2 0x2E6 JUMPI PUSH1 0x7F DUP3 AND SWAP2 POP JUMPDEST PUSH1 0x20 DUP3 LT DUP2 EQ ISZERO PUSH2 0x2FA JUMPI PUSH2 0x2F9 PUSH2 0x300 JUMP JUMPDEST JUMPDEST POP SWAP2 SWAP1 POP JUMP JUMPDEST PUSH32 0x4E487B7100000000000000000000000000000000000000000000000000000000 PUSH1 0x0 MSTORE PUSH1 0x22 PUSH1 0x4 MSTORE PUSH1 0x24 PUSH1 0x0 REVERT JUMPDEST PUSH1 0x0 PUSH1 0x1F NOT PUSH1 0x1F DUP4 ADD AND SWAP1 POP SWAP2 SWAP1 POP JUMP INVALID LOG2 PUSH5 0x6970667358 0x22 SLT KECCAK256 0xBD 0xD8 PUSH15 0xBCA58BB99E6CEA173F0D0EEE29144E ADDMOD CALLDATALOAD BASEFEE 0xE1 SHL NUMBER 0xBD 0xC GT LOG0 RETURN 0xAF PUSH4 0xC164736F PUSH13 0x63430008070033000000000000 "
				},
				"gasEstimates": {
					"creation": {
						"codeDepositCost": "177200",
						"executionCost": "infinite",
						"totalCost": "infinite"
					},
					"external": {
						"b()": "2449",
						"bool_true()": "2521",
						"hashing()": "2473",
						"str_public()": "infinite"
					}
				},
				"methodIdentifiers": {
					"b()": "4df7e3d0",
					"bool_true()": "5760fa05",
					"hashing()": "cd97d84e",
					"str_public()": "b83d07b7"
				}
			},
			"storageLayout": {
				"storage": [
					{
						"astId": 3,
						"contract": "contracts/first_contract.sol:variables_modifiers",
						"label": "a",
						"offset": 0,
						"slot": "0",
						"type": "t_uint256"
					},
					{
						"astId": 6,
						"contract": "contracts/first_contract.sol:variables_modifiers",
						"label": "b",
						"offset": 0,
						"slot": "1",
						"type": "t_uint8"
					},
					{
						"astId": 8,
						"contract": "contracts/first_contract.sol:variables_modifiers",
						"label": "c",
						"offset": 0,
						"slot": "2",
						"type": "t_int256"
					},
					{
						"astId": 12,
						"contract": "contracts/first_contract.sol:variables_modifiers",
						"label": "d",
						"offset": 0,
						"slot": "3",
						"type": "t_int8"
					},
					{
						"astId": 15,
						"contract": "contracts/first_contract.sol:variables_modifiers",
						"label": "e",
						"offset": 0,
						"slot": "4",
						"type": "t_int256"
					},
					{
						"astId": 17,
						"contract": "contracts/first_contract.sol:variables_modifiers",
						"label": "str",
						"offset": 0,
						"slot": "5",
						"type": "t_string_storage"
					},
					{
						"astId": 20,
						"contract": "contracts/first_contract.sol:variables_modifiers",
						"label": "str_public",
						"offset": 0,
						"slot": "6",
						"type": "t_string_storage"
					},
					{
						"astId": 23,
						"contract": "contracts/first_contract.sol:variables_modifiers",
						"label": "str_private",
						"offset": 0,
						"slot": "7",
						"type": "t_string_storage"
					},
					{
						"astId": 25,
						"contract": "contracts/first_contract.sol:variables_modifiers",
						"label": "boolean",
						"offset": 0,
						"slot": "8",
						"type": "t_bool"
					},
					{
						"astId": 28,
						"contract": "contracts/first_contract.sol:variables_modifiers",
						"label": "bool_true",
						"offset": 1,
						"slot": "8",
						"type": "t_bool"
					},
					{
						"astId": 31,
						"contract": "contracts/first_contract.sol:variables_modifiers",
						"label": "bool_false",
						"offset": 2,
						"slot": "8",
						"type": "t_bool"
					},
					{
						"astId": 33,
						"contract": "contracts/first_contract.sol:variables_modifiers",
						"label": "first_bytes",
						"offset": 0,
						"slot": "9",
						"type": "t_bytes32"
					},
					{
						"astId": 35,
						"contract": "contracts/first_contract.sol:variables_modifiers",
						"label": "second_bytes",
						"offset": 0,
						"slot": "10",
						"type": "t_bytes4"
					},
					{
						"astId": 37,
						"contract": "contracts/first_contract.sol:variables_modifiers",
						"label": "byte_one",
						"offset": 4,
						"slot": "10",
						"type": "t_bytes1"
					},
					{
						"astId": 45,
						"contract": "contracts/first_contract.sol:variables_modifiers",
						"label": "hashing",
						"offset": 0,
						"slot": "11",
						"type": "t_bytes32"
					}
				],
				"types": {
					"t_bool": {
						"encoding": "inplace",
						"label": "bool",
						"numberOfBytes": "1"
					},
					"t_bytes1": {
						"encoding": "inplace",
						"label": "bytes1",
						"numberOfBytes": "1"
					},
					"t_bytes32": {
						"encoding": "inplace",
						"label": "bytes32",
						"numberOfBytes": "32"
					},
					"t_bytes4": {
						"encoding": "inplace",
						"label": "bytes4",
						"numberOfBytes": "4"
					},
					"t_int256": {
						"encoding": "inplace",
						"label": "int256",
						"numberOfBytes": "32"
					},
					"t_int8": {
						"encoding": "inplace",
						"label": "int8",
						"numberOfBytes": "1"
					},
					"t_string_storage": {
						"encoding": "bytes",
						"label": "string",
						"numberOfBytes": "32"
					},
					"t_uint256": {
						"encoding": "inplace",
						"label": "uint256",
						"numberOfBytes": "32"
					},
					"t_uint8": {
						"encoding": "inplace",
						"label": "uint8",
						"numberOfBytes": "1"
					}
				}
			},
			"userdoc": {
				"kind": "user",
				"methods": {},
				"version": 1
			}
		}
	}
}