{
	"contracts/first_contract.sol": {
		"variables_modifiers": {
			"abi": [
				{
					"inputs": [],
					"name": "b",
					"outputs": [
						{
							"internalType": "uint8",
							"name": "",
							"type": "uint8"
						}
					],
					"stateMutability": "view",
					"type": "function"
				},
				{
					"inputs": [],
					"name": "bool_true",
					"outputs": [
						{
							"internalType": "bool",
							"name": "",
							"type": "bool"
						}
					],
					"stateMutability": "view",
					"type": "function"
				},
				{
					"inputs": [],
					"name": "str_public",
					"outputs": [
						{
							"internalType": "string",
							"name": "",
							"type": "string"
						}
					],
					"stateMutability": "view",
					"type": "function"
				}
			],
			"devdoc": {
				"kind": "dev",
				"methods": {},
				"version": 1
			},
			"evm": {
				"assembly": "    /* \"contracts/first_contract.sol\":60:546  contract variables_modifiers {\r... */\n  mstore(0x40, 0x80)\n    /* \"contracts/first_contract.sol\":215:216  3 */\n  0x03\n    /* \"contracts/first_contract.sol\":198:216  uint8 public b = 3 */\n  0x01\n  exp(0x0100, 0x00)\n  dup2\n  sload\n  dup2\n  0xff\n  mul\n  not\n  and\n  swap1\n  dup4\n  0xff\n  and\n  mul\n  or\n  swap1\n  sstore\n  pop\n    /* \"contracts/first_contract.sol\":275:278  -32 */\n  0xffffffffffffffffffffffffffffffffffffffffffffffffffffffffffffffe0\n    /* \"contracts/first_contract.sol\":266:278  int8 d = -32 */\n  0x03\n  exp(0x0100, 0x00)\n  dup2\n  sload\n  dup2\n  0xff\n  mul\n  not\n  and\n  swap1\n  dup4\n  0x00\n  signextend\n  0xff\n  and\n  mul\n  or\n  swap1\n  sstore\n  pop\n    /* \"contracts/first_contract.sol\":293:295  65 */\n  0x41\n    /* \"contracts/first_contract.sol\":285:295  int e = 65 */\n  0x04\n  sstore\n    /* \"contracts/first_contract.sol\":337:379  string public str_public = \"String public\" */\n  mload(0x40)\n  dup1\n  0x40\n  add\n  0x40\n  mstore\n  dup1\n  0x0d\n  dup2\n  mstore\n  0x20\n  add\n  0x537472696e67207075626c696300000000000000000000000000000000000000\n  dup2\n  mstore\n  pop\n  0x06\n  swap1\n  dup1\n  mload\n  swap1\n  0x20\n  add\n  swap1\n  tag_1\n  swap3\n  swap2\n  swap1\n  tag_2\n  jump\t// in\ntag_1:\n  pop\n    /* \"contracts/first_contract.sol\":386:431  string private str_private = \"String Private\" */\n  mload(0x40)\n  dup1\n  0x40\n  add\n  0x40\n  mstore\n  dup1\n  0x0e\n  dup2\n  mstore\n  0x20\n  add\n  0x537472696e672050726976617465000000000000000000000000000000000000\n  dup2\n  mstore\n  pop\n  0x07\n  swap1\n  dup1\n  mload\n  swap1\n  0x20\n  add\n  swap1\n  tag_3\n  swap3\n  swap2\n  swap1\n  tag_2\n  jump\t// in\ntag_3:\n  pop\n    /* \"contracts/first_contract.sol\":498:502  true */\n  0x01\n    /* \"contracts/first_contract.sol\":474:502  bool public bool_true = true */\n  0x08\n  exp(0x0100, 0x01)\n  dup2\n  sload\n  dup2\n  0xff\n  mul\n  not\n  and\n  swap1\n  dup4\n  iszero\n  iszero\n  mul\n  or\n  swap1\n  sstore\n  pop\n    /* \"contracts/first_contract.sol\":535:540  false */\n  0x00\n    /* \"contracts/first_contract.sol\":509:540  bool private bool_false = false */\n  0x08\n  exp(0x0100, 0x02)\n  dup2\n  sload\n  dup2\n  0xff\n  mul\n  not\n  and\n  swap1\n  dup4\n  iszero\n  iszero\n  mul\n  or\n  swap1\n  sstore\n  pop\n    /* \"contracts/first_contract.sol\":60:546  contract variables_modifiers {\r... */\n  callvalue\n  dup1\n  iszero\n  tag_4\n  jumpi\n  0x00\n  dup1\n  revert\ntag_4:\n  pop\n  jump(tag_5)\ntag_2:\n  dup3\n  dup1\n  sload\n  tag_6\n  swap1\n  tag_7\n  jump\t// in\ntag_6:\n  swap1\n  0x00\n  mstore\n  keccak256(0x00, 0x20)\n  swap1\n  0x1f\n  add\n  0x20\n  swap1\n  div\n  dup2\n  add\n  swap3\n  dup3\n  tag_9\n  jumpi\n  0x00\n  dup6\n  sstore\n  jump(tag_8)\ntag_9:\n  dup3\n  0x1f\n  lt\n  tag_10\n  jumpi\n  dup1\n  mload\n  not(0xff)\n  and\n  dup4\n  dup1\n  add\n  or\n  dup6\n  sstore\n  jump(tag_8)\ntag_10:\n  dup3\n  dup1\n  add\n  0x01\n  add\n  dup6\n  sstore\n  dup3\n  iszero\n  tag_8\n  jumpi\n  swap2\n  dup3\n  add\ntag_11:\n  dup3\n  dup2\n  gt\n  iszero\n  tag_12\n  jumpi\n  dup3\n  mload\n  dup3\n  sstore\n  swap2\n  0x20\n  add\n  swap2\n  swap1\n  0x01\n  add\n  swap1\n  jump(tag_11)\ntag_12:\ntag_8:\n  pop\n  swap1\n  pop\n  tag_13\n  swap2\n  swap1\n  tag_14\n  jump\t// in\ntag_13:\n  pop\n  swap1\n  jump\t// out\ntag_14:\ntag_15:\n  dup1\n  dup3\n  gt\n  iszero\n  tag_16\n  jumpi\n  0x00\n  dup2\n  0x00\n  swap1\n  sstore\n  pop\n  0x01\n  add\n  jump(tag_15)\ntag_16:\n  pop\n  swap1\n  jump\t// out\n    /* \"#utility.yul\":7:327   */\ntag_7:\n    /* \"#utility.yul\":51:57   */\n  0x00\n    /* \"#utility.yul\":88:89   */\n  0x02\n    /* \"#utility.yul\":82:86   */\n  dup3\n    /* \"#utility.yul\":78:90   */\n  div\n    /* \"#utility.yul\":68:90   */\n  swap1\n  pop\n    /* \"#utility.yul\":135:136   */\n  0x01\n    /* \"#utility.yul\":129:133   */\n  dup3\n    /* \"#utility.yul\":125:137   */\n  and\n    /* \"#utility.yul\":156:174   */\n  dup1\n    /* \"#utility.yul\":146:227   */\n  tag_19\n  jumpi\n    /* \"#utility.yul\":212:216   */\n  0x7f\n    /* \"#utility.yul\":204:210   */\n  dup3\n    /* \"#utility.yul\":200:217   */\n  and\n    /* \"#utility.yul\":190:217   */\n  swap2\n  pop\n    /* \"#utility.yul\":146:227   */\ntag_19:\n    /* \"#utility.yul\":274:276   */\n  0x20\n    /* \"#utility.yul\":266:272   */\n  dup3\n    /* \"#utility.yul\":263:277   */\n  lt\n    /* \"#utility.yul\":243:261   */\n  dup2\n    /* \"#utility.yul\":240:278   */\n  eq\n    /* \"#utility.yul\":237:321   */\n  iszero\n  tag_20\n  jumpi\n    /* \"#utility.yul\":293:311   */\n  tag_21\n  tag_22\n  jump\t// in\ntag_21:\n    /* \"#utility.yul\":237:321   */\ntag_20:\n    /* \"#utility.yul\":58:327   */\n  pop\n    /* \"#utility.yul\":7:327   */\n  swap2\n  swap1\n  pop\n  jump\t// out\n    /* \"#utility.yul\":333:513   */\ntag_22:\n    /* \"#utility.yul\":381:458   */\n  0x4e487b7100000000000000000000000000000000000000000000000000000000\n    /* \"#utility.yul\":378:379   */\n  0x00\n    /* \"#utility.yul\":371:459   */\n  mstore\n    /* \"#utility.yul\":478:482   */\n  0x22\n    /* \"#utility.yul\":475:476   */\n  0x04\n    /* \"#utility.yul\":468:483   */\n  mstore\n    /* \"#utility.yul\":502:506   */\n  0x24\n    /* \"#utility.yul\":499:500   */\n  0x00\n    /* \"#utility.yul\":492:507   */\n  revert\n    /* \"contracts/first_contract.sol\":60:546  contract variables_modifiers {\r... */\ntag_5:\n  dataSize(sub_0)\n  dup1\n  dataOffset(sub_0)\n  0x00\n  codecopy\n  0x00\n  return\nstop\n\nsub_0: assembly {\n        /* \"contracts/first_contract.sol\":60:546  contract variables_modifiers {\r... */\n      mstore(0x40, 0x80)\n      callvalue\n      dup1\n      iszero\n      tag_1\n      jumpi\n      0x00\n      dup1\n      revert\n    tag_1:\n      pop\n      jumpi(tag_2, lt(calldatasize, 0x04))\n      shr(0xe0, calldataload(0x00))\n      dup1\n      0x4df7e3d0\n      eq\n      tag_3\n      jumpi\n      dup1\n      0x5760fa05\n      eq\n      tag_4\n      jumpi\n      dup1\n      0xb83d07b7\n      eq\n      tag_5\n      jumpi\n    tag_2:\n      0x00\n      dup1\n      revert\n        /* \"contracts/first_contract.sol\":198:216  uint8 public b = 3 */\n    tag_3:\n      tag_6\n      tag_7\n      jump\t// in\n    tag_6:\n      mload(0x40)\n      tag_8\n      swap2\n      swap1\n      tag_9\n      jump\t// in\n    tag_8:\n      mload(0x40)\n      dup1\n      swap2\n      sub\n      swap1\n      return\n        /* \"contracts/first_contract.sol\":474:502  bool public bool_true = true */\n    tag_4:\n      tag_10\n      tag_11\n      jump\t// in\n    tag_10:\n      mload(0x40)\n      tag_12\n      swap2\n      swap1\n      tag_13\n      jump\t// in\n    tag_12:\n      mload(0x40)\n      dup1\n      swap2\n      sub\n      swap1\n      return\n        /* \"contracts/first_contract.sol\":337:379  string public str_public = \"String public\" */\n    tag_5:\n      tag_14\n      tag_15\n      jump\t// in\n    tag_14:\n      mload(0x40)\n      tag_16\n      swap2\n      swap1\n      tag_17\n      jump\t// in\n    tag_16:\n      mload(0x40)\n      dup1\n      swap2\n      sub\n      swap1\n      return\n        /* \"contracts/first_contract.sol\":198:216  uint8 public b = 3 */\n    tag_7:\n      0x01\n      0x00\n      swap1\n      sload\n      swap1\n      0x0100\n      exp\n      swap1\n      div\n      0xff\n      and\n      dup2\n      jump\t// out\n        /* \"contracts/first_contract.sol\":474:502  bool public bool_true = true */\n    tag_11:\n      0x08\n      0x01\n      swap1\n      sload\n      swap1\n      0x0100\n      exp\n      swap1\n      div\n      0xff\n      and\n      dup2\n      jump\t// out\n        /* \"contracts/first_contract.sol\":337:379  string public str_public = \"String public\" */\n    tag_15:\n      0x06\n      dup1\n      sload\n      tag_18\n      swap1\n      tag_19\n      jump\t// in\n    tag_18:\n      dup1\n      0x1f\n      add\n      0x20\n      dup1\n      swap2\n      div\n      mul\n      0x20\n      add\n      mload(0x40)\n      swap1\n      dup2\n      add\n      0x40\n      mstore\n      dup1\n      swap3\n      swap2\n      swap1\n      dup2\n      dup2\n      mstore\n      0x20\n      add\n      dup3\n      dup1\n      sload\n      tag_20\n      swap1\n      tag_19\n      jump\t// in\n    tag_20:\n      dup1\n      iszero\n      tag_21\n      jumpi\n      dup1\n      0x1f\n      lt\n      tag_22\n      jumpi\n      0x0100\n      dup1\n      dup4\n      sload\n      div\n      mul\n      dup4\n      mstore\n      swap2\n      0x20\n      add\n      swap2\n      jump(tag_21)\n    tag_22:\n      dup3\n      add\n      swap2\n      swap1\n      0x00\n      mstore\n      keccak256(0x00, 0x20)\n      swap1\n    tag_23:\n      dup2\n      sload\n      dup2\n      mstore\n      swap1\n      0x01\n      add\n      swap1\n      0x20\n      add\n      dup1\n      dup4\n      gt\n      tag_23\n      jumpi\n      dup3\n      swap1\n      sub\n      0x1f\n      and\n      dup3\n      add\n      swap2\n    tag_21:\n      pop\n      pop\n      pop\n      pop\n      pop\n      dup2\n      jump\t// out\n        /* \"#utility.yul\":7:116   */\n    tag_25:\n        /* \"#utility.yul\":88:109   */\n      tag_27\n        /* \"#utility.yul\":103:108   */\n      dup2\n        /* \"#utility.yul\":88:109   */\n      tag_28\n      jump\t// in\n    tag_27:\n        /* \"#utility.yul\":83:86   */\n      dup3\n        /* \"#utility.yul\":76:110   */\n      mstore\n        /* \"#utility.yul\":7:116   */\n      pop\n      pop\n      jump\t// out\n        /* \"#utility.yul\":122:486   */\n    tag_29:\n        /* \"#utility.yul\":210:213   */\n      0x00\n        /* \"#utility.yul\":238:277   */\n      tag_31\n        /* \"#utility.yul\":271:276   */\n      dup3\n        /* \"#utility.yul\":238:277   */\n      tag_32\n      jump\t// in\n    tag_31:\n        /* \"#utility.yul\":293:364   */\n      tag_33\n        /* \"#utility.yul\":357:363   */\n      dup2\n        /* \"#utility.yul\":352:355   */\n      dup6\n        /* \"#utility.yul\":293:364   */\n      tag_34\n      jump\t// in\n    tag_33:\n        /* \"#utility.yul\":286:364   */\n      swap4\n      pop\n        /* \"#utility.yul\":373:425   */\n      tag_35\n        /* \"#utility.yul\":418:424   */\n      dup2\n        /* \"#utility.yul\":413:416   */\n      dup6\n        /* \"#utility.yul\":406:410   */\n      0x20\n        /* \"#utility.yul\":399:404   */\n      dup7\n        /* \"#utility.yul\":395:411   */\n      add\n        /* \"#utility.yul\":373:425   */\n      tag_36\n      jump\t// in\n    tag_35:\n        /* \"#utility.yul\":450:479   */\n      tag_37\n        /* \"#utility.yul\":472:478   */\n      dup2\n        /* \"#utility.yul\":450:479   */\n      tag_38\n      jump\t// in\n    tag_37:\n        /* \"#utility.yul\":445:448   */\n      dup5\n        /* \"#utility.yul\":441:480   */\n      add\n        /* \"#utility.yul\":434:480   */\n      swap2\n      pop\n        /* \"#utility.yul\":214:486   */\n      pop\n        /* \"#utility.yul\":122:486   */\n      swap3\n      swap2\n      pop\n      pop\n      jump\t// out\n        /* \"#utility.yul\":492:604   */\n    tag_39:\n        /* \"#utility.yul\":575:597   */\n      tag_41\n        /* \"#utility.yul\":591:596   */\n      dup2\n        /* \"#utility.yul\":575:597   */\n      tag_42\n      jump\t// in\n    tag_41:\n        /* \"#utility.yul\":570:573   */\n      dup3\n        /* \"#utility.yul\":563:598   */\n      mstore\n        /* \"#utility.yul\":492:604   */\n      pop\n      pop\n      jump\t// out\n        /* \"#utility.yul\":610:820   */\n    tag_13:\n        /* \"#utility.yul\":697:701   */\n      0x00\n        /* \"#utility.yul\":735:737   */\n      0x20\n        /* \"#utility.yul\":724:733   */\n      dup3\n        /* \"#utility.yul\":720:738   */\n      add\n        /* \"#utility.yul\":712:738   */\n      swap1\n      pop\n        /* \"#utility.yul\":748:813   */\n      tag_44\n        /* \"#utility.yul\":810:811   */\n      0x00\n        /* \"#utility.yul\":799:808   */\n      dup4\n        /* \"#utility.yul\":795:812   */\n      add\n        /* \"#utility.yul\":786:792   */\n      dup5\n        /* \"#utility.yul\":748:813   */\n      tag_25\n      jump\t// in\n    tag_44:\n        /* \"#utility.yul\":610:820   */\n      swap3\n      swap2\n      pop\n      pop\n      jump\t// out\n        /* \"#utility.yul\":826:1139   */\n    tag_17:\n        /* \"#utility.yul\":939:943   */\n      0x00\n        /* \"#utility.yul\":977:979   */\n      0x20\n        /* \"#utility.yul\":966:975   */\n      dup3\n        /* \"#utility.yul\":962:980   */\n      add\n        /* \"#utility.yul\":954:980   */\n      swap1\n      pop\n        /* \"#utility.yul\":1026:1035   */\n      dup2\n        /* \"#utility.yul\":1020:1024   */\n      dup2\n        /* \"#utility.yul\":1016:1036   */\n      sub\n        /* \"#utility.yul\":1012:1013   */\n      0x00\n        /* \"#utility.yul\":1001:1010   */\n      dup4\n        /* \"#utility.yul\":997:1014   */\n      add\n        /* \"#utility.yul\":990:1037   */\n      mstore\n        /* \"#utility.yul\":1054:1132   */\n      tag_46\n        /* \"#utility.yul\":1127:1131   */\n      dup2\n        /* \"#utility.yul\":1118:1124   */\n      dup5\n        /* \"#utility.yul\":1054:1132   */\n      tag_29\n      jump\t// in\n    tag_46:\n        /* \"#utility.yul\":1046:1132   */\n      swap1\n      pop\n        /* \"#utility.yul\":826:1139   */\n      swap3\n      swap2\n      pop\n      pop\n      jump\t// out\n        /* \"#utility.yul\":1145:1359   */\n    tag_9:\n        /* \"#utility.yul\":1234:1238   */\n      0x00\n        /* \"#utility.yul\":1272:1274   */\n      0x20\n        /* \"#utility.yul\":1261:1270   */\n      dup3\n        /* \"#utility.yul\":1257:1275   */\n      add\n        /* \"#utility.yul\":1249:1275   */\n      swap1\n      pop\n        /* \"#utility.yul\":1285:1352   */\n      tag_48\n        /* \"#utility.yul\":1349:1350   */\n      0x00\n        /* \"#utility.yul\":1338:1347   */\n      dup4\n        /* \"#utility.yul\":1334:1351   */\n      add\n        /* \"#utility.yul\":1325:1331   */\n      dup5\n        /* \"#utility.yul\":1285:1352   */\n      tag_39\n      jump\t// in\n    tag_48:\n        /* \"#utility.yul\":1145:1359   */\n      swap3\n      swap2\n      pop\n      pop\n      jump\t// out\n        /* \"#utility.yul\":1365:1464   */\n    tag_32:\n        /* \"#utility.yul\":1417:1423   */\n      0x00\n        /* \"#utility.yul\":1451:1456   */\n      dup2\n        /* \"#utility.yul\":1445:1457   */\n      mload\n        /* \"#utility.yul\":1435:1457   */\n      swap1\n      pop\n        /* \"#utility.yul\":1365:1464   */\n      swap2\n      swap1\n      pop\n      jump\t// out\n        /* \"#utility.yul\":1470:1639   */\n    tag_34:\n        /* \"#utility.yul\":1554:1565   */\n      0x00\n        /* \"#utility.yul\":1588:1594   */\n      dup3\n        /* \"#utility.yul\":1583:1586   */\n      dup3\n        /* \"#utility.yul\":1576:1595   */\n      mstore\n        /* \"#utility.yul\":1628:1632   */\n      0x20\n        /* \"#utility.yul\":1623:1626   */\n      dup3\n        /* \"#utility.yul\":1619:1633   */\n      add\n        /* \"#utility.yul\":1604:1633   */\n      swap1\n      pop\n        /* \"#utility.yul\":1470:1639   */\n      swap3\n      swap2\n      pop\n      pop\n      jump\t// out\n        /* \"#utility.yul\":1645:1735   */\n    tag_28:\n        /* \"#utility.yul\":1679:1686   */\n      0x00\n        /* \"#utility.yul\":1722:1727   */\n      dup2\n        /* \"#utility.yul\":1715:1728   */\n      iszero\n        /* \"#utility.yul\":1708:1729   */\n      iszero\n        /* \"#utility.yul\":1697:1729   */\n      swap1\n      pop\n        /* \"#utility.yul\":1645:1735   */\n      swap2\n      swap1\n      pop\n      jump\t// out\n        /* \"#utility.yul\":1741:1827   */\n    tag_42:\n        /* \"#utility.yul\":1776:1783   */\n      0x00\n        /* \"#utility.yul\":1816:1820   */\n      0xff\n        /* \"#utility.yul\":1809:1814   */\n      dup3\n        /* \"#utility.yul\":1805:1821   */\n      and\n        /* \"#utility.yul\":1794:1821   */\n      swap1\n      pop\n        /* \"#utility.yul\":1741:1827   */\n      swap2\n      swap1\n      pop\n      jump\t// out\n        /* \"#utility.yul\":1833:2140   */\n    tag_36:\n        /* \"#utility.yul\":1901:1902   */\n      0x00\n        /* \"#utility.yul\":1911:2024   */\n    tag_54:\n        /* \"#utility.yul\":1925:1931   */\n      dup4\n        /* \"#utility.yul\":1922:1923   */\n      dup2\n        /* \"#utility.yul\":1919:1932   */\n      lt\n        /* \"#utility.yul\":1911:2024   */\n      iszero\n      tag_56\n      jumpi\n        /* \"#utility.yul\":2010:2011   */\n      dup1\n        /* \"#utility.yul\":2005:2008   */\n      dup3\n        /* \"#utility.yul\":2001:2012   */\n      add\n        /* \"#utility.yul\":1995:2013   */\n      mload\n        /* \"#utility.yul\":1991:1992   */\n      dup2\n        /* \"#utility.yul\":1986:1989   */\n      dup5\n        /* \"#utility.yul\":1982:1993   */\n      add\n        /* \"#utility.yul\":1975:2014   */\n      mstore\n        /* \"#utility.yul\":1947:1949   */\n      0x20\n        /* \"#utility.yul\":1944:1945   */\n      dup2\n        /* \"#utility.yul\":1940:1950   */\n      add\n        /* \"#utility.yul\":1935:1950   */\n      swap1\n      pop\n        /* \"#utility.yul\":1911:2024   */\n      jump(tag_54)\n    tag_56:\n        /* \"#utility.yul\":2042:2048   */\n      dup4\n        /* \"#utility.yul\":2039:2040   */\n      dup2\n        /* \"#utility.yul\":2036:2049   */\n      gt\n        /* \"#utility.yul\":2033:2134   */\n      iszero\n      tag_57\n      jumpi\n        /* \"#utility.yul\":2122:2123   */\n      0x00\n        /* \"#utility.yul\":2113:2119   */\n      dup5\n        /* \"#utility.yul\":2108:2111   */\n      dup5\n        /* \"#utility.yul\":2104:2120   */\n      add\n        /* \"#utility.yul\":2097:2124   */\n      mstore\n        /* \"#utility.yul\":2033:2134   */\n    tag_57:\n        /* \"#utility.yul\":1882:2140   */\n      pop\n        /* \"#utility.yul\":1833:2140   */\n      pop\n      pop\n      pop\n      jump\t// out\n        /* \"#utility.yul\":2146:2466   */\n    tag_19:\n        /* \"#utility.yul\":2190:2196   */\n      0x00\n        /* \"#utility.yul\":2227:2228   */\n      0x02\n        /* \"#utility.yul\":2221:2225   */\n      dup3\n        /* \"#utility.yul\":2217:2229   */\n      div\n        /* \"#utility.yul\":2207:2229   */\n      swap1\n      pop\n        /* \"#utility.yul\":2274:2275   */\n      0x01\n        /* \"#utility.yul\":2268:2272   */\n      dup3\n        /* \"#utility.yul\":2264:2276   */\n      and\n        /* \"#utility.yul\":2295:2313   */\n      dup1\n        /* \"#utility.yul\":2285:2366   */\n      tag_59\n      jumpi\n        /* \"#utility.yul\":2351:2355   */\n      0x7f\n        /* \"#utility.yul\":2343:2349   */\n      dup3\n        /* \"#utility.yul\":2339:2356   */\n      and\n        /* \"#utility.yul\":2329:2356   */\n      swap2\n      pop\n        /* \"#utility.yul\":2285:2366   */\n    tag_59:\n        /* \"#utility.yul\":2413:2415   */\n      0x20\n        /* \"#utility.yul\":2405:2411   */\n      dup3\n        /* \"#utility.yul\":2402:2416   */\n      lt\n        /* \"#utility.yul\":2382:2400   */\n      dup2\n        /* \"#utility.yul\":2379:2417   */\n      eq\n        /* \"#utility.yul\":2376:2460   */\n      iszero\n      tag_60\n      jumpi\n        /* \"#utility.yul\":2432:2450   */\n      tag_61\n      tag_62\n      jump\t// in\n    tag_61:\n        /* \"#utility.yul\":2376:2460   */\n    tag_60:\n        /* \"#utility.yul\":2197:2466   */\n      pop\n        /* \"#utility.yul\":2146:2466   */\n      swap2\n      swap1\n      pop\n      jump\t// out\n        /* \"#utility.yul\":2472:2652   */\n    tag_62:\n        /* \"#utility.yul\":2520:2597   */\n      0x4e487b7100000000000000000000000000000000000000000000000000000000\n        /* \"#utility.yul\":2517:2518   */\n      0x00\n        /* \"#utility.yul\":2510:2598   */\n      mstore\n        /* \"#utility.yul\":2617:2621   */\n      0x22\n        /* \"#utility.yul\":2614:2615   */\n      0x04\n        /* \"#utility.yul\":2607:2622   */\n      mstore\n        /* \"#utility.yul\":2641:2645   */\n      0x24\n        /* \"#utility.yul\":2638:2639   */\n      0x00\n        /* \"#utility.yul\":2631:2646   */\n      revert\n        /* \"#utility.yul\":2658:2760   */\n    tag_38:\n        /* \"#utility.yul\":2699:2705   */\n      0x00\n        /* \"#utility.yul\":2750:2752   */\n      0x1f\n        /* \"#utility.yul\":2746:2753   */\n      not\n        /* \"#utility.yul\":2741:2743   */\n      0x1f\n        /* \"#utility.yul\":2734:2739   */\n      dup4\n        /* \"#utility.yul\":2730:2744   */\n      add\n        /* \"#utility.yul\":2726:2754   */\n      and\n        /* \"#utility.yul\":2716:2754   */\n      swap1\n      pop\n        /* \"#utility.yul\":2658:2760   */\n      swap2\n      swap1\n      pop\n      jump\t// out\n\n    auxdata: 0xa2646970667358221220298111b1d192932a9bb486113df3fcc35bc780282f06646d1ec0194988149bcf64736f6c63430008070033\n}\n",
				"bytecode": {
					"linkReferences": {},
					"object": "60806040526003600160006101000a81548160ff021916908360ff1602179055507fffffffffffffffffffffffffffffffffffffffffffffffffffffffffffffffe0600360006101000a81548160ff021916908360000b60ff16021790555060416004556040518060400160405280600d81526020017f537472696e67207075626c696300000000000000000000000000000000000000815250600690805190602001906100ae929190610143565b506040518060400160405280600e81526020017f537472696e672050726976617465000000000000000000000000000000000000815250600790805190602001906100fa929190610143565b506001600860016101000a81548160ff0219169083151502179055506000600860026101000a81548160ff02191690831515021790555034801561013d57600080fd5b50610247565b82805461014f906101e6565b90600052602060002090601f01602090048101928261017157600085556101b8565b82601f1061018a57805160ff19168380011785556101b8565b828001600101855582156101b8579182015b828111156101b757825182559160200191906001019061019c565b5b5090506101c591906101c9565b5090565b5b808211156101e25760008160009055506001016101ca565b5090565b600060028204905060018216806101fe57607f821691505b6020821081141561021257610211610218565b5b50919050565b7f4e487b7100000000000000000000000000000000000000000000000000000000600052602260045260246000fd5b610313806102566000396000f3fe608060405234801561001057600080fd5b50600436106100415760003560e01c80634df7e3d0146100465780635760fa0514610064578063b83d07b714610082575b600080fd5b61004e6100a0565b60405161005b91906101e8565b60405180910390f35b61006c6100b3565b60405161007991906101ab565b60405180910390f35b61008a6100c6565b60405161009791906101c6565b60405180910390f35b600160009054906101000a900460ff1681565b600860019054906101000a900460ff1681565b600680546100d39061026b565b80601f01602080910402602001604051908101604052809291908181526020018280546100ff9061026b565b801561014c5780601f106101215761010080835404028352916020019161014c565b820191906000526020600020905b81548152906001019060200180831161012f57829003601f168201915b505050505081565b61015d8161021f565b82525050565b600061016e82610203565b610178818561020e565b9350610188818560208601610238565b610191816102cc565b840191505092915050565b6101a58161022b565b82525050565b60006020820190506101c06000830184610154565b92915050565b600060208201905081810360008301526101e08184610163565b905092915050565b60006020820190506101fd600083018461019c565b92915050565b600081519050919050565b600082825260208201905092915050565b60008115159050919050565b600060ff82169050919050565b60005b8381101561025657808201518184015260208101905061023b565b83811115610265576000848401525b50505050565b6000600282049050600182168061028357607f821691505b602082108114156102975761029661029d565b5b50919050565b7f4e487b7100000000000000000000000000000000000000000000000000000000600052602260045260246000fd5b6000601f19601f830116905091905056fea2646970667358221220298111b1d192932a9bb486113df3fcc35bc780282f06646d1ec0194988149bcf64736f6c63430008070033",
					"opcodes": "PUSH1 0x80 PUSH1 0x40 MSTORE PUSH1 0x3 PUSH1 0x1 PUSH1 0x0 PUSH2 0x100 EXP DUP2 SLOAD DUP2 PUSH1 0xFF MUL NOT AND SWAP1 DUP4 PUSH1 0xFF AND MUL OR SWAP1 SSTORE POP PUSH32 0xFFFFFFFFFFFFFFFFFFFFFFFFFFFFFFFFFFFFFFFFFFFFFFFFFFFFFFFFFFFFFFE0 PUSH1 0x3 PUSH1 0x0 PUSH2 0x100 EXP DUP2 SLOAD DUP2 PUSH1 0xFF MUL NOT AND SWAP1 DUP4 PUSH1 0x0 SIGNEXTEND PUSH1 0xFF AND MUL OR SWAP1 SSTORE POP PUSH1 0x41 PUSH1 0x4 SSTORE PUSH1 0x40 MLOAD DUP1 PUSH1 0x40 ADD PUSH1 0x40 MSTORE DUP1 PUSH1 0xD DUP2 MSTORE PUSH1 0x20 ADD PUSH32 0x537472696E67207075626C696300000000000000000000000000000000000000 DUP2 MSTORE POP PUSH1 0x6 SWAP1 DUP1 MLOAD SWAP1 PUSH1 0x20 ADD SWAP1 PUSH2 0xAE SWAP3 SWAP2 SWAP1 PUSH2 0x143 JUMP JUMPDEST POP PUSH1 0x40 MLOAD DUP1 PUSH1 0x40 ADD PUSH1 0x40 MSTORE DUP1 PUSH1 0xE DUP2 MSTORE PUSH1 0x20 ADD PUSH32 0x537472696E672050726976617465000000000000000000000000000000000000 DUP2 MSTORE POP PUSH1 0x7 SWAP1 DUP1 MLOAD SWAP1 PUSH1 0x20 ADD SWAP1 PUSH2 0xFA SWAP3 SWAP2 SWAP1 PUSH2 0x143 JUMP JUMPDEST POP PUSH1 0x1 PUSH1 0x8 PUSH1 0x1 PUSH2 0x100 EXP DUP2 SLOAD DUP2 PUSH1 0xFF MUL NOT AND SWAP1 DUP4 ISZERO ISZERO MUL OR SWAP1 SSTORE POP PUSH1 0x0 PUSH1 0x8 PUSH1 0x2 PUSH2 0x100 EXP DUP2 SLOAD DUP2 PUSH1 0xFF MUL NOT AND SWAP1 DUP4 ISZERO ISZERO MUL OR SWAP1 SSTORE POP CALLVALUE DUP1 ISZERO PUSH2 0x13D JUMPI PUSH1 0x0 DUP1 REVERT JUMPDEST POP PUSH2 0x247 JUMP JUMPDEST DUP3 DUP1 SLOAD PUSH2 0x14F SWAP1 PUSH2 0x1E6 JUMP JUMPDEST SWAP1 PUSH1 0x0 MSTORE PUSH1 0x20 PUSH1 0x0 KECCAK256 SWAP1 PUSH1 0x1F ADD PUSH1 0x20 SWAP1 DIV DUP2 ADD SWAP3 DUP3 PUSH2 0x171 JUMPI PUSH1 0x0 DUP6 SSTORE PUSH2 0x1B8 JUMP JUMPDEST DUP3 PUSH1 0x1F LT PUSH2 0x18A JUMPI DUP1 MLOAD PUSH1 0xFF NOT AND DUP4 DUP1 ADD OR DUP6 SSTORE PUSH2 0x1B8 JUMP JUMPDEST DUP3 DUP1 ADD PUSH1 0x1 ADD DUP6 SSTORE DUP3 ISZERO PUSH2 0x1B8 JUMPI SWAP2 DUP3 ADD JUMPDEST DUP3 DUP2 GT ISZERO PUSH2 0x1B7 JUMPI DUP3 MLOAD DUP3 SSTORE SWAP2 PUSH1 0x20 ADD SWAP2 SWAP1 PUSH1 0x1 ADD SWAP1 PUSH2 0x19C JUMP JUMPDEST JUMPDEST POP SWAP1 POP PUSH2 0x1C5 SWAP2 SWAP1 PUSH2 0x1C9 JUMP JUMPDEST POP SWAP1 JUMP JUMPDEST JUMPDEST DUP1 DUP3 GT ISZERO PUSH2 0x1E2 JUMPI PUSH1 0x0 DUP2 PUSH1 0x0 SWAP1 SSTORE POP PUSH1 0x1 ADD PUSH2 0x1CA JUMP JUMPDEST POP SWAP1 JUMP JUMPDEST PUSH1 0x0 PUSH1 0x2 DUP3 DIV SWAP1 POP PUSH1 0x1 DUP3 AND DUP1 PUSH2 0x1FE JUMPI PUSH1 0x7F DUP3 AND SWAP2 POP JUMPDEST PUSH1 0x20 DUP3 LT DUP2 EQ ISZERO PUSH2 0x212 JUMPI PUSH2 0x211 PUSH2 0x218 JUMP JUMPDEST JUMPDEST POP SWAP2 SWAP1 POP JUMP JUMPDEST PUSH32 0x4E487B7100000000000000000000000000000000000000000000000000000000 PUSH1 0x0 MSTORE PUSH1 0x22 PUSH1 0x4 MSTORE PUSH1 0x24 PUSH1 0x0 REVERT JUMPDEST PUSH2 0x313 DUP1 PUSH2 0x256 PUSH1 0x0 CODECOPY PUSH1 0x0 RETURN INVALID PUSH1 0x80 PUSH1 0x40 MSTORE CALLVALUE DUP1 ISZERO PUSH2 0x10 JUMPI PUSH1 0x0 DUP1 REVERT JUMPDEST POP PUSH1 0x4 CALLDATASIZE LT PUSH2 0x41 JUMPI PUSH1 0x0 CALLDATALOAD PUSH1 0xE0 SHR DUP1 PUSH4 0x4DF7E3D0 EQ PUSH2 0x46 JUMPI DUP1 PUSH4 0x5760FA05 EQ PUSH2 0x64 JUMPI DUP1 PUSH4 0xB83D07B7 EQ PUSH2 0x82 JUMPI JUMPDEST PUSH1 0x0 DUP1 REVERT JUMPDEST PUSH2 0x4E PUSH2 0xA0 JUMP JUMPDEST PUSH1 0x40 MLOAD PUSH2 0x5B SWAP2 SWAP1 PUSH2 0x1E8 JUMP JUMPDEST PUSH1 0x40 MLOAD DUP1 SWAP2 SUB SWAP1 RETURN JUMPDEST PUSH2 0x6C PUSH2 0xB3 JUMP JUMPDEST PUSH1 0x40 MLOAD PUSH2 0x79 SWAP2 SWAP1 PUSH2 0x1AB JUMP JUMPDEST PUSH1 0x40 MLOAD DUP1 SWAP2 SUB SWAP1 RETURN JUMPDEST PUSH2 0x8A PUSH2 0xC6 JUMP JUMPDEST PUSH1 0x40 MLOAD PUSH2 0x97 SWAP2 SWAP1 PUSH2 0x1C6 JUMP JUMPDEST PUSH1 0x40 MLOAD DUP1 SWAP2 SUB SWAP1 RETURN JUMPDEST PUSH1 0x1 PUSH1 0x0 SWAP1 SLOAD SWAP1 PUSH2 0x100 EXP SWAP1 DIV PUSH1 0xFF AND DUP2 JUMP JUMPDEST PUSH1 0x8 PUSH1 0x1 SWAP1 SLOAD SWAP1 PUSH2 0x100 EXP SWAP1 DIV PUSH1 0xFF AND DUP2 JUMP JUMPDEST PUSH1 0x6 DUP1 SLOAD PUSH2 0xD3 SWAP1 PUSH2 0x26B JUMP JUMPDEST DUP1 PUSH1 0x1F ADD PUSH1 0x20 DUP1 SWAP2 DIV MUL PUSH1 0x20 ADD PUSH1 0x40 MLOAD SWAP1 DUP2 ADD PUSH1 0x40 MSTORE DUP1 SWAP3 SWAP2 SWAP1 DUP2 DUP2 MSTORE PUSH1 0x20 ADD DUP3 DUP1 SLOAD PUSH2 0xFF SWAP1 PUSH2 0x26B JUMP JUMPDEST DUP1 ISZERO PUSH2 0x14C JUMPI DUP1 PUSH1 0x1F LT PUSH2 0x121 JUMPI PUSH2 0x100 DUP1 DUP4 SLOAD DIV MUL DUP4 MSTORE SWAP2 PUSH1 0x20 ADD SWAP2 PUSH2 0x14C JUMP JUMPDEST DUP3 ADD SWAP2 SWAP1 PUSH1 0x0 MSTORE PUSH1 0x20 PUSH1 0x0 KECCAK256 SWAP1 JUMPDEST DUP2 SLOAD DUP2 MSTORE SWAP1 PUSH1 0x1 ADD SWAP1 PUSH1 0x20 ADD DUP1 DUP4 GT PUSH2 0x12F JUMPI DUP3 SWAP1 SUB PUSH1 0x1F AND DUP3 ADD SWAP2 JUMPDEST POP POP POP POP POP DUP2 JUMP JUMPDEST PUSH2 0x15D DUP2 PUSH2 0x21F JUMP JUMPDEST DUP3 MSTORE POP POP JUMP JUMPDEST PUSH1 0x0 PUSH2 0x16E DUP3 PUSH2 0x203 JUMP JUMPDEST PUSH2 0x178 DUP2 DUP6 PUSH2 0x20E JUMP JUMPDEST SWAP4 POP PUSH2 0x188 DUP2 DUP6 PUSH1 0x20 DUP7 ADD PUSH2 0x238 JUMP JUMPDEST PUSH2 0x191 DUP2 PUSH2 0x2CC JUMP JUMPDEST DUP5 ADD SWAP2 POP POP SWAP3 SWAP2 POP POP JUMP JUMPDEST PUSH2 0x1A5 DUP2 PUSH2 0x22B JUMP JUMPDEST DUP3 MSTORE POP POP JUMP JUMPDEST PUSH1 0x0 PUSH1 0x20 DUP3 ADD SWAP1 POP PUSH2 0x1C0 PUSH1 0x0 DUP4 ADD DUP5 PUSH2 0x154 JUMP JUMPDEST SWAP3 SWAP2 POP POP JUMP JUMPDEST PUSH1 0x0 PUSH1 0x20 DUP3 ADD SWAP1 POP DUP2 DUP2 SUB PUSH1 0x0 DUP4 ADD MSTORE PUSH2 0x1E0 DUP2 DUP5 PUSH2 0x163 JUMP JUMPDEST SWAP1 POP SWAP3 SWAP2 POP POP JUMP JUMPDEST PUSH1 0x0 PUSH1 0x20 DUP3 ADD SWAP1 POP PUSH2 0x1FD PUSH1 0x0 DUP4 ADD DUP5 PUSH2 0x19C JUMP JUMPDEST SWAP3 SWAP2 POP POP JUMP JUMPDEST PUSH1 0x0 DUP2 MLOAD SWAP1 POP SWAP2 SWAP1 POP JUMP JUMPDEST PUSH1 0x0 DUP3 DUP3 MSTORE PUSH1 0x20 DUP3 ADD SWAP1 POP SWAP3 SWAP2 POP POP JUMP JUMPDEST PUSH1 0x0 DUP2 ISZERO ISZERO SWAP1 POP SWAP2 SWAP1 POP JUMP JUMPDEST PUSH1 0x0 PUSH1 0xFF DUP3 AND SWAP1 POP SWAP2 SWAP1 POP JUMP JUMPDEST PUSH1 0x0 JUMPDEST DUP4 DUP2 LT ISZERO PUSH2 0x256 JUMPI DUP1 DUP3 ADD MLOAD DUP2 DUP5 ADD MSTORE PUSH1 0x20 DUP2 ADD SWAP1 POP PUSH2 0x23B JUMP JUMPDEST DUP4 DUP2 GT ISZERO PUSH2 0x265 JUMPI PUSH1 0x0 DUP5 DUP5 ADD MSTORE JUMPDEST POP POP POP POP JUMP JUMPDEST PUSH1 0x0 PUSH1 0x2 DUP3 DIV SWAP1 POP PUSH1 0x1 DUP3 AND DUP1 PUSH2 0x283 JUMPI PUSH1 0x7F DUP3 AND SWAP2 POP JUMPDEST PUSH1 0x20 DUP3 LT DUP2 EQ ISZERO PUSH2 0x297 JUMPI PUSH2 0x296 PUSH2 0x29D JUMP JUMPDEST JUMPDEST POP SWAP2 SWAP1 POP JUMP JUMPDEST PUSH32 0x4E487B7100000000000000000000000000000000000000000000000000000000 PUSH1 0x0 MSTORE PUSH1 0x22 PUSH1 0x4 MSTORE PUSH1 0x24 PUSH1 0x0 REVERT JUMPDEST PUSH1 0x0 PUSH1 0x1F NOT PUSH1 0x1F DUP4 ADD AND SWAP1 POP SWAP2 SWAP1 POP JUMP INVALID LOG2 PUSH5 0x6970667358 0x22 SLT KECCAK256 0x29 DUP2 GT 0xB1 0xD1 SWAP3 SWAP4 0x2A SWAP12 0xB4 DUP7 GT RETURNDATASIZE RETURN 0xFC 0xC3 JUMPDEST 0xC7 DUP1 0x28 0x2F MOD PUSH5 0x6D1EC01949 DUP9 EQ SWAP12 0xCF PUSH5 0x736F6C6343 STOP ADDMOD SMOD STOP CALLER "
				},
				"gasEstimates": {
					"creation": {
						"codeDepositCost": "157400",
						"executionCost": "infinite",
						"totalCost": "infinite"
					},
					"external": {
						"b()": "2449",
						"bool_true()": "2521",
						"str_public()": "infinite"
					}
				},
				"methodIdentifiers": {
					"b()": "4df7e3d0",
					"bool_true()": "5760fa05",
					"str_public()": "b83d07b7"
				}
			},
			"storageLayout": {
				"storage": [
					{
						"astId": 3,
						"contract": "contracts/first_contract.sol:variables_modifiers",
						"label": "a",
						"offset": 0,
						"slot": "0",
						"type": "t_uint256"
					},
					{
						"astId": 6,
						"contract": "contracts/first_contract.sol:variables_modifiers",
						"label": "b",
						"offset": 0,
						"slot": "1",
						"type": "t_uint8"
					},
					{
						"astId": 8,
						"contract": "contracts/first_contract.sol:variables_modifiers",
						"label": "c",
						"offset": 0,
						"slot": "2",
						"type": "t_int256"
					},
					{
						"astId": 12,
						"contract": "contracts/first_contract.sol:variables_modifiers",
						"label": "d",
						"offset": 0,
						"slot": "3",
						"type": "t_int8"
					},
					{
						"astId": 15,
						"contract": "contracts/first_contract.sol:variables_modifiers",
						"label": "e",
						"offset": 0,
						"slot": "4",
						"type": "t_int256"
					},
					{
						"astId": 17,
						"contract": "contracts/first_contract.sol:variables_modifiers",
						"label": "str",
						"offset": 0,
						"slot": "5",
						"type": "t_string_storage"
					},
					{
						"astId": 20,
						"contract": "contracts/first_contract.sol:variables_modifiers",
						"label": "str_public",
						"offset": 0,
						"slot": "6",
						"type": "t_string_storage"
					},
					{
						"astId": 23,
						"contract": "contracts/first_contract.sol:variables_modifiers",
						"label": "str_private",
						"offset": 0,
						"slot": "7",
						"type": "t_string_storage"
					},
					{
						"astId": 25,
						"contract": "contracts/first_contract.sol:variables_modifiers",
						"label": "boolean",
						"offset": 0,
						"slot": "8",
						"type": "t_bool"
					},
					{
						"astId": 28,
						"contract": "contracts/first_contract.sol:variables_modifiers",
						"label": "bool_true",
						"offset": 1,
						"slot": "8",
						"type": "t_bool"
					},
					{
						"astId": 31,
						"contract": "contracts/first_contract.sol:variables_modifiers",
						"label": "bool_false",
						"offset": 2,
						"slot": "8",
						"type": "t_bool"
					}
				],
				"types": {
					"t_bool": {
						"encoding": "inplace",
						"label": "bool",
						"numberOfBytes": "1"
					},
					"t_int256": {
						"encoding": "inplace",
						"label": "int256",
						"numberOfBytes": "32"
					},
					"t_int8": {
						"encoding": "inplace",
						"label": "int8",
						"numberOfBytes": "1"
					},
					"t_string_storage": {
						"encoding": "bytes",
						"label": "string",
						"numberOfBytes": "32"
					},
					"t_uint256": {
						"encoding": "inplace",
						"label": "uint256",
						"numberOfBytes": "32"
					},
					"t_uint8": {
						"encoding": "inplace",
						"label": "uint8",
						"numberOfBytes": "1"
					}
				}
			},
			"userdoc": {
				"kind": "user",
				"methods": {},
				"version": 1
			}
		}
	}
}