{
	"contracts/first_contract.sol": {
		"variables_modifiers": {
			"abi": [
				{
					"inputs": [],
					"name": "addres_two",
					"outputs": [
						{
							"internalType": "address",
							"name": "",
							"type": "address"
						}
					],
					"stateMutability": "view",
					"type": "function"
				},
				{
					"inputs": [],
					"name": "address_one",
					"outputs": [
						{
							"internalType": "address",
							"name": "",
							"type": "address"
						}
					],
					"stateMutability": "view",
					"type": "function"
				},
				{
					"inputs": [],
					"name": "b",
					"outputs": [
						{
							"internalType": "uint8",
							"name": "",
							"type": "uint8"
						}
					],
					"stateMutability": "view",
					"type": "function"
				},
				{
					"inputs": [],
					"name": "bool_true",
					"outputs": [
						{
							"internalType": "bool",
							"name": "",
							"type": "bool"
						}
					],
					"stateMutability": "view",
					"type": "function"
				},
				{
					"inputs": [],
					"name": "displayState",
					"outputs": [
						{
							"internalType": "enum variables_modifiers.options",
							"name": "",
							"type": "uint8"
						}
					],
					"stateMutability": "view",
					"type": "function"
				},
				{
					"inputs": [],
					"name": "hashing",
					"outputs": [
						{
							"internalType": "bytes32",
							"name": "",
							"type": "bytes32"
						}
					],
					"stateMutability": "view",
					"type": "function"
				},
				{
					"inputs": [],
					"name": "str_public",
					"outputs": [
						{
							"internalType": "string",
							"name": "",
							"type": "string"
						}
					],
					"stateMutability": "view",
					"type": "function"
				},
				{
					"inputs": [],
					"name": "turnOf",
					"outputs": [],
					"stateMutability": "nonpayable",
					"type": "function"
				},
				{
					"inputs": [],
					"name": "turnOn",
					"outputs": [],
					"stateMutability": "nonpayable",
					"type": "function"
				}
			],
			"devdoc": {
				"kind": "dev",
				"methods": {},
				"version": 1
			},
			"evm": {
				"assembly": "    /* \"contracts/first_contract.sol\":60:1274  contract variables_modifiers {\r... */\n  mstore(0x40, 0x80)\n    /* \"contracts/first_contract.sol\":215:216  3 */\n  0x03\n    /* \"contracts/first_contract.sol\":198:216  uint8 public b = 3 */\n  0x01\n  exp(0x0100, 0x00)\n  dup2\n  sload\n  dup2\n  0xff\n  mul\n  not\n  and\n  swap1\n  dup4\n  0xff\n  and\n  mul\n  or\n  swap1\n  sstore\n  pop\n    /* \"contracts/first_contract.sol\":275:278  -32 */\n  0xffffffffffffffffffffffffffffffffffffffffffffffffffffffffffffffe0\n    /* \"contracts/first_contract.sol\":266:278  int8 d = -32 */\n  0x03\n  exp(0x0100, 0x00)\n  dup2\n  sload\n  dup2\n  0xff\n  mul\n  not\n  and\n  swap1\n  dup4\n  0x00\n  signextend\n  0xff\n  and\n  mul\n  or\n  swap1\n  sstore\n  pop\n    /* \"contracts/first_contract.sol\":293:295  65 */\n  0x41\n    /* \"contracts/first_contract.sol\":285:295  int e = 65 */\n  0x04\n  sstore\n    /* \"contracts/first_contract.sol\":337:379  string public str_public = \"String public\" */\n  mload(0x40)\n  dup1\n  0x40\n  add\n  0x40\n  mstore\n  dup1\n  0x0d\n  dup2\n  mstore\n  0x20\n  add\n  0x537472696e67207075626c696300000000000000000000000000000000000000\n  dup2\n  mstore\n  pop\n  0x06\n  swap1\n  dup1\n  mload\n  swap1\n  0x20\n  add\n  swap1\n  tag_1\n  swap3\n  swap2\n  swap1\n  tag_2\n  jump\t// in\ntag_1:\n  pop\n    /* \"contracts/first_contract.sol\":386:431  string private str_private = \"String Private\" */\n  mload(0x40)\n  dup1\n  0x40\n  add\n  0x40\n  mstore\n  dup1\n  0x0e\n  dup2\n  mstore\n  0x20\n  add\n  0x537472696e672050726976617465000000000000000000000000000000000000\n  dup2\n  mstore\n  pop\n  0x07\n  swap1\n  dup1\n  mload\n  swap1\n  0x20\n  add\n  swap1\n  tag_3\n  swap3\n  swap2\n  swap1\n  tag_2\n  jump\t// in\ntag_3:\n  pop\n    /* \"contracts/first_contract.sol\":498:502  true */\n  0x01\n    /* \"contracts/first_contract.sol\":474:502  bool public bool_true = true */\n  0x08\n  exp(0x0100, 0x01)\n  dup2\n  sload\n  dup2\n  0xff\n  mul\n  not\n  and\n  swap1\n  dup4\n  iszero\n  iszero\n  mul\n  or\n  swap1\n  sstore\n  pop\n    /* \"contracts/first_contract.sol\":535:540  false */\n  0x00\n    /* \"contracts/first_contract.sol\":509:540  bool private bool_false = false */\n  0x08\n  exp(0x0100, 0x02)\n  dup2\n  sload\n  dup2\n  0xff\n  mul\n  not\n  and\n  swap1\n  dup4\n  iszero\n  iszero\n  mul\n  or\n  swap1\n  sstore\n  pop\n    /* \"contracts/first_contract.sol\":696:726  abi.encodePacked(\"Hello word\") */\n  add(0x20, mload(0x40))\n  tag_4\n  swap1\n  tag_5\n  jump\t// in\ntag_4:\n  mload(0x40)\n  0x20\n  dup2\n  dup4\n  sub\n  sub\n  dup2\n  mstore\n  swap1\n  0x40\n  mstore\n    /* \"contracts/first_contract.sol\":686:727  keccak256(abi.encodePacked(\"Hello word\")) */\n  dup1\n  mload\n  swap1\n  0x20\n  add\n  keccak256\n    /* \"contracts/first_contract.sol\":661:727  bytes32 public hashing = keccak256(abi.encodePacked(\"Hello word\")) */\n  0x0b\n  sstore\n    /* \"contracts/first_contract.sol\":806:848  0x5B38Da6a701c568545dCfcB03FcB875f56beddC4 */\n  0x5b38da6a701c568545dcfcb03fcb875f56beddc4\n    /* \"contracts/first_contract.sol\":777:848  address public address_one = 0x5B38Da6a701c568545dCfcB03FcB875f56beddC4 */\n  0x0d\n  exp(0x0100, 0x00)\n  dup2\n  sload\n  dup2\n  0xffffffffffffffffffffffffffffffffffffffff\n  mul\n  not\n  and\n  swap1\n  dup4\n  0xffffffffffffffffffffffffffffffffffffffff\n  and\n  mul\n  or\n  swap1\n  sstore\n  pop\n    /* \"contracts/first_contract.sol\":883:893  msg.sender */\n  caller\n    /* \"contracts/first_contract.sol\":855:893  address public addres_two = msg.sender */\n  0x0e\n  exp(0x0100, 0x00)\n  dup2\n  sload\n  dup2\n  0xffffffffffffffffffffffffffffffffffffffff\n  mul\n  not\n  and\n  swap1\n  dup4\n  0xffffffffffffffffffffffffffffffffffffffff\n  and\n  mul\n  or\n  swap1\n  sstore\n  pop\n    /* \"contracts/first_contract.sol\":60:1274  contract variables_modifiers {\r... */\n  callvalue\n  dup1\n  iszero\n  tag_6\n  jumpi\n  0x00\n  dup1\n  revert\ntag_6:\n  pop\n  jump(tag_7)\ntag_2:\n  dup3\n  dup1\n  sload\n  tag_8\n  swap1\n  tag_9\n  jump\t// in\ntag_8:\n  swap1\n  0x00\n  mstore\n  keccak256(0x00, 0x20)\n  swap1\n  0x1f\n  add\n  0x20\n  swap1\n  div\n  dup2\n  add\n  swap3\n  dup3\n  tag_11\n  jumpi\n  0x00\n  dup6\n  sstore\n  jump(tag_10)\ntag_11:\n  dup3\n  0x1f\n  lt\n  tag_12\n  jumpi\n  dup1\n  mload\n  not(0xff)\n  and\n  dup4\n  dup1\n  add\n  or\n  dup6\n  sstore\n  jump(tag_10)\ntag_12:\n  dup3\n  dup1\n  add\n  0x01\n  add\n  dup6\n  sstore\n  dup3\n  iszero\n  tag_10\n  jumpi\n  swap2\n  dup3\n  add\ntag_13:\n  dup3\n  dup2\n  gt\n  iszero\n  tag_14\n  jumpi\n  dup3\n  mload\n  dup3\n  sstore\n  swap2\n  0x20\n  add\n  swap2\n  swap1\n  0x01\n  add\n  swap1\n  jump(tag_13)\ntag_14:\ntag_10:\n  pop\n  swap1\n  pop\n  tag_15\n  swap2\n  swap1\n  tag_16\n  jump\t// in\ntag_15:\n  pop\n  swap1\n  jump\t// out\ntag_16:\ntag_17:\n  dup1\n  dup3\n  gt\n  iszero\n  tag_18\n  jumpi\n  0x00\n  dup2\n  0x00\n  swap1\n  sstore\n  pop\n  0x01\n  add\n  jump(tag_17)\ntag_18:\n  pop\n  swap1\n  jump\t// out\n    /* \"#utility.yul\":7:409   */\ntag_20:\n    /* \"#utility.yul\":167:170   */\n  0x00\n    /* \"#utility.yul\":188:273   */\n  tag_22\n    /* \"#utility.yul\":270:272   */\n  0x0a\n    /* \"#utility.yul\":265:268   */\n  dup4\n    /* \"#utility.yul\":188:273   */\n  tag_23\n  jump\t// in\ntag_22:\n    /* \"#utility.yul\":181:273   */\n  swap2\n  pop\n    /* \"#utility.yul\":282:375   */\n  tag_24\n    /* \"#utility.yul\":371:374   */\n  dup3\n    /* \"#utility.yul\":282:375   */\n  tag_25\n  jump\t// in\ntag_24:\n    /* \"#utility.yul\":400:402   */\n  0x0a\n    /* \"#utility.yul\":395:398   */\n  dup3\n    /* \"#utility.yul\":391:403   */\n  add\n    /* \"#utility.yul\":384:403   */\n  swap1\n  pop\n    /* \"#utility.yul\":7:409   */\n  swap2\n  swap1\n  pop\n  jump\t// out\n    /* \"#utility.yul\":415:796   */\ntag_5:\n    /* \"#utility.yul\":600:603   */\n  0x00\n    /* \"#utility.yul\":622:770   */\n  tag_27\n    /* \"#utility.yul\":766:769   */\n  dup3\n    /* \"#utility.yul\":622:770   */\n  tag_20\n  jump\t// in\ntag_27:\n    /* \"#utility.yul\":615:770   */\n  swap2\n  pop\n    /* \"#utility.yul\":787:790   */\n  dup2\n    /* \"#utility.yul\":780:790   */\n  swap1\n  pop\n    /* \"#utility.yul\":415:796   */\n  swap2\n  swap1\n  pop\n  jump\t// out\n    /* \"#utility.yul\":802:950   */\ntag_23:\n    /* \"#utility.yul\":904:915   */\n  0x00\n    /* \"#utility.yul\":941:944   */\n  dup2\n    /* \"#utility.yul\":926:944   */\n  swap1\n  pop\n    /* \"#utility.yul\":802:950   */\n  swap3\n  swap2\n  pop\n  pop\n  jump\t// out\n    /* \"#utility.yul\":956:1276   */\ntag_9:\n    /* \"#utility.yul\":1000:1006   */\n  0x00\n    /* \"#utility.yul\":1037:1038   */\n  0x02\n    /* \"#utility.yul\":1031:1035   */\n  dup3\n    /* \"#utility.yul\":1027:1039   */\n  div\n    /* \"#utility.yul\":1017:1039   */\n  swap1\n  pop\n    /* \"#utility.yul\":1084:1085   */\n  0x01\n    /* \"#utility.yul\":1078:1082   */\n  dup3\n    /* \"#utility.yul\":1074:1086   */\n  and\n    /* \"#utility.yul\":1105:1123   */\n  dup1\n    /* \"#utility.yul\":1095:1176   */\n  tag_30\n  jumpi\n    /* \"#utility.yul\":1161:1165   */\n  0x7f\n    /* \"#utility.yul\":1153:1159   */\n  dup3\n    /* \"#utility.yul\":1149:1166   */\n  and\n    /* \"#utility.yul\":1139:1166   */\n  swap2\n  pop\n    /* \"#utility.yul\":1095:1176   */\ntag_30:\n    /* \"#utility.yul\":1223:1225   */\n  0x20\n    /* \"#utility.yul\":1215:1221   */\n  dup3\n    /* \"#utility.yul\":1212:1226   */\n  lt\n    /* \"#utility.yul\":1192:1210   */\n  dup2\n    /* \"#utility.yul\":1189:1227   */\n  eq\n    /* \"#utility.yul\":1186:1270   */\n  iszero\n  tag_31\n  jumpi\n    /* \"#utility.yul\":1242:1260   */\n  tag_32\n  tag_33\n  jump\t// in\ntag_32:\n    /* \"#utility.yul\":1186:1270   */\ntag_31:\n    /* \"#utility.yul\":1007:1276   */\n  pop\n    /* \"#utility.yul\":956:1276   */\n  swap2\n  swap1\n  pop\n  jump\t// out\n    /* \"#utility.yul\":1282:1462   */\ntag_33:\n    /* \"#utility.yul\":1330:1407   */\n  0x4e487b7100000000000000000000000000000000000000000000000000000000\n    /* \"#utility.yul\":1327:1328   */\n  0x00\n    /* \"#utility.yul\":1320:1408   */\n  mstore\n    /* \"#utility.yul\":1427:1431   */\n  0x22\n    /* \"#utility.yul\":1424:1425   */\n  0x04\n    /* \"#utility.yul\":1417:1432   */\n  mstore\n    /* \"#utility.yul\":1451:1455   */\n  0x24\n    /* \"#utility.yul\":1448:1449   */\n  0x00\n    /* \"#utility.yul\":1441:1456   */\n  revert\n    /* \"#utility.yul\":1468:1628   */\ntag_25:\n    /* \"#utility.yul\":1608:1620   */\n  0x48656c6c6f20776f726400000000000000000000000000000000000000000000\n    /* \"#utility.yul\":1604:1605   */\n  0x00\n    /* \"#utility.yul\":1596:1602   */\n  dup3\n    /* \"#utility.yul\":1592:1606   */\n  add\n    /* \"#utility.yul\":1585:1621   */\n  mstore\n    /* \"#utility.yul\":1468:1628   */\n  pop\n  jump\t// out\n    /* \"contracts/first_contract.sol\":60:1274  contract variables_modifiers {\r... */\ntag_7:\n  dataSize(sub_0)\n  dup1\n  dataOffset(sub_0)\n  0x00\n  codecopy\n  0x00\n  return\nstop\n\nsub_0: assembly {\n        /* \"contracts/first_contract.sol\":60:1274  contract variables_modifiers {\r... */\n      mstore(0x40, 0x80)\n      callvalue\n      dup1\n      iszero\n      tag_1\n      jumpi\n      0x00\n      dup1\n      revert\n    tag_1:\n      pop\n      jumpi(tag_2, lt(calldatasize, 0x04))\n      shr(0xe0, calldataload(0x00))\n      dup1\n      0xb654b765\n      gt\n      tag_12\n      jumpi\n      dup1\n      0xb654b765\n      eq\n      tag_7\n      jumpi\n      dup1\n      0xb83d07b7\n      eq\n      tag_8\n      jumpi\n      dup1\n      0xba33ed7d\n      eq\n      tag_9\n      jumpi\n      dup1\n      0xcd97d84e\n      eq\n      tag_10\n      jumpi\n      dup1\n      0xe2bed7b4\n      eq\n      tag_11\n      jumpi\n      jump(tag_2)\n    tag_12:\n      dup1\n      0x4df7e3d0\n      eq\n      tag_3\n      jumpi\n      dup1\n      0x5760fa05\n      eq\n      tag_4\n      jumpi\n      dup1\n      0x5f7d462e\n      eq\n      tag_5\n      jumpi\n      dup1\n      0x7272eea1\n      eq\n      tag_6\n      jumpi\n    tag_2:\n      0x00\n      dup1\n      revert\n        /* \"contracts/first_contract.sol\":198:216  uint8 public b = 3 */\n    tag_3:\n      tag_13\n      tag_14\n      jump\t// in\n    tag_13:\n      mload(0x40)\n      tag_15\n      swap2\n      swap1\n      tag_16\n      jump\t// in\n    tag_15:\n      mload(0x40)\n      dup1\n      swap2\n      sub\n      swap1\n      return\n        /* \"contracts/first_contract.sol\":474:502  bool public bool_true = true */\n    tag_4:\n      tag_17\n      tag_18\n      jump\t// in\n    tag_17:\n      mload(0x40)\n      tag_19\n      swap2\n      swap1\n      tag_20\n      jump\t// in\n    tag_19:\n      mload(0x40)\n      dup1\n      swap2\n      sub\n      swap1\n      return\n        /* \"contracts/first_contract.sol\":855:893  address public addres_two = msg.sender */\n    tag_5:\n      tag_21\n      tag_22\n      jump\t// in\n    tag_21:\n      mload(0x40)\n      tag_23\n      swap2\n      swap1\n      tag_24\n      jump\t// in\n    tag_23:\n      mload(0x40)\n      dup1\n      swap2\n      sub\n      swap1\n      return\n        /* \"contracts/first_contract.sol\":1183:1267  function displayState() public view returns (options){\r... */\n    tag_6:\n      tag_25\n      tag_26\n      jump\t// in\n    tag_25:\n      mload(0x40)\n      tag_27\n      swap2\n      swap1\n      tag_28\n      jump\t// in\n    tag_27:\n      mload(0x40)\n      dup1\n      swap2\n      sub\n      swap1\n      return\n        /* \"contracts/first_contract.sol\":1112:1175  function turnOf() public {\r... */\n    tag_7:\n      tag_29\n      tag_30\n      jump\t// in\n    tag_29:\n      stop\n        /* \"contracts/first_contract.sol\":337:379  string public str_public = \"String public\" */\n    tag_8:\n      tag_31\n      tag_32\n      jump\t// in\n    tag_31:\n      mload(0x40)\n      tag_33\n      swap2\n      swap1\n      tag_34\n      jump\t// in\n    tag_33:\n      mload(0x40)\n      dup1\n      swap2\n      sub\n      swap1\n      return\n        /* \"contracts/first_contract.sol\":1042:1104  function turnOn() public {\r... */\n    tag_9:\n      tag_35\n      tag_36\n      jump\t// in\n    tag_35:\n      stop\n        /* \"contracts/first_contract.sol\":661:727  bytes32 public hashing = keccak256(abi.encodePacked(\"Hello word\")) */\n    tag_10:\n      tag_37\n      tag_38\n      jump\t// in\n    tag_37:\n      mload(0x40)\n      tag_39\n      swap2\n      swap1\n      tag_40\n      jump\t// in\n    tag_39:\n      mload(0x40)\n      dup1\n      swap2\n      sub\n      swap1\n      return\n        /* \"contracts/first_contract.sol\":777:848  address public address_one = 0x5B38Da6a701c568545dCfcB03FcB875f56beddC4 */\n    tag_11:\n      tag_41\n      tag_42\n      jump\t// in\n    tag_41:\n      mload(0x40)\n      tag_43\n      swap2\n      swap1\n      tag_24\n      jump\t// in\n    tag_43:\n      mload(0x40)\n      dup1\n      swap2\n      sub\n      swap1\n      return\n        /* \"contracts/first_contract.sol\":198:216  uint8 public b = 3 */\n    tag_14:\n      0x01\n      0x00\n      swap1\n      sload\n      swap1\n      0x0100\n      exp\n      swap1\n      div\n      0xff\n      and\n      dup2\n      jump\t// out\n        /* \"contracts/first_contract.sol\":474:502  bool public bool_true = true */\n    tag_18:\n      0x08\n      0x01\n      swap1\n      sload\n      swap1\n      0x0100\n      exp\n      swap1\n      div\n      0xff\n      and\n      dup2\n      jump\t// out\n        /* \"contracts/first_contract.sol\":855:893  address public addres_two = msg.sender */\n    tag_22:\n      0x0e\n      0x00\n      swap1\n      sload\n      swap1\n      0x0100\n      exp\n      swap1\n      div\n      0xffffffffffffffffffffffffffffffffffffffff\n      and\n      dup2\n      jump\t// out\n        /* \"contracts/first_contract.sol\":1183:1267  function displayState() public view returns (options){\r... */\n    tag_26:\n        /* \"contracts/first_contract.sol\":1228:1235  options */\n      0x00\n        /* \"contracts/first_contract.sol\":1254:1259  state */\n      0x0e\n      0x14\n      swap1\n      sload\n      swap1\n      0x0100\n      exp\n      swap1\n      div\n      0xff\n      and\n        /* \"contracts/first_contract.sol\":1247:1259  return state */\n      swap1\n      pop\n        /* \"contracts/first_contract.sol\":1183:1267  function displayState() public view returns (options){\r... */\n      swap1\n      jump\t// out\n        /* \"contracts/first_contract.sol\":1112:1175  function turnOf() public {\r... */\n    tag_30:\n        /* \"contracts/first_contract.sol\":1156:1167  options.OFF */\n      0x01\n        /* \"contracts/first_contract.sol\":1148:1153  state */\n      0x0e\n      0x14\n        /* \"contracts/first_contract.sol\":1148:1167  state = options.OFF */\n      0x0100\n      exp\n      dup2\n      sload\n      dup2\n      0xff\n      mul\n      not\n      and\n      swap1\n      dup4\n      0x01\n      dup2\n      gt\n      iszero\n      tag_46\n      jumpi\n      tag_47\n      tag_48\n      jump\t// in\n    tag_47:\n    tag_46:\n      mul\n      or\n      swap1\n      sstore\n      pop\n        /* \"contracts/first_contract.sol\":1112:1175  function turnOf() public {\r... */\n      jump\t// out\n        /* \"contracts/first_contract.sol\":337:379  string public str_public = \"String public\" */\n    tag_32:\n      0x06\n      dup1\n      sload\n      tag_49\n      swap1\n      tag_50\n      jump\t// in\n    tag_49:\n      dup1\n      0x1f\n      add\n      0x20\n      dup1\n      swap2\n      div\n      mul\n      0x20\n      add\n      mload(0x40)\n      swap1\n      dup2\n      add\n      0x40\n      mstore\n      dup1\n      swap3\n      swap2\n      swap1\n      dup2\n      dup2\n      mstore\n      0x20\n      add\n      dup3\n      dup1\n      sload\n      tag_51\n      swap1\n      tag_50\n      jump\t// in\n    tag_51:\n      dup1\n      iszero\n      tag_52\n      jumpi\n      dup1\n      0x1f\n      lt\n      tag_53\n      jumpi\n      0x0100\n      dup1\n      dup4\n      sload\n      div\n      mul\n      dup4\n      mstore\n      swap2\n      0x20\n      add\n      swap2\n      jump(tag_52)\n    tag_53:\n      dup3\n      add\n      swap2\n      swap1\n      0x00\n      mstore\n      keccak256(0x00, 0x20)\n      swap1\n    tag_54:\n      dup2\n      sload\n      dup2\n      mstore\n      swap1\n      0x01\n      add\n      swap1\n      0x20\n      add\n      dup1\n      dup4\n      gt\n      tag_54\n      jumpi\n      dup3\n      swap1\n      sub\n      0x1f\n      and\n      dup3\n      add\n      swap2\n    tag_52:\n      pop\n      pop\n      pop\n      pop\n      pop\n      dup2\n      jump\t// out\n        /* \"contracts/first_contract.sol\":1042:1104  function turnOn() public {\r... */\n    tag_36:\n        /* \"contracts/first_contract.sol\":1086:1096  options.ON */\n      0x00\n        /* \"contracts/first_contract.sol\":1078:1083  state */\n      0x0e\n      0x14\n        /* \"contracts/first_contract.sol\":1078:1096  state = options.ON */\n      0x0100\n      exp\n      dup2\n      sload\n      dup2\n      0xff\n      mul\n      not\n      and\n      swap1\n      dup4\n      0x01\n      dup2\n      gt\n      iszero\n      tag_56\n      jumpi\n      tag_57\n      tag_48\n      jump\t// in\n    tag_57:\n    tag_56:\n      mul\n      or\n      swap1\n      sstore\n      pop\n        /* \"contracts/first_contract.sol\":1042:1104  function turnOn() public {\r... */\n      jump\t// out\n        /* \"contracts/first_contract.sol\":661:727  bytes32 public hashing = keccak256(abi.encodePacked(\"Hello word\")) */\n    tag_38:\n      sload(0x0b)\n      dup2\n      jump\t// out\n        /* \"contracts/first_contract.sol\":777:848  address public address_one = 0x5B38Da6a701c568545dCfcB03FcB875f56beddC4 */\n    tag_42:\n      0x0d\n      0x00\n      swap1\n      sload\n      swap1\n      0x0100\n      exp\n      swap1\n      div\n      0xffffffffffffffffffffffffffffffffffffffff\n      and\n      dup2\n      jump\t// out\n        /* \"#utility.yul\":7:125   */\n    tag_59:\n        /* \"#utility.yul\":94:118   */\n      tag_61\n        /* \"#utility.yul\":112:117   */\n      dup2\n        /* \"#utility.yul\":94:118   */\n      tag_62\n      jump\t// in\n    tag_61:\n        /* \"#utility.yul\":89:92   */\n      dup3\n        /* \"#utility.yul\":82:119   */\n      mstore\n        /* \"#utility.yul\":7:125   */\n      pop\n      pop\n      jump\t// out\n        /* \"#utility.yul\":131:240   */\n    tag_63:\n        /* \"#utility.yul\":212:233   */\n      tag_65\n        /* \"#utility.yul\":227:232   */\n      dup2\n        /* \"#utility.yul\":212:233   */\n      tag_66\n      jump\t// in\n    tag_65:\n        /* \"#utility.yul\":207:210   */\n      dup3\n        /* \"#utility.yul\":200:234   */\n      mstore\n        /* \"#utility.yul\":131:240   */\n      pop\n      pop\n      jump\t// out\n        /* \"#utility.yul\":246:364   */\n    tag_67:\n        /* \"#utility.yul\":333:357   */\n      tag_69\n        /* \"#utility.yul\":351:356   */\n      dup2\n        /* \"#utility.yul\":333:357   */\n      tag_70\n      jump\t// in\n    tag_69:\n        /* \"#utility.yul\":328:331   */\n      dup3\n        /* \"#utility.yul\":321:358   */\n      mstore\n        /* \"#utility.yul\":246:364   */\n      pop\n      pop\n      jump\t// out\n        /* \"#utility.yul\":370:517   */\n    tag_71:\n        /* \"#utility.yul\":465:510   */\n      tag_73\n        /* \"#utility.yul\":504:509   */\n      dup2\n        /* \"#utility.yul\":465:510   */\n      tag_74\n      jump\t// in\n    tag_73:\n        /* \"#utility.yul\":460:463   */\n      dup3\n        /* \"#utility.yul\":453:511   */\n      mstore\n        /* \"#utility.yul\":370:517   */\n      pop\n      pop\n      jump\t// out\n        /* \"#utility.yul\":523:887   */\n    tag_75:\n        /* \"#utility.yul\":611:614   */\n      0x00\n        /* \"#utility.yul\":639:678   */\n      tag_77\n        /* \"#utility.yul\":672:677   */\n      dup3\n        /* \"#utility.yul\":639:678   */\n      tag_78\n      jump\t// in\n    tag_77:\n        /* \"#utility.yul\":694:765   */\n      tag_79\n        /* \"#utility.yul\":758:764   */\n      dup2\n        /* \"#utility.yul\":753:756   */\n      dup6\n        /* \"#utility.yul\":694:765   */\n      tag_80\n      jump\t// in\n    tag_79:\n        /* \"#utility.yul\":687:765   */\n      swap4\n      pop\n        /* \"#utility.yul\":774:826   */\n      tag_81\n        /* \"#utility.yul\":819:825   */\n      dup2\n        /* \"#utility.yul\":814:817   */\n      dup6\n        /* \"#utility.yul\":807:811   */\n      0x20\n        /* \"#utility.yul\":800:805   */\n      dup7\n        /* \"#utility.yul\":796:812   */\n      add\n        /* \"#utility.yul\":774:826   */\n      tag_82\n      jump\t// in\n    tag_81:\n        /* \"#utility.yul\":851:880   */\n      tag_83\n        /* \"#utility.yul\":873:879   */\n      dup2\n        /* \"#utility.yul\":851:880   */\n      tag_84\n      jump\t// in\n    tag_83:\n        /* \"#utility.yul\":846:849   */\n      dup5\n        /* \"#utility.yul\":842:881   */\n      add\n        /* \"#utility.yul\":835:881   */\n      swap2\n      pop\n        /* \"#utility.yul\":615:887   */\n      pop\n        /* \"#utility.yul\":523:887   */\n      swap3\n      swap2\n      pop\n      pop\n      jump\t// out\n        /* \"#utility.yul\":893:1005   */\n    tag_85:\n        /* \"#utility.yul\":976:998   */\n      tag_87\n        /* \"#utility.yul\":992:997   */\n      dup2\n        /* \"#utility.yul\":976:998   */\n      tag_88\n      jump\t// in\n    tag_87:\n        /* \"#utility.yul\":971:974   */\n      dup3\n        /* \"#utility.yul\":964:999   */\n      mstore\n        /* \"#utility.yul\":893:1005   */\n      pop\n      pop\n      jump\t// out\n        /* \"#utility.yul\":1011:1233   */\n    tag_24:\n        /* \"#utility.yul\":1104:1108   */\n      0x00\n        /* \"#utility.yul\":1142:1144   */\n      0x20\n        /* \"#utility.yul\":1131:1140   */\n      dup3\n        /* \"#utility.yul\":1127:1145   */\n      add\n        /* \"#utility.yul\":1119:1145   */\n      swap1\n      pop\n        /* \"#utility.yul\":1155:1226   */\n      tag_90\n        /* \"#utility.yul\":1223:1224   */\n      0x00\n        /* \"#utility.yul\":1212:1221   */\n      dup4\n        /* \"#utility.yul\":1208:1225   */\n      add\n        /* \"#utility.yul\":1199:1205   */\n      dup5\n        /* \"#utility.yul\":1155:1226   */\n      tag_59\n      jump\t// in\n    tag_90:\n        /* \"#utility.yul\":1011:1233   */\n      swap3\n      swap2\n      pop\n      pop\n      jump\t// out\n        /* \"#utility.yul\":1239:1449   */\n    tag_20:\n        /* \"#utility.yul\":1326:1330   */\n      0x00\n        /* \"#utility.yul\":1364:1366   */\n      0x20\n        /* \"#utility.yul\":1353:1362   */\n      dup3\n        /* \"#utility.yul\":1349:1367   */\n      add\n        /* \"#utility.yul\":1341:1367   */\n      swap1\n      pop\n        /* \"#utility.yul\":1377:1442   */\n      tag_92\n        /* \"#utility.yul\":1439:1440   */\n      0x00\n        /* \"#utility.yul\":1428:1437   */\n      dup4\n        /* \"#utility.yul\":1424:1441   */\n      add\n        /* \"#utility.yul\":1415:1421   */\n      dup5\n        /* \"#utility.yul\":1377:1442   */\n      tag_63\n      jump\t// in\n    tag_92:\n        /* \"#utility.yul\":1239:1449   */\n      swap3\n      swap2\n      pop\n      pop\n      jump\t// out\n        /* \"#utility.yul\":1455:1677   */\n    tag_40:\n        /* \"#utility.yul\":1548:1552   */\n      0x00\n        /* \"#utility.yul\":1586:1588   */\n      0x20\n        /* \"#utility.yul\":1575:1584   */\n      dup3\n        /* \"#utility.yul\":1571:1589   */\n      add\n        /* \"#utility.yul\":1563:1589   */\n      swap1\n      pop\n        /* \"#utility.yul\":1599:1670   */\n      tag_94\n        /* \"#utility.yul\":1667:1668   */\n      0x00\n        /* \"#utility.yul\":1656:1665   */\n      dup4\n        /* \"#utility.yul\":1652:1669   */\n      add\n        /* \"#utility.yul\":1643:1649   */\n      dup5\n        /* \"#utility.yul\":1599:1670   */\n      tag_67\n      jump\t// in\n    tag_94:\n        /* \"#utility.yul\":1455:1677   */\n      swap3\n      swap2\n      pop\n      pop\n      jump\t// out\n        /* \"#utility.yul\":1683:1921   */\n    tag_28:\n        /* \"#utility.yul\":1784:1788   */\n      0x00\n        /* \"#utility.yul\":1822:1824   */\n      0x20\n        /* \"#utility.yul\":1811:1820   */\n      dup3\n        /* \"#utility.yul\":1807:1825   */\n      add\n        /* \"#utility.yul\":1799:1825   */\n      swap1\n      pop\n        /* \"#utility.yul\":1835:1914   */\n      tag_96\n        /* \"#utility.yul\":1911:1912   */\n      0x00\n        /* \"#utility.yul\":1900:1909   */\n      dup4\n        /* \"#utility.yul\":1896:1913   */\n      add\n        /* \"#utility.yul\":1887:1893   */\n      dup5\n        /* \"#utility.yul\":1835:1914   */\n      tag_71\n      jump\t// in\n    tag_96:\n        /* \"#utility.yul\":1683:1921   */\n      swap3\n      swap2\n      pop\n      pop\n      jump\t// out\n        /* \"#utility.yul\":1927:2240   */\n    tag_34:\n        /* \"#utility.yul\":2040:2044   */\n      0x00\n        /* \"#utility.yul\":2078:2080   */\n      0x20\n        /* \"#utility.yul\":2067:2076   */\n      dup3\n        /* \"#utility.yul\":2063:2081   */\n      add\n        /* \"#utility.yul\":2055:2081   */\n      swap1\n      pop\n        /* \"#utility.yul\":2127:2136   */\n      dup2\n        /* \"#utility.yul\":2121:2125   */\n      dup2\n        /* \"#utility.yul\":2117:2137   */\n      sub\n        /* \"#utility.yul\":2113:2114   */\n      0x00\n        /* \"#utility.yul\":2102:2111   */\n      dup4\n        /* \"#utility.yul\":2098:2115   */\n      add\n        /* \"#utility.yul\":2091:2138   */\n      mstore\n        /* \"#utility.yul\":2155:2233   */\n      tag_98\n        /* \"#utility.yul\":2228:2232   */\n      dup2\n        /* \"#utility.yul\":2219:2225   */\n      dup5\n        /* \"#utility.yul\":2155:2233   */\n      tag_75\n      jump\t// in\n    tag_98:\n        /* \"#utility.yul\":2147:2233   */\n      swap1\n      pop\n        /* \"#utility.yul\":1927:2240   */\n      swap3\n      swap2\n      pop\n      pop\n      jump\t// out\n        /* \"#utility.yul\":2246:2460   */\n    tag_16:\n        /* \"#utility.yul\":2335:2339   */\n      0x00\n        /* \"#utility.yul\":2373:2375   */\n      0x20\n        /* \"#utility.yul\":2362:2371   */\n      dup3\n        /* \"#utility.yul\":2358:2376   */\n      add\n        /* \"#utility.yul\":2350:2376   */\n      swap1\n      pop\n        /* \"#utility.yul\":2386:2453   */\n      tag_100\n        /* \"#utility.yul\":2450:2451   */\n      0x00\n        /* \"#utility.yul\":2439:2448   */\n      dup4\n        /* \"#utility.yul\":2435:2452   */\n      add\n        /* \"#utility.yul\":2426:2432   */\n      dup5\n        /* \"#utility.yul\":2386:2453   */\n      tag_85\n      jump\t// in\n    tag_100:\n        /* \"#utility.yul\":2246:2460   */\n      swap3\n      swap2\n      pop\n      pop\n      jump\t// out\n        /* \"#utility.yul\":2466:2565   */\n    tag_78:\n        /* \"#utility.yul\":2518:2524   */\n      0x00\n        /* \"#utility.yul\":2552:2557   */\n      dup2\n        /* \"#utility.yul\":2546:2558   */\n      mload\n        /* \"#utility.yul\":2536:2558   */\n      swap1\n      pop\n        /* \"#utility.yul\":2466:2565   */\n      swap2\n      swap1\n      pop\n      jump\t// out\n        /* \"#utility.yul\":2571:2740   */\n    tag_80:\n        /* \"#utility.yul\":2655:2666   */\n      0x00\n        /* \"#utility.yul\":2689:2695   */\n      dup3\n        /* \"#utility.yul\":2684:2687   */\n      dup3\n        /* \"#utility.yul\":2677:2696   */\n      mstore\n        /* \"#utility.yul\":2729:2733   */\n      0x20\n        /* \"#utility.yul\":2724:2727   */\n      dup3\n        /* \"#utility.yul\":2720:2734   */\n      add\n        /* \"#utility.yul\":2705:2734   */\n      swap1\n      pop\n        /* \"#utility.yul\":2571:2740   */\n      swap3\n      swap2\n      pop\n      pop\n      jump\t// out\n        /* \"#utility.yul\":2746:2842   */\n    tag_62:\n        /* \"#utility.yul\":2783:2790   */\n      0x00\n        /* \"#utility.yul\":2812:2836   */\n      tag_104\n        /* \"#utility.yul\":2830:2835   */\n      dup3\n        /* \"#utility.yul\":2812:2836   */\n      tag_105\n      jump\t// in\n    tag_104:\n        /* \"#utility.yul\":2801:2836   */\n      swap1\n      pop\n        /* \"#utility.yul\":2746:2842   */\n      swap2\n      swap1\n      pop\n      jump\t// out\n        /* \"#utility.yul\":2848:2938   */\n    tag_66:\n        /* \"#utility.yul\":2882:2889   */\n      0x00\n        /* \"#utility.yul\":2925:2930   */\n      dup2\n        /* \"#utility.yul\":2918:2931   */\n      iszero\n        /* \"#utility.yul\":2911:2932   */\n      iszero\n        /* \"#utility.yul\":2900:2932   */\n      swap1\n      pop\n        /* \"#utility.yul\":2848:2938   */\n      swap2\n      swap1\n      pop\n      jump\t// out\n        /* \"#utility.yul\":2944:3021   */\n    tag_70:\n        /* \"#utility.yul\":2981:2988   */\n      0x00\n        /* \"#utility.yul\":3010:3015   */\n      dup2\n        /* \"#utility.yul\":2999:3015   */\n      swap1\n      pop\n        /* \"#utility.yul\":2944:3021   */\n      swap2\n      swap1\n      pop\n      jump\t// out\n        /* \"#utility.yul\":3027:3158   */\n    tag_108:\n        /* \"#utility.yul\":3074:3081   */\n      0x00\n        /* \"#utility.yul\":3103:3108   */\n      dup2\n        /* \"#utility.yul\":3092:3108   */\n      swap1\n      pop\n        /* \"#utility.yul\":3109:3152   */\n      tag_110\n        /* \"#utility.yul\":3146:3151   */\n      dup3\n        /* \"#utility.yul\":3109:3152   */\n      tag_111\n      jump\t// in\n    tag_110:\n        /* \"#utility.yul\":3027:3158   */\n      swap2\n      swap1\n      pop\n      jump\t// out\n        /* \"#utility.yul\":3164:3290   */\n    tag_105:\n        /* \"#utility.yul\":3201:3208   */\n      0x00\n        /* \"#utility.yul\":3241:3283   */\n      0xffffffffffffffffffffffffffffffffffffffff\n        /* \"#utility.yul\":3234:3239   */\n      dup3\n        /* \"#utility.yul\":3230:3284   */\n      and\n        /* \"#utility.yul\":3219:3284   */\n      swap1\n      pop\n        /* \"#utility.yul\":3164:3290   */\n      swap2\n      swap1\n      pop\n      jump\t// out\n        /* \"#utility.yul\":3296:3382   */\n    tag_88:\n        /* \"#utility.yul\":3331:3338   */\n      0x00\n        /* \"#utility.yul\":3371:3375   */\n      0xff\n        /* \"#utility.yul\":3364:3369   */\n      dup3\n        /* \"#utility.yul\":3360:3376   */\n      and\n        /* \"#utility.yul\":3349:3376   */\n      swap1\n      pop\n        /* \"#utility.yul\":3296:3382   */\n      swap2\n      swap1\n      pop\n      jump\t// out\n        /* \"#utility.yul\":3388:3519   */\n    tag_74:\n        /* \"#utility.yul\":3446:3455   */\n      0x00\n        /* \"#utility.yul\":3479:3513   */\n      tag_115\n        /* \"#utility.yul\":3507:3512   */\n      dup3\n        /* \"#utility.yul\":3479:3513   */\n      tag_108\n      jump\t// in\n    tag_115:\n        /* \"#utility.yul\":3466:3513   */\n      swap1\n      pop\n        /* \"#utility.yul\":3388:3519   */\n      swap2\n      swap1\n      pop\n      jump\t// out\n        /* \"#utility.yul\":3525:3832   */\n    tag_82:\n        /* \"#utility.yul\":3593:3594   */\n      0x00\n        /* \"#utility.yul\":3603:3716   */\n    tag_117:\n        /* \"#utility.yul\":3617:3623   */\n      dup4\n        /* \"#utility.yul\":3614:3615   */\n      dup2\n        /* \"#utility.yul\":3611:3624   */\n      lt\n        /* \"#utility.yul\":3603:3716   */\n      iszero\n      tag_119\n      jumpi\n        /* \"#utility.yul\":3702:3703   */\n      dup1\n        /* \"#utility.yul\":3697:3700   */\n      dup3\n        /* \"#utility.yul\":3693:3704   */\n      add\n        /* \"#utility.yul\":3687:3705   */\n      mload\n        /* \"#utility.yul\":3683:3684   */\n      dup2\n        /* \"#utility.yul\":3678:3681   */\n      dup5\n        /* \"#utility.yul\":3674:3685   */\n      add\n        /* \"#utility.yul\":3667:3706   */\n      mstore\n        /* \"#utility.yul\":3639:3641   */\n      0x20\n        /* \"#utility.yul\":3636:3637   */\n      dup2\n        /* \"#utility.yul\":3632:3642   */\n      add\n        /* \"#utility.yul\":3627:3642   */\n      swap1\n      pop\n        /* \"#utility.yul\":3603:3716   */\n      jump(tag_117)\n    tag_119:\n        /* \"#utility.yul\":3734:3740   */\n      dup4\n        /* \"#utility.yul\":3731:3732   */\n      dup2\n        /* \"#utility.yul\":3728:3741   */\n      gt\n        /* \"#utility.yul\":3725:3826   */\n      iszero\n      tag_120\n      jumpi\n        /* \"#utility.yul\":3814:3815   */\n      0x00\n        /* \"#utility.yul\":3805:3811   */\n      dup5\n        /* \"#utility.yul\":3800:3803   */\n      dup5\n        /* \"#utility.yul\":3796:3812   */\n      add\n        /* \"#utility.yul\":3789:3816   */\n      mstore\n        /* \"#utility.yul\":3725:3826   */\n    tag_120:\n        /* \"#utility.yul\":3574:3832   */\n      pop\n        /* \"#utility.yul\":3525:3832   */\n      pop\n      pop\n      pop\n      jump\t// out\n        /* \"#utility.yul\":3838:4158   */\n    tag_50:\n        /* \"#utility.yul\":3882:3888   */\n      0x00\n        /* \"#utility.yul\":3919:3920   */\n      0x02\n        /* \"#utility.yul\":3913:3917   */\n      dup3\n        /* \"#utility.yul\":3909:3921   */\n      div\n        /* \"#utility.yul\":3899:3921   */\n      swap1\n      pop\n        /* \"#utility.yul\":3966:3967   */\n      0x01\n        /* \"#utility.yul\":3960:3964   */\n      dup3\n        /* \"#utility.yul\":3956:3968   */\n      and\n        /* \"#utility.yul\":3987:4005   */\n      dup1\n        /* \"#utility.yul\":3977:4058   */\n      tag_122\n      jumpi\n        /* \"#utility.yul\":4043:4047   */\n      0x7f\n        /* \"#utility.yul\":4035:4041   */\n      dup3\n        /* \"#utility.yul\":4031:4048   */\n      and\n        /* \"#utility.yul\":4021:4048   */\n      swap2\n      pop\n        /* \"#utility.yul\":3977:4058   */\n    tag_122:\n        /* \"#utility.yul\":4105:4107   */\n      0x20\n        /* \"#utility.yul\":4097:4103   */\n      dup3\n        /* \"#utility.yul\":4094:4108   */\n      lt\n        /* \"#utility.yul\":4074:4092   */\n      dup2\n        /* \"#utility.yul\":4071:4109   */\n      eq\n        /* \"#utility.yul\":4068:4152   */\n      iszero\n      tag_123\n      jumpi\n        /* \"#utility.yul\":4124:4142   */\n      tag_124\n      tag_125\n      jump\t// in\n    tag_124:\n        /* \"#utility.yul\":4068:4152   */\n    tag_123:\n        /* \"#utility.yul\":3889:4158   */\n      pop\n        /* \"#utility.yul\":3838:4158   */\n      swap2\n      swap1\n      pop\n      jump\t// out\n        /* \"#utility.yul\":4164:4344   */\n    tag_48:\n        /* \"#utility.yul\":4212:4289   */\n      0x4e487b7100000000000000000000000000000000000000000000000000000000\n        /* \"#utility.yul\":4209:4210   */\n      0x00\n        /* \"#utility.yul\":4202:4290   */\n      mstore\n        /* \"#utility.yul\":4309:4313   */\n      0x21\n        /* \"#utility.yul\":4306:4307   */\n      0x04\n        /* \"#utility.yul\":4299:4314   */\n      mstore\n        /* \"#utility.yul\":4333:4337   */\n      0x24\n        /* \"#utility.yul\":4330:4331   */\n      0x00\n        /* \"#utility.yul\":4323:4338   */\n      revert\n        /* \"#utility.yul\":4350:4530   */\n    tag_125:\n        /* \"#utility.yul\":4398:4475   */\n      0x4e487b7100000000000000000000000000000000000000000000000000000000\n        /* \"#utility.yul\":4395:4396   */\n      0x00\n        /* \"#utility.yul\":4388:4476   */\n      mstore\n        /* \"#utility.yul\":4495:4499   */\n      0x22\n        /* \"#utility.yul\":4492:4493   */\n      0x04\n        /* \"#utility.yul\":4485:4500   */\n      mstore\n        /* \"#utility.yul\":4519:4523   */\n      0x24\n        /* \"#utility.yul\":4516:4517   */\n      0x00\n        /* \"#utility.yul\":4509:4524   */\n      revert\n        /* \"#utility.yul\":4536:4638   */\n    tag_84:\n        /* \"#utility.yul\":4577:4583   */\n      0x00\n        /* \"#utility.yul\":4628:4630   */\n      0x1f\n        /* \"#utility.yul\":4624:4631   */\n      not\n        /* \"#utility.yul\":4619:4621   */\n      0x1f\n        /* \"#utility.yul\":4612:4617   */\n      dup4\n        /* \"#utility.yul\":4608:4622   */\n      add\n        /* \"#utility.yul\":4604:4632   */\n      and\n        /* \"#utility.yul\":4594:4632   */\n      swap1\n      pop\n        /* \"#utility.yul\":4536:4638   */\n      swap2\n      swap1\n      pop\n      jump\t// out\n        /* \"#utility.yul\":4644:4759   */\n    tag_111:\n        /* \"#utility.yul\":4727:4728   */\n      0x02\n        /* \"#utility.yul\":4720:4725   */\n      dup2\n        /* \"#utility.yul\":4717:4729   */\n      lt\n        /* \"#utility.yul\":4707:4753   */\n      tag_130\n      jumpi\n        /* \"#utility.yul\":4733:4751   */\n      tag_131\n      tag_48\n      jump\t// in\n    tag_131:\n        /* \"#utility.yul\":4707:4753   */\n    tag_130:\n        /* \"#utility.yul\":4644:4759   */\n      pop\n      jump\t// out\n\n    auxdata: 0xa26469706673582212201e5ee669bb2eb30410a6c25307c63a867b8b42f344620620ec32985fa4761aa764736f6c63430008070033\n}\n",
				"bytecode": {
					"linkReferences": {},
					"object": "60806040526003600160006101000a81548160ff021916908360ff1602179055507fffffffffffffffffffffffffffffffffffffffffffffffffffffffffffffffe0600360006101000a81548160ff021916908360000b60ff16021790555060416004556040518060400160405280600d81526020017f537472696e67207075626c696300000000000000000000000000000000000000815250600690805190602001906100ae929190610201565b506040518060400160405280600e81526020017f537472696e672050726976617465000000000000000000000000000000000000815250600790805190602001906100fa929190610201565b506001600860016101000a81548160ff0219169083151502179055506000600860026101000a81548160ff021916908315150217905550604051602001610140906102c7565b60405160208183030381529060405280519060200120600b55735b38da6a701c568545dcfcb03fcb875f56beddc4600d60006101000a81548173ffffffffffffffffffffffffffffffffffffffff021916908373ffffffffffffffffffffffffffffffffffffffff16021790555033600e60006101000a81548173ffffffffffffffffffffffffffffffffffffffff021916908373ffffffffffffffffffffffffffffffffffffffff1602179055503480156101fb57600080fd5b50610371565b82805461020d906102e7565b90600052602060002090601f01602090048101928261022f5760008555610276565b82601f1061024857805160ff1916838001178555610276565b82800160010185558215610276579182015b8281111561027557825182559160200191906001019061025a565b5b5090506102839190610287565b5090565b5b808211156102a0576000816000905550600101610288565b5090565b60006102b1600a836102dc565b91506102bc82610348565b600a82019050919050565b60006102d2826102a4565b9150819050919050565b600081905092915050565b600060028204905060018216806102ff57607f821691505b6020821081141561031357610312610319565b5b50919050565b7f4e487b7100000000000000000000000000000000000000000000000000000000600052602260045260246000fd5b7f48656c6c6f20776f726400000000000000000000000000000000000000000000600082015250565b6105d6806103806000396000f3fe608060405234801561001057600080fd5b50600436106100935760003560e01c8063b654b76511610066578063b654b76514610110578063b83d07b71461011a578063ba33ed7d14610138578063cd97d84e14610142578063e2bed7b41461016057610093565b80634df7e3d0146100985780635760fa05146100b65780635f7d462e146100d45780637272eea1146100f2575b600080fd5b6100a061017e565b6040516100ad9190610407565b60405180910390f35b6100be610191565b6040516100cb9190610394565b60405180910390f35b6100dc6101a4565b6040516100e99190610379565b60405180910390f35b6100fa6101ca565b60405161010791906103ca565b60405180910390f35b6101186101e1565b005b61012261020e565b60405161012f91906103e5565b60405180910390f35b61014061029c565b005b61014a6102c9565b60405161015791906103af565b60405180910390f35b6101686102cf565b6040516101759190610379565b60405180910390f35b600160009054906101000a900460ff1681565b600860019054906101000a900460ff1681565b600e60009054906101000a900473ffffffffffffffffffffffffffffffffffffffff1681565b6000600e60149054906101000a900460ff16905090565b6001600e60146101000a81548160ff021916908360018111156102075761020661051d565b5b0217905550565b6006805461021b906104eb565b80601f0160208091040260200160405190810160405280929190818152602001828054610247906104eb565b80156102945780601f1061026957610100808354040283529160200191610294565b820191906000526020600020905b81548152906001019060200180831161027757829003601f168201915b505050505081565b6000600e60146101000a81548160ff021916908360018111156102c2576102c161051d565b5b0217905550565b600b5481565b600d60009054906101000a900473ffffffffffffffffffffffffffffffffffffffff1681565b6102fe8161043e565b82525050565b61030d81610450565b82525050565b61031c8161045c565b82525050565b61032b816104a6565b82525050565b600061033c82610422565b610346818561042d565b93506103568185602086016104b8565b61035f8161057b565b840191505092915050565b61037381610499565b82525050565b600060208201905061038e60008301846102f5565b92915050565b60006020820190506103a96000830184610304565b92915050565b60006020820190506103c46000830184610313565b92915050565b60006020820190506103df6000830184610322565b92915050565b600060208201905081810360008301526103ff8184610331565b905092915050565b600060208201905061041c600083018461036a565b92915050565b600081519050919050565b600082825260208201905092915050565b600061044982610479565b9050919050565b60008115159050919050565b6000819050919050565b60008190506104748261058c565b919050565b600073ffffffffffffffffffffffffffffffffffffffff82169050919050565b600060ff82169050919050565b60006104b182610466565b9050919050565b60005b838110156104d65780820151818401526020810190506104bb565b838111156104e5576000848401525b50505050565b6000600282049050600182168061050357607f821691505b602082108114156105175761051661054c565b5b50919050565b7f4e487b7100000000000000000000000000000000000000000000000000000000600052602160045260246000fd5b7f4e487b7100000000000000000000000000000000000000000000000000000000600052602260045260246000fd5b6000601f19601f8301169050919050565b6002811061059d5761059c61051d565b5b5056fea26469706673582212201e5ee669bb2eb30410a6c25307c63a867b8b42f344620620ec32985fa4761aa764736f6c63430008070033",
					"opcodes": "PUSH1 0x80 PUSH1 0x40 MSTORE PUSH1 0x3 PUSH1 0x1 PUSH1 0x0 PUSH2 0x100 EXP DUP2 SLOAD DUP2 PUSH1 0xFF MUL NOT AND SWAP1 DUP4 PUSH1 0xFF AND MUL OR SWAP1 SSTORE POP PUSH32 0xFFFFFFFFFFFFFFFFFFFFFFFFFFFFFFFFFFFFFFFFFFFFFFFFFFFFFFFFFFFFFFE0 PUSH1 0x3 PUSH1 0x0 PUSH2 0x100 EXP DUP2 SLOAD DUP2 PUSH1 0xFF MUL NOT AND SWAP1 DUP4 PUSH1 0x0 SIGNEXTEND PUSH1 0xFF AND MUL OR SWAP1 SSTORE POP PUSH1 0x41 PUSH1 0x4 SSTORE PUSH1 0x40 MLOAD DUP1 PUSH1 0x40 ADD PUSH1 0x40 MSTORE DUP1 PUSH1 0xD DUP2 MSTORE PUSH1 0x20 ADD PUSH32 0x537472696E67207075626C696300000000000000000000000000000000000000 DUP2 MSTORE POP PUSH1 0x6 SWAP1 DUP1 MLOAD SWAP1 PUSH1 0x20 ADD SWAP1 PUSH2 0xAE SWAP3 SWAP2 SWAP1 PUSH2 0x201 JUMP JUMPDEST POP PUSH1 0x40 MLOAD DUP1 PUSH1 0x40 ADD PUSH1 0x40 MSTORE DUP1 PUSH1 0xE DUP2 MSTORE PUSH1 0x20 ADD PUSH32 0x537472696E672050726976617465000000000000000000000000000000000000 DUP2 MSTORE POP PUSH1 0x7 SWAP1 DUP1 MLOAD SWAP1 PUSH1 0x20 ADD SWAP1 PUSH2 0xFA SWAP3 SWAP2 SWAP1 PUSH2 0x201 JUMP JUMPDEST POP PUSH1 0x1 PUSH1 0x8 PUSH1 0x1 PUSH2 0x100 EXP DUP2 SLOAD DUP2 PUSH1 0xFF MUL NOT AND SWAP1 DUP4 ISZERO ISZERO MUL OR SWAP1 SSTORE POP PUSH1 0x0 PUSH1 0x8 PUSH1 0x2 PUSH2 0x100 EXP DUP2 SLOAD DUP2 PUSH1 0xFF MUL NOT AND SWAP1 DUP4 ISZERO ISZERO MUL OR SWAP1 SSTORE POP PUSH1 0x40 MLOAD PUSH1 0x20 ADD PUSH2 0x140 SWAP1 PUSH2 0x2C7 JUMP JUMPDEST PUSH1 0x40 MLOAD PUSH1 0x20 DUP2 DUP4 SUB SUB DUP2 MSTORE SWAP1 PUSH1 0x40 MSTORE DUP1 MLOAD SWAP1 PUSH1 0x20 ADD KECCAK256 PUSH1 0xB SSTORE PUSH20 0x5B38DA6A701C568545DCFCB03FCB875F56BEDDC4 PUSH1 0xD PUSH1 0x0 PUSH2 0x100 EXP DUP2 SLOAD DUP2 PUSH20 0xFFFFFFFFFFFFFFFFFFFFFFFFFFFFFFFFFFFFFFFF MUL NOT AND SWAP1 DUP4 PUSH20 0xFFFFFFFFFFFFFFFFFFFFFFFFFFFFFFFFFFFFFFFF AND MUL OR SWAP1 SSTORE POP CALLER PUSH1 0xE PUSH1 0x0 PUSH2 0x100 EXP DUP2 SLOAD DUP2 PUSH20 0xFFFFFFFFFFFFFFFFFFFFFFFFFFFFFFFFFFFFFFFF MUL NOT AND SWAP1 DUP4 PUSH20 0xFFFFFFFFFFFFFFFFFFFFFFFFFFFFFFFFFFFFFFFF AND MUL OR SWAP1 SSTORE POP CALLVALUE DUP1 ISZERO PUSH2 0x1FB JUMPI PUSH1 0x0 DUP1 REVERT JUMPDEST POP PUSH2 0x371 JUMP JUMPDEST DUP3 DUP1 SLOAD PUSH2 0x20D SWAP1 PUSH2 0x2E7 JUMP JUMPDEST SWAP1 PUSH1 0x0 MSTORE PUSH1 0x20 PUSH1 0x0 KECCAK256 SWAP1 PUSH1 0x1F ADD PUSH1 0x20 SWAP1 DIV DUP2 ADD SWAP3 DUP3 PUSH2 0x22F JUMPI PUSH1 0x0 DUP6 SSTORE PUSH2 0x276 JUMP JUMPDEST DUP3 PUSH1 0x1F LT PUSH2 0x248 JUMPI DUP1 MLOAD PUSH1 0xFF NOT AND DUP4 DUP1 ADD OR DUP6 SSTORE PUSH2 0x276 JUMP JUMPDEST DUP3 DUP1 ADD PUSH1 0x1 ADD DUP6 SSTORE DUP3 ISZERO PUSH2 0x276 JUMPI SWAP2 DUP3 ADD JUMPDEST DUP3 DUP2 GT ISZERO PUSH2 0x275 JUMPI DUP3 MLOAD DUP3 SSTORE SWAP2 PUSH1 0x20 ADD SWAP2 SWAP1 PUSH1 0x1 ADD SWAP1 PUSH2 0x25A JUMP JUMPDEST JUMPDEST POP SWAP1 POP PUSH2 0x283 SWAP2 SWAP1 PUSH2 0x287 JUMP JUMPDEST POP SWAP1 JUMP JUMPDEST JUMPDEST DUP1 DUP3 GT ISZERO PUSH2 0x2A0 JUMPI PUSH1 0x0 DUP2 PUSH1 0x0 SWAP1 SSTORE POP PUSH1 0x1 ADD PUSH2 0x288 JUMP JUMPDEST POP SWAP1 JUMP JUMPDEST PUSH1 0x0 PUSH2 0x2B1 PUSH1 0xA DUP4 PUSH2 0x2DC JUMP JUMPDEST SWAP2 POP PUSH2 0x2BC DUP3 PUSH2 0x348 JUMP JUMPDEST PUSH1 0xA DUP3 ADD SWAP1 POP SWAP2 SWAP1 POP JUMP JUMPDEST PUSH1 0x0 PUSH2 0x2D2 DUP3 PUSH2 0x2A4 JUMP JUMPDEST SWAP2 POP DUP2 SWAP1 POP SWAP2 SWAP1 POP JUMP JUMPDEST PUSH1 0x0 DUP2 SWAP1 POP SWAP3 SWAP2 POP POP JUMP JUMPDEST PUSH1 0x0 PUSH1 0x2 DUP3 DIV SWAP1 POP PUSH1 0x1 DUP3 AND DUP1 PUSH2 0x2FF JUMPI PUSH1 0x7F DUP3 AND SWAP2 POP JUMPDEST PUSH1 0x20 DUP3 LT DUP2 EQ ISZERO PUSH2 0x313 JUMPI PUSH2 0x312 PUSH2 0x319 JUMP JUMPDEST JUMPDEST POP SWAP2 SWAP1 POP JUMP JUMPDEST PUSH32 0x4E487B7100000000000000000000000000000000000000000000000000000000 PUSH1 0x0 MSTORE PUSH1 0x22 PUSH1 0x4 MSTORE PUSH1 0x24 PUSH1 0x0 REVERT JUMPDEST PUSH32 0x48656C6C6F20776F726400000000000000000000000000000000000000000000 PUSH1 0x0 DUP3 ADD MSTORE POP JUMP JUMPDEST PUSH2 0x5D6 DUP1 PUSH2 0x380 PUSH1 0x0 CODECOPY PUSH1 0x0 RETURN INVALID PUSH1 0x80 PUSH1 0x40 MSTORE CALLVALUE DUP1 ISZERO PUSH2 0x10 JUMPI PUSH1 0x0 DUP1 REVERT JUMPDEST POP PUSH1 0x4 CALLDATASIZE LT PUSH2 0x93 JUMPI PUSH1 0x0 CALLDATALOAD PUSH1 0xE0 SHR DUP1 PUSH4 0xB654B765 GT PUSH2 0x66 JUMPI DUP1 PUSH4 0xB654B765 EQ PUSH2 0x110 JUMPI DUP1 PUSH4 0xB83D07B7 EQ PUSH2 0x11A JUMPI DUP1 PUSH4 0xBA33ED7D EQ PUSH2 0x138 JUMPI DUP1 PUSH4 0xCD97D84E EQ PUSH2 0x142 JUMPI DUP1 PUSH4 0xE2BED7B4 EQ PUSH2 0x160 JUMPI PUSH2 0x93 JUMP JUMPDEST DUP1 PUSH4 0x4DF7E3D0 EQ PUSH2 0x98 JUMPI DUP1 PUSH4 0x5760FA05 EQ PUSH2 0xB6 JUMPI DUP1 PUSH4 0x5F7D462E EQ PUSH2 0xD4 JUMPI DUP1 PUSH4 0x7272EEA1 EQ PUSH2 0xF2 JUMPI JUMPDEST PUSH1 0x0 DUP1 REVERT JUMPDEST PUSH2 0xA0 PUSH2 0x17E JUMP JUMPDEST PUSH1 0x40 MLOAD PUSH2 0xAD SWAP2 SWAP1 PUSH2 0x407 JUMP JUMPDEST PUSH1 0x40 MLOAD DUP1 SWAP2 SUB SWAP1 RETURN JUMPDEST PUSH2 0xBE PUSH2 0x191 JUMP JUMPDEST PUSH1 0x40 MLOAD PUSH2 0xCB SWAP2 SWAP1 PUSH2 0x394 JUMP JUMPDEST PUSH1 0x40 MLOAD DUP1 SWAP2 SUB SWAP1 RETURN JUMPDEST PUSH2 0xDC PUSH2 0x1A4 JUMP JUMPDEST PUSH1 0x40 MLOAD PUSH2 0xE9 SWAP2 SWAP1 PUSH2 0x379 JUMP JUMPDEST PUSH1 0x40 MLOAD DUP1 SWAP2 SUB SWAP1 RETURN JUMPDEST PUSH2 0xFA PUSH2 0x1CA JUMP JUMPDEST PUSH1 0x40 MLOAD PUSH2 0x107 SWAP2 SWAP1 PUSH2 0x3CA JUMP JUMPDEST PUSH1 0x40 MLOAD DUP1 SWAP2 SUB SWAP1 RETURN JUMPDEST PUSH2 0x118 PUSH2 0x1E1 JUMP JUMPDEST STOP JUMPDEST PUSH2 0x122 PUSH2 0x20E JUMP JUMPDEST PUSH1 0x40 MLOAD PUSH2 0x12F SWAP2 SWAP1 PUSH2 0x3E5 JUMP JUMPDEST PUSH1 0x40 MLOAD DUP1 SWAP2 SUB SWAP1 RETURN JUMPDEST PUSH2 0x140 PUSH2 0x29C JUMP JUMPDEST STOP JUMPDEST PUSH2 0x14A PUSH2 0x2C9 JUMP JUMPDEST PUSH1 0x40 MLOAD PUSH2 0x157 SWAP2 SWAP1 PUSH2 0x3AF JUMP JUMPDEST PUSH1 0x40 MLOAD DUP1 SWAP2 SUB SWAP1 RETURN JUMPDEST PUSH2 0x168 PUSH2 0x2CF JUMP JUMPDEST PUSH1 0x40 MLOAD PUSH2 0x175 SWAP2 SWAP1 PUSH2 0x379 JUMP JUMPDEST PUSH1 0x40 MLOAD DUP1 SWAP2 SUB SWAP1 RETURN JUMPDEST PUSH1 0x1 PUSH1 0x0 SWAP1 SLOAD SWAP1 PUSH2 0x100 EXP SWAP1 DIV PUSH1 0xFF AND DUP2 JUMP JUMPDEST PUSH1 0x8 PUSH1 0x1 SWAP1 SLOAD SWAP1 PUSH2 0x100 EXP SWAP1 DIV PUSH1 0xFF AND DUP2 JUMP JUMPDEST PUSH1 0xE PUSH1 0x0 SWAP1 SLOAD SWAP1 PUSH2 0x100 EXP SWAP1 DIV PUSH20 0xFFFFFFFFFFFFFFFFFFFFFFFFFFFFFFFFFFFFFFFF AND DUP2 JUMP JUMPDEST PUSH1 0x0 PUSH1 0xE PUSH1 0x14 SWAP1 SLOAD SWAP1 PUSH2 0x100 EXP SWAP1 DIV PUSH1 0xFF AND SWAP1 POP SWAP1 JUMP JUMPDEST PUSH1 0x1 PUSH1 0xE PUSH1 0x14 PUSH2 0x100 EXP DUP2 SLOAD DUP2 PUSH1 0xFF MUL NOT AND SWAP1 DUP4 PUSH1 0x1 DUP2 GT ISZERO PUSH2 0x207 JUMPI PUSH2 0x206 PUSH2 0x51D JUMP JUMPDEST JUMPDEST MUL OR SWAP1 SSTORE POP JUMP JUMPDEST PUSH1 0x6 DUP1 SLOAD PUSH2 0x21B SWAP1 PUSH2 0x4EB JUMP JUMPDEST DUP1 PUSH1 0x1F ADD PUSH1 0x20 DUP1 SWAP2 DIV MUL PUSH1 0x20 ADD PUSH1 0x40 MLOAD SWAP1 DUP2 ADD PUSH1 0x40 MSTORE DUP1 SWAP3 SWAP2 SWAP1 DUP2 DUP2 MSTORE PUSH1 0x20 ADD DUP3 DUP1 SLOAD PUSH2 0x247 SWAP1 PUSH2 0x4EB JUMP JUMPDEST DUP1 ISZERO PUSH2 0x294 JUMPI DUP1 PUSH1 0x1F LT PUSH2 0x269 JUMPI PUSH2 0x100 DUP1 DUP4 SLOAD DIV MUL DUP4 MSTORE SWAP2 PUSH1 0x20 ADD SWAP2 PUSH2 0x294 JUMP JUMPDEST DUP3 ADD SWAP2 SWAP1 PUSH1 0x0 MSTORE PUSH1 0x20 PUSH1 0x0 KECCAK256 SWAP1 JUMPDEST DUP2 SLOAD DUP2 MSTORE SWAP1 PUSH1 0x1 ADD SWAP1 PUSH1 0x20 ADD DUP1 DUP4 GT PUSH2 0x277 JUMPI DUP3 SWAP1 SUB PUSH1 0x1F AND DUP3 ADD SWAP2 JUMPDEST POP POP POP POP POP DUP2 JUMP JUMPDEST PUSH1 0x0 PUSH1 0xE PUSH1 0x14 PUSH2 0x100 EXP DUP2 SLOAD DUP2 PUSH1 0xFF MUL NOT AND SWAP1 DUP4 PUSH1 0x1 DUP2 GT ISZERO PUSH2 0x2C2 JUMPI PUSH2 0x2C1 PUSH2 0x51D JUMP JUMPDEST JUMPDEST MUL OR SWAP1 SSTORE POP JUMP JUMPDEST PUSH1 0xB SLOAD DUP2 JUMP JUMPDEST PUSH1 0xD PUSH1 0x0 SWAP1 SLOAD SWAP1 PUSH2 0x100 EXP SWAP1 DIV PUSH20 0xFFFFFFFFFFFFFFFFFFFFFFFFFFFFFFFFFFFFFFFF AND DUP2 JUMP JUMPDEST PUSH2 0x2FE DUP2 PUSH2 0x43E JUMP JUMPDEST DUP3 MSTORE POP POP JUMP JUMPDEST PUSH2 0x30D DUP2 PUSH2 0x450 JUMP JUMPDEST DUP3 MSTORE POP POP JUMP JUMPDEST PUSH2 0x31C DUP2 PUSH2 0x45C JUMP JUMPDEST DUP3 MSTORE POP POP JUMP JUMPDEST PUSH2 0x32B DUP2 PUSH2 0x4A6 JUMP JUMPDEST DUP3 MSTORE POP POP JUMP JUMPDEST PUSH1 0x0 PUSH2 0x33C DUP3 PUSH2 0x422 JUMP JUMPDEST PUSH2 0x346 DUP2 DUP6 PUSH2 0x42D JUMP JUMPDEST SWAP4 POP PUSH2 0x356 DUP2 DUP6 PUSH1 0x20 DUP7 ADD PUSH2 0x4B8 JUMP JUMPDEST PUSH2 0x35F DUP2 PUSH2 0x57B JUMP JUMPDEST DUP5 ADD SWAP2 POP POP SWAP3 SWAP2 POP POP JUMP JUMPDEST PUSH2 0x373 DUP2 PUSH2 0x499 JUMP JUMPDEST DUP3 MSTORE POP POP JUMP JUMPDEST PUSH1 0x0 PUSH1 0x20 DUP3 ADD SWAP1 POP PUSH2 0x38E PUSH1 0x0 DUP4 ADD DUP5 PUSH2 0x2F5 JUMP JUMPDEST SWAP3 SWAP2 POP POP JUMP JUMPDEST PUSH1 0x0 PUSH1 0x20 DUP3 ADD SWAP1 POP PUSH2 0x3A9 PUSH1 0x0 DUP4 ADD DUP5 PUSH2 0x304 JUMP JUMPDEST SWAP3 SWAP2 POP POP JUMP JUMPDEST PUSH1 0x0 PUSH1 0x20 DUP3 ADD SWAP1 POP PUSH2 0x3C4 PUSH1 0x0 DUP4 ADD DUP5 PUSH2 0x313 JUMP JUMPDEST SWAP3 SWAP2 POP POP JUMP JUMPDEST PUSH1 0x0 PUSH1 0x20 DUP3 ADD SWAP1 POP PUSH2 0x3DF PUSH1 0x0 DUP4 ADD DUP5 PUSH2 0x322 JUMP JUMPDEST SWAP3 SWAP2 POP POP JUMP JUMPDEST PUSH1 0x0 PUSH1 0x20 DUP3 ADD SWAP1 POP DUP2 DUP2 SUB PUSH1 0x0 DUP4 ADD MSTORE PUSH2 0x3FF DUP2 DUP5 PUSH2 0x331 JUMP JUMPDEST SWAP1 POP SWAP3 SWAP2 POP POP JUMP JUMPDEST PUSH1 0x0 PUSH1 0x20 DUP3 ADD SWAP1 POP PUSH2 0x41C PUSH1 0x0 DUP4 ADD DUP5 PUSH2 0x36A JUMP JUMPDEST SWAP3 SWAP2 POP POP JUMP JUMPDEST PUSH1 0x0 DUP2 MLOAD SWAP1 POP SWAP2 SWAP1 POP JUMP JUMPDEST PUSH1 0x0 DUP3 DUP3 MSTORE PUSH1 0x20 DUP3 ADD SWAP1 POP SWAP3 SWAP2 POP POP JUMP JUMPDEST PUSH1 0x0 PUSH2 0x449 DUP3 PUSH2 0x479 JUMP JUMPDEST SWAP1 POP SWAP2 SWAP1 POP JUMP JUMPDEST PUSH1 0x0 DUP2 ISZERO ISZERO SWAP1 POP SWAP2 SWAP1 POP JUMP JUMPDEST PUSH1 0x0 DUP2 SWAP1 POP SWAP2 SWAP1 POP JUMP JUMPDEST PUSH1 0x0 DUP2 SWAP1 POP PUSH2 0x474 DUP3 PUSH2 0x58C JUMP JUMPDEST SWAP2 SWAP1 POP JUMP JUMPDEST PUSH1 0x0 PUSH20 0xFFFFFFFFFFFFFFFFFFFFFFFFFFFFFFFFFFFFFFFF DUP3 AND SWAP1 POP SWAP2 SWAP1 POP JUMP JUMPDEST PUSH1 0x0 PUSH1 0xFF DUP3 AND SWAP1 POP SWAP2 SWAP1 POP JUMP JUMPDEST PUSH1 0x0 PUSH2 0x4B1 DUP3 PUSH2 0x466 JUMP JUMPDEST SWAP1 POP SWAP2 SWAP1 POP JUMP JUMPDEST PUSH1 0x0 JUMPDEST DUP4 DUP2 LT ISZERO PUSH2 0x4D6 JUMPI DUP1 DUP3 ADD MLOAD DUP2 DUP5 ADD MSTORE PUSH1 0x20 DUP2 ADD SWAP1 POP PUSH2 0x4BB JUMP JUMPDEST DUP4 DUP2 GT ISZERO PUSH2 0x4E5 JUMPI PUSH1 0x0 DUP5 DUP5 ADD MSTORE JUMPDEST POP POP POP POP JUMP JUMPDEST PUSH1 0x0 PUSH1 0x2 DUP3 DIV SWAP1 POP PUSH1 0x1 DUP3 AND DUP1 PUSH2 0x503 JUMPI PUSH1 0x7F DUP3 AND SWAP2 POP JUMPDEST PUSH1 0x20 DUP3 LT DUP2 EQ ISZERO PUSH2 0x517 JUMPI PUSH2 0x516 PUSH2 0x54C JUMP JUMPDEST JUMPDEST POP SWAP2 SWAP1 POP JUMP JUMPDEST PUSH32 0x4E487B7100000000000000000000000000000000000000000000000000000000 PUSH1 0x0 MSTORE PUSH1 0x21 PUSH1 0x4 MSTORE PUSH1 0x24 PUSH1 0x0 REVERT JUMPDEST PUSH32 0x4E487B7100000000000000000000000000000000000000000000000000000000 PUSH1 0x0 MSTORE PUSH1 0x22 PUSH1 0x4 MSTORE PUSH1 0x24 PUSH1 0x0 REVERT JUMPDEST PUSH1 0x0 PUSH1 0x1F NOT PUSH1 0x1F DUP4 ADD AND SWAP1 POP SWAP2 SWAP1 POP JUMP JUMPDEST PUSH1 0x2 DUP2 LT PUSH2 0x59D JUMPI PUSH2 0x59C PUSH2 0x51D JUMP JUMPDEST JUMPDEST POP JUMP INVALID LOG2 PUSH5 0x6970667358 0x22 SLT KECCAK256 0x1E 0x5E 0xE6 PUSH10 0xBB2EB30410A6C25307C6 GASPRICE DUP7 PUSH28 0x8B42F344620620EC32985FA4761AA764736F6C634300080700330000 "
				},
				"gasEstimates": {
					"creation": {
						"codeDepositCost": "298800",
						"executionCost": "infinite",
						"totalCost": "infinite"
					},
					"external": {
						"addres_two()": "2559",
						"address_one()": "2602",
						"b()": "2472",
						"bool_true()": "2544",
						"displayState()": "2685",
						"hashing()": "2495",
						"str_public()": "infinite",
						"turnOf()": "24481",
						"turnOn()": "24525"
					}
				},
				"methodIdentifiers": {
					"addres_two()": "5f7d462e",
					"address_one()": "e2bed7b4",
					"b()": "4df7e3d0",
					"bool_true()": "5760fa05",
					"displayState()": "7272eea1",
					"hashing()": "cd97d84e",
					"str_public()": "b83d07b7",
					"turnOf()": "b654b765",
					"turnOn()": "ba33ed7d"
				}
			},
			"storageLayout": {
				"storage": [
					{
						"astId": 3,
						"contract": "contracts/first_contract.sol:variables_modifiers",
						"label": "a",
						"offset": 0,
						"slot": "0",
						"type": "t_uint256"
					},
					{
						"astId": 6,
						"contract": "contracts/first_contract.sol:variables_modifiers",
						"label": "b",
						"offset": 0,
						"slot": "1",
						"type": "t_uint8"
					},
					{
						"astId": 8,
						"contract": "contracts/first_contract.sol:variables_modifiers",
						"label": "c",
						"offset": 0,
						"slot": "2",
						"type": "t_int256"
					},
					{
						"astId": 12,
						"contract": "contracts/first_contract.sol:variables_modifiers",
						"label": "d",
						"offset": 0,
						"slot": "3",
						"type": "t_int8"
					},
					{
						"astId": 15,
						"contract": "contracts/first_contract.sol:variables_modifiers",
						"label": "e",
						"offset": 0,
						"slot": "4",
						"type": "t_int256"
					},
					{
						"astId": 17,
						"contract": "contracts/first_contract.sol:variables_modifiers",
						"label": "str",
						"offset": 0,
						"slot": "5",
						"type": "t_string_storage"
					},
					{
						"astId": 20,
						"contract": "contracts/first_contract.sol:variables_modifiers",
						"label": "str_public",
						"offset": 0,
						"slot": "6",
						"type": "t_string_storage"
					},
					{
						"astId": 23,
						"contract": "contracts/first_contract.sol:variables_modifiers",
						"label": "str_private",
						"offset": 0,
						"slot": "7",
						"type": "t_string_storage"
					},
					{
						"astId": 25,
						"contract": "contracts/first_contract.sol:variables_modifiers",
						"label": "boolean",
						"offset": 0,
						"slot": "8",
						"type": "t_bool"
					},
					{
						"astId": 28,
						"contract": "contracts/first_contract.sol:variables_modifiers",
						"label": "bool_true",
						"offset": 1,
						"slot": "8",
						"type": "t_bool"
					},
					{
						"astId": 31,
						"contract": "contracts/first_contract.sol:variables_modifiers",
						"label": "bool_false",
						"offset": 2,
						"slot": "8",
						"type": "t_bool"
					},
					{
						"astId": 33,
						"contract": "contracts/first_contract.sol:variables_modifiers",
						"label": "first_bytes",
						"offset": 0,
						"slot": "9",
						"type": "t_bytes32"
					},
					{
						"astId": 35,
						"contract": "contracts/first_contract.sol:variables_modifiers",
						"label": "second_bytes",
						"offset": 0,
						"slot": "10",
						"type": "t_bytes4"
					},
					{
						"astId": 37,
						"contract": "contracts/first_contract.sol:variables_modifiers",
						"label": "byte_one",
						"offset": 4,
						"slot": "10",
						"type": "t_bytes1"
					},
					{
						"astId": 45,
						"contract": "contracts/first_contract.sol:variables_modifiers",
						"label": "hashing",
						"offset": 0,
						"slot": "11",
						"type": "t_bytes32"
					},
					{
						"astId": 47,
						"contract": "contracts/first_contract.sol:variables_modifiers",
						"label": "my_address",
						"offset": 0,
						"slot": "12",
						"type": "t_address"
					},
					{
						"astId": 50,
						"contract": "contracts/first_contract.sol:variables_modifiers",
						"label": "address_one",
						"offset": 0,
						"slot": "13",
						"type": "t_address"
					},
					{
						"astId": 54,
						"contract": "contracts/first_contract.sol:variables_modifiers",
						"label": "addres_two",
						"offset": 0,
						"slot": "14",
						"type": "t_address"
					},
					{
						"astId": 60,
						"contract": "contracts/first_contract.sol:variables_modifiers",
						"label": "state",
						"offset": 20,
						"slot": "14",
						"type": "t_enum(options)57"
					}
				],
				"types": {
					"t_address": {
						"encoding": "inplace",
						"label": "address",
						"numberOfBytes": "20"
					},
					"t_bool": {
						"encoding": "inplace",
						"label": "bool",
						"numberOfBytes": "1"
					},
					"t_bytes1": {
						"encoding": "inplace",
						"label": "bytes1",
						"numberOfBytes": "1"
					},
					"t_bytes32": {
						"encoding": "inplace",
						"label": "bytes32",
						"numberOfBytes": "32"
					},
					"t_bytes4": {
						"encoding": "inplace",
						"label": "bytes4",
						"numberOfBytes": "4"
					},
					"t_enum(options)57": {
						"encoding": "inplace",
						"label": "enum variables_modifiers.options",
						"numberOfBytes": "1"
					},
					"t_int256": {
						"encoding": "inplace",
						"label": "int256",
						"numberOfBytes": "32"
					},
					"t_int8": {
						"encoding": "inplace",
						"label": "int8",
						"numberOfBytes": "1"
					},
					"t_string_storage": {
						"encoding": "bytes",
						"label": "string",
						"numberOfBytes": "32"
					},
					"t_uint256": {
						"encoding": "inplace",
						"label": "uint256",
						"numberOfBytes": "32"
					},
					"t_uint8": {
						"encoding": "inplace",
						"label": "uint8",
						"numberOfBytes": "1"
					}
				}
			},
			"userdoc": {
				"kind": "user",
				"methods": {},
				"version": 1
			}
		}
	}
}