{
	"contracts/first_contract.sol": {
		"variables_modifiers": {
			"abi": [
				{
					"inputs": [],
					"name": "addres_two",
					"outputs": [
						{
							"internalType": "address",
							"name": "",
							"type": "address"
						}
					],
					"stateMutability": "view",
					"type": "function"
				},
				{
					"inputs": [],
					"name": "address_one",
					"outputs": [
						{
							"internalType": "address",
							"name": "",
							"type": "address"
						}
					],
					"stateMutability": "view",
					"type": "function"
				},
				{
					"inputs": [],
					"name": "b",
					"outputs": [
						{
							"internalType": "uint8",
							"name": "",
							"type": "uint8"
						}
					],
					"stateMutability": "view",
					"type": "function"
				},
				{
					"inputs": [],
					"name": "bool_true",
					"outputs": [
						{
							"internalType": "bool",
							"name": "",
							"type": "bool"
						}
					],
					"stateMutability": "view",
					"type": "function"
				},
				{
					"inputs": [],
					"name": "hashing",
					"outputs": [
						{
							"internalType": "bytes32",
							"name": "",
							"type": "bytes32"
						}
					],
					"stateMutability": "view",
					"type": "function"
				},
				{
					"inputs": [],
					"name": "str_public",
					"outputs": [
						{
							"internalType": "string",
							"name": "",
							"type": "string"
						}
					],
					"stateMutability": "view",
					"type": "function"
				}
			],
			"devdoc": {
				"kind": "dev",
				"methods": {},
				"version": 1
			},
			"evm": {
				"assembly": "    /* \"contracts/first_contract.sol\":60:901  contract variables_modifiers {\r... */\n  mstore(0x40, 0x80)\n    /* \"contracts/first_contract.sol\":215:216  3 */\n  0x03\n    /* \"contracts/first_contract.sol\":198:216  uint8 public b = 3 */\n  0x01\n  exp(0x0100, 0x00)\n  dup2\n  sload\n  dup2\n  0xff\n  mul\n  not\n  and\n  swap1\n  dup4\n  0xff\n  and\n  mul\n  or\n  swap1\n  sstore\n  pop\n    /* \"contracts/first_contract.sol\":275:278  -32 */\n  0xffffffffffffffffffffffffffffffffffffffffffffffffffffffffffffffe0\n    /* \"contracts/first_contract.sol\":266:278  int8 d = -32 */\n  0x03\n  exp(0x0100, 0x00)\n  dup2\n  sload\n  dup2\n  0xff\n  mul\n  not\n  and\n  swap1\n  dup4\n  0x00\n  signextend\n  0xff\n  and\n  mul\n  or\n  swap1\n  sstore\n  pop\n    /* \"contracts/first_contract.sol\":293:295  65 */\n  0x41\n    /* \"contracts/first_contract.sol\":285:295  int e = 65 */\n  0x04\n  sstore\n    /* \"contracts/first_contract.sol\":337:379  string public str_public = \"String public\" */\n  mload(0x40)\n  dup1\n  0x40\n  add\n  0x40\n  mstore\n  dup1\n  0x0d\n  dup2\n  mstore\n  0x20\n  add\n  0x537472696e67207075626c696300000000000000000000000000000000000000\n  dup2\n  mstore\n  pop\n  0x06\n  swap1\n  dup1\n  mload\n  swap1\n  0x20\n  add\n  swap1\n  tag_1\n  swap3\n  swap2\n  swap1\n  tag_2\n  jump\t// in\ntag_1:\n  pop\n    /* \"contracts/first_contract.sol\":386:431  string private str_private = \"String Private\" */\n  mload(0x40)\n  dup1\n  0x40\n  add\n  0x40\n  mstore\n  dup1\n  0x0e\n  dup2\n  mstore\n  0x20\n  add\n  0x537472696e672050726976617465000000000000000000000000000000000000\n  dup2\n  mstore\n  pop\n  0x07\n  swap1\n  dup1\n  mload\n  swap1\n  0x20\n  add\n  swap1\n  tag_3\n  swap3\n  swap2\n  swap1\n  tag_2\n  jump\t// in\ntag_3:\n  pop\n    /* \"contracts/first_contract.sol\":498:502  true */\n  0x01\n    /* \"contracts/first_contract.sol\":474:502  bool public bool_true = true */\n  0x08\n  exp(0x0100, 0x01)\n  dup2\n  sload\n  dup2\n  0xff\n  mul\n  not\n  and\n  swap1\n  dup4\n  iszero\n  iszero\n  mul\n  or\n  swap1\n  sstore\n  pop\n    /* \"contracts/first_contract.sol\":535:540  false */\n  0x00\n    /* \"contracts/first_contract.sol\":509:540  bool private bool_false = false */\n  0x08\n  exp(0x0100, 0x02)\n  dup2\n  sload\n  dup2\n  0xff\n  mul\n  not\n  and\n  swap1\n  dup4\n  iszero\n  iszero\n  mul\n  or\n  swap1\n  sstore\n  pop\n    /* \"contracts/first_contract.sol\":696:726  abi.encodePacked(\"Hello word\") */\n  add(0x20, mload(0x40))\n  tag_4\n  swap1\n  tag_5\n  jump\t// in\ntag_4:\n  mload(0x40)\n  0x20\n  dup2\n  dup4\n  sub\n  sub\n  dup2\n  mstore\n  swap1\n  0x40\n  mstore\n    /* \"contracts/first_contract.sol\":686:727  keccak256(abi.encodePacked(\"Hello word\")) */\n  dup1\n  mload\n  swap1\n  0x20\n  add\n  keccak256\n    /* \"contracts/first_contract.sol\":661:727  bytes32 public hashing = keccak256(abi.encodePacked(\"Hello word\")) */\n  0x0b\n  sstore\n    /* \"contracts/first_contract.sol\":806:848  0x5B38Da6a701c568545dCfcB03FcB875f56beddC4 */\n  0x5b38da6a701c568545dcfcb03fcb875f56beddc4\n    /* \"contracts/first_contract.sol\":777:848  address public address_one = 0x5B38Da6a701c568545dCfcB03FcB875f56beddC4 */\n  0x0d\n  exp(0x0100, 0x00)\n  dup2\n  sload\n  dup2\n  0xffffffffffffffffffffffffffffffffffffffff\n  mul\n  not\n  and\n  swap1\n  dup4\n  0xffffffffffffffffffffffffffffffffffffffff\n  and\n  mul\n  or\n  swap1\n  sstore\n  pop\n    /* \"contracts/first_contract.sol\":883:893  msg.sender */\n  caller\n    /* \"contracts/first_contract.sol\":855:893  address public addres_two = msg.sender */\n  0x0e\n  exp(0x0100, 0x00)\n  dup2\n  sload\n  dup2\n  0xffffffffffffffffffffffffffffffffffffffff\n  mul\n  not\n  and\n  swap1\n  dup4\n  0xffffffffffffffffffffffffffffffffffffffff\n  and\n  mul\n  or\n  swap1\n  sstore\n  pop\n    /* \"contracts/first_contract.sol\":60:901  contract variables_modifiers {\r... */\n  callvalue\n  dup1\n  iszero\n  tag_6\n  jumpi\n  0x00\n  dup1\n  revert\ntag_6:\n  pop\n  jump(tag_7)\ntag_2:\n  dup3\n  dup1\n  sload\n  tag_8\n  swap1\n  tag_9\n  jump\t// in\ntag_8:\n  swap1\n  0x00\n  mstore\n  keccak256(0x00, 0x20)\n  swap1\n  0x1f\n  add\n  0x20\n  swap1\n  div\n  dup2\n  add\n  swap3\n  dup3\n  tag_11\n  jumpi\n  0x00\n  dup6\n  sstore\n  jump(tag_10)\ntag_11:\n  dup3\n  0x1f\n  lt\n  tag_12\n  jumpi\n  dup1\n  mload\n  not(0xff)\n  and\n  dup4\n  dup1\n  add\n  or\n  dup6\n  sstore\n  jump(tag_10)\ntag_12:\n  dup3\n  dup1\n  add\n  0x01\n  add\n  dup6\n  sstore\n  dup3\n  iszero\n  tag_10\n  jumpi\n  swap2\n  dup3\n  add\ntag_13:\n  dup3\n  dup2\n  gt\n  iszero\n  tag_14\n  jumpi\n  dup3\n  mload\n  dup3\n  sstore\n  swap2\n  0x20\n  add\n  swap2\n  swap1\n  0x01\n  add\n  swap1\n  jump(tag_13)\ntag_14:\ntag_10:\n  pop\n  swap1\n  pop\n  tag_15\n  swap2\n  swap1\n  tag_16\n  jump\t// in\ntag_15:\n  pop\n  swap1\n  jump\t// out\ntag_16:\ntag_17:\n  dup1\n  dup3\n  gt\n  iszero\n  tag_18\n  jumpi\n  0x00\n  dup2\n  0x00\n  swap1\n  sstore\n  pop\n  0x01\n  add\n  jump(tag_17)\ntag_18:\n  pop\n  swap1\n  jump\t// out\n    /* \"#utility.yul\":7:409   */\ntag_20:\n    /* \"#utility.yul\":167:170   */\n  0x00\n    /* \"#utility.yul\":188:273   */\n  tag_22\n    /* \"#utility.yul\":270:272   */\n  0x0a\n    /* \"#utility.yul\":265:268   */\n  dup4\n    /* \"#utility.yul\":188:273   */\n  tag_23\n  jump\t// in\ntag_22:\n    /* \"#utility.yul\":181:273   */\n  swap2\n  pop\n    /* \"#utility.yul\":282:375   */\n  tag_24\n    /* \"#utility.yul\":371:374   */\n  dup3\n    /* \"#utility.yul\":282:375   */\n  tag_25\n  jump\t// in\ntag_24:\n    /* \"#utility.yul\":400:402   */\n  0x0a\n    /* \"#utility.yul\":395:398   */\n  dup3\n    /* \"#utility.yul\":391:403   */\n  add\n    /* \"#utility.yul\":384:403   */\n  swap1\n  pop\n    /* \"#utility.yul\":7:409   */\n  swap2\n  swap1\n  pop\n  jump\t// out\n    /* \"#utility.yul\":415:796   */\ntag_5:\n    /* \"#utility.yul\":600:603   */\n  0x00\n    /* \"#utility.yul\":622:770   */\n  tag_27\n    /* \"#utility.yul\":766:769   */\n  dup3\n    /* \"#utility.yul\":622:770   */\n  tag_20\n  jump\t// in\ntag_27:\n    /* \"#utility.yul\":615:770   */\n  swap2\n  pop\n    /* \"#utility.yul\":787:790   */\n  dup2\n    /* \"#utility.yul\":780:790   */\n  swap1\n  pop\n    /* \"#utility.yul\":415:796   */\n  swap2\n  swap1\n  pop\n  jump\t// out\n    /* \"#utility.yul\":802:950   */\ntag_23:\n    /* \"#utility.yul\":904:915   */\n  0x00\n    /* \"#utility.yul\":941:944   */\n  dup2\n    /* \"#utility.yul\":926:944   */\n  swap1\n  pop\n    /* \"#utility.yul\":802:950   */\n  swap3\n  swap2\n  pop\n  pop\n  jump\t// out\n    /* \"#utility.yul\":956:1276   */\ntag_9:\n    /* \"#utility.yul\":1000:1006   */\n  0x00\n    /* \"#utility.yul\":1037:1038   */\n  0x02\n    /* \"#utility.yul\":1031:1035   */\n  dup3\n    /* \"#utility.yul\":1027:1039   */\n  div\n    /* \"#utility.yul\":1017:1039   */\n  swap1\n  pop\n    /* \"#utility.yul\":1084:1085   */\n  0x01\n    /* \"#utility.yul\":1078:1082   */\n  dup3\n    /* \"#utility.yul\":1074:1086   */\n  and\n    /* \"#utility.yul\":1105:1123   */\n  dup1\n    /* \"#utility.yul\":1095:1176   */\n  tag_30\n  jumpi\n    /* \"#utility.yul\":1161:1165   */\n  0x7f\n    /* \"#utility.yul\":1153:1159   */\n  dup3\n    /* \"#utility.yul\":1149:1166   */\n  and\n    /* \"#utility.yul\":1139:1166   */\n  swap2\n  pop\n    /* \"#utility.yul\":1095:1176   */\ntag_30:\n    /* \"#utility.yul\":1223:1225   */\n  0x20\n    /* \"#utility.yul\":1215:1221   */\n  dup3\n    /* \"#utility.yul\":1212:1226   */\n  lt\n    /* \"#utility.yul\":1192:1210   */\n  dup2\n    /* \"#utility.yul\":1189:1227   */\n  eq\n    /* \"#utility.yul\":1186:1270   */\n  iszero\n  tag_31\n  jumpi\n    /* \"#utility.yul\":1242:1260   */\n  tag_32\n  tag_33\n  jump\t// in\ntag_32:\n    /* \"#utility.yul\":1186:1270   */\ntag_31:\n    /* \"#utility.yul\":1007:1276   */\n  pop\n    /* \"#utility.yul\":956:1276   */\n  swap2\n  swap1\n  pop\n  jump\t// out\n    /* \"#utility.yul\":1282:1462   */\ntag_33:\n    /* \"#utility.yul\":1330:1407   */\n  0x4e487b7100000000000000000000000000000000000000000000000000000000\n    /* \"#utility.yul\":1327:1328   */\n  0x00\n    /* \"#utility.yul\":1320:1408   */\n  mstore\n    /* \"#utility.yul\":1427:1431   */\n  0x22\n    /* \"#utility.yul\":1424:1425   */\n  0x04\n    /* \"#utility.yul\":1417:1432   */\n  mstore\n    /* \"#utility.yul\":1451:1455   */\n  0x24\n    /* \"#utility.yul\":1448:1449   */\n  0x00\n    /* \"#utility.yul\":1441:1456   */\n  revert\n    /* \"#utility.yul\":1468:1628   */\ntag_25:\n    /* \"#utility.yul\":1608:1620   */\n  0x48656c6c6f20776f726400000000000000000000000000000000000000000000\n    /* \"#utility.yul\":1604:1605   */\n  0x00\n    /* \"#utility.yul\":1596:1602   */\n  dup3\n    /* \"#utility.yul\":1592:1606   */\n  add\n    /* \"#utility.yul\":1585:1621   */\n  mstore\n    /* \"#utility.yul\":1468:1628   */\n  pop\n  jump\t// out\n    /* \"contracts/first_contract.sol\":60:901  contract variables_modifiers {\r... */\ntag_7:\n  dataSize(sub_0)\n  dup1\n  dataOffset(sub_0)\n  0x00\n  codecopy\n  0x00\n  return\nstop\n\nsub_0: assembly {\n        /* \"contracts/first_contract.sol\":60:901  contract variables_modifiers {\r... */\n      mstore(0x40, 0x80)\n      callvalue\n      dup1\n      iszero\n      tag_1\n      jumpi\n      0x00\n      dup1\n      revert\n    tag_1:\n      pop\n      jumpi(tag_2, lt(calldatasize, 0x04))\n      shr(0xe0, calldataload(0x00))\n      dup1\n      0x4df7e3d0\n      eq\n      tag_3\n      jumpi\n      dup1\n      0x5760fa05\n      eq\n      tag_4\n      jumpi\n      dup1\n      0x5f7d462e\n      eq\n      tag_5\n      jumpi\n      dup1\n      0xb83d07b7\n      eq\n      tag_6\n      jumpi\n      dup1\n      0xcd97d84e\n      eq\n      tag_7\n      jumpi\n      dup1\n      0xe2bed7b4\n      eq\n      tag_8\n      jumpi\n    tag_2:\n      0x00\n      dup1\n      revert\n        /* \"contracts/first_contract.sol\":198:216  uint8 public b = 3 */\n    tag_3:\n      tag_9\n      tag_10\n      jump\t// in\n    tag_9:\n      mload(0x40)\n      tag_11\n      swap2\n      swap1\n      tag_12\n      jump\t// in\n    tag_11:\n      mload(0x40)\n      dup1\n      swap2\n      sub\n      swap1\n      return\n        /* \"contracts/first_contract.sol\":474:502  bool public bool_true = true */\n    tag_4:\n      tag_13\n      tag_14\n      jump\t// in\n    tag_13:\n      mload(0x40)\n      tag_15\n      swap2\n      swap1\n      tag_16\n      jump\t// in\n    tag_15:\n      mload(0x40)\n      dup1\n      swap2\n      sub\n      swap1\n      return\n        /* \"contracts/first_contract.sol\":855:893  address public addres_two = msg.sender */\n    tag_5:\n      tag_17\n      tag_18\n      jump\t// in\n    tag_17:\n      mload(0x40)\n      tag_19\n      swap2\n      swap1\n      tag_20\n      jump\t// in\n    tag_19:\n      mload(0x40)\n      dup1\n      swap2\n      sub\n      swap1\n      return\n        /* \"contracts/first_contract.sol\":337:379  string public str_public = \"String public\" */\n    tag_6:\n      tag_21\n      tag_22\n      jump\t// in\n    tag_21:\n      mload(0x40)\n      tag_23\n      swap2\n      swap1\n      tag_24\n      jump\t// in\n    tag_23:\n      mload(0x40)\n      dup1\n      swap2\n      sub\n      swap1\n      return\n        /* \"contracts/first_contract.sol\":661:727  bytes32 public hashing = keccak256(abi.encodePacked(\"Hello word\")) */\n    tag_7:\n      tag_25\n      tag_26\n      jump\t// in\n    tag_25:\n      mload(0x40)\n      tag_27\n      swap2\n      swap1\n      tag_28\n      jump\t// in\n    tag_27:\n      mload(0x40)\n      dup1\n      swap2\n      sub\n      swap1\n      return\n        /* \"contracts/first_contract.sol\":777:848  address public address_one = 0x5B38Da6a701c568545dCfcB03FcB875f56beddC4 */\n    tag_8:\n      tag_29\n      tag_30\n      jump\t// in\n    tag_29:\n      mload(0x40)\n      tag_31\n      swap2\n      swap1\n      tag_20\n      jump\t// in\n    tag_31:\n      mload(0x40)\n      dup1\n      swap2\n      sub\n      swap1\n      return\n        /* \"contracts/first_contract.sol\":198:216  uint8 public b = 3 */\n    tag_10:\n      0x01\n      0x00\n      swap1\n      sload\n      swap1\n      0x0100\n      exp\n      swap1\n      div\n      0xff\n      and\n      dup2\n      jump\t// out\n        /* \"contracts/first_contract.sol\":474:502  bool public bool_true = true */\n    tag_14:\n      0x08\n      0x01\n      swap1\n      sload\n      swap1\n      0x0100\n      exp\n      swap1\n      div\n      0xff\n      and\n      dup2\n      jump\t// out\n        /* \"contracts/first_contract.sol\":855:893  address public addres_two = msg.sender */\n    tag_18:\n      0x0e\n      0x00\n      swap1\n      sload\n      swap1\n      0x0100\n      exp\n      swap1\n      div\n      0xffffffffffffffffffffffffffffffffffffffff\n      and\n      dup2\n      jump\t// out\n        /* \"contracts/first_contract.sol\":337:379  string public str_public = \"String public\" */\n    tag_22:\n      0x06\n      dup1\n      sload\n      tag_32\n      swap1\n      tag_33\n      jump\t// in\n    tag_32:\n      dup1\n      0x1f\n      add\n      0x20\n      dup1\n      swap2\n      div\n      mul\n      0x20\n      add\n      mload(0x40)\n      swap1\n      dup2\n      add\n      0x40\n      mstore\n      dup1\n      swap3\n      swap2\n      swap1\n      dup2\n      dup2\n      mstore\n      0x20\n      add\n      dup3\n      dup1\n      sload\n      tag_34\n      swap1\n      tag_33\n      jump\t// in\n    tag_34:\n      dup1\n      iszero\n      tag_35\n      jumpi\n      dup1\n      0x1f\n      lt\n      tag_36\n      jumpi\n      0x0100\n      dup1\n      dup4\n      sload\n      div\n      mul\n      dup4\n      mstore\n      swap2\n      0x20\n      add\n      swap2\n      jump(tag_35)\n    tag_36:\n      dup3\n      add\n      swap2\n      swap1\n      0x00\n      mstore\n      keccak256(0x00, 0x20)\n      swap1\n    tag_37:\n      dup2\n      sload\n      dup2\n      mstore\n      swap1\n      0x01\n      add\n      swap1\n      0x20\n      add\n      dup1\n      dup4\n      gt\n      tag_37\n      jumpi\n      dup3\n      swap1\n      sub\n      0x1f\n      and\n      dup3\n      add\n      swap2\n    tag_35:\n      pop\n      pop\n      pop\n      pop\n      pop\n      dup2\n      jump\t// out\n        /* \"contracts/first_contract.sol\":661:727  bytes32 public hashing = keccak256(abi.encodePacked(\"Hello word\")) */\n    tag_26:\n      sload(0x0b)\n      dup2\n      jump\t// out\n        /* \"contracts/first_contract.sol\":777:848  address public address_one = 0x5B38Da6a701c568545dCfcB03FcB875f56beddC4 */\n    tag_30:\n      0x0d\n      0x00\n      swap1\n      sload\n      swap1\n      0x0100\n      exp\n      swap1\n      div\n      0xffffffffffffffffffffffffffffffffffffffff\n      and\n      dup2\n      jump\t// out\n        /* \"#utility.yul\":7:125   */\n    tag_39:\n        /* \"#utility.yul\":94:118   */\n      tag_41\n        /* \"#utility.yul\":112:117   */\n      dup2\n        /* \"#utility.yul\":94:118   */\n      tag_42\n      jump\t// in\n    tag_41:\n        /* \"#utility.yul\":89:92   */\n      dup3\n        /* \"#utility.yul\":82:119   */\n      mstore\n        /* \"#utility.yul\":7:125   */\n      pop\n      pop\n      jump\t// out\n        /* \"#utility.yul\":131:240   */\n    tag_43:\n        /* \"#utility.yul\":212:233   */\n      tag_45\n        /* \"#utility.yul\":227:232   */\n      dup2\n        /* \"#utility.yul\":212:233   */\n      tag_46\n      jump\t// in\n    tag_45:\n        /* \"#utility.yul\":207:210   */\n      dup3\n        /* \"#utility.yul\":200:234   */\n      mstore\n        /* \"#utility.yul\":131:240   */\n      pop\n      pop\n      jump\t// out\n        /* \"#utility.yul\":246:364   */\n    tag_47:\n        /* \"#utility.yul\":333:357   */\n      tag_49\n        /* \"#utility.yul\":351:356   */\n      dup2\n        /* \"#utility.yul\":333:357   */\n      tag_50\n      jump\t// in\n    tag_49:\n        /* \"#utility.yul\":328:331   */\n      dup3\n        /* \"#utility.yul\":321:358   */\n      mstore\n        /* \"#utility.yul\":246:364   */\n      pop\n      pop\n      jump\t// out\n        /* \"#utility.yul\":370:734   */\n    tag_51:\n        /* \"#utility.yul\":458:461   */\n      0x00\n        /* \"#utility.yul\":486:525   */\n      tag_53\n        /* \"#utility.yul\":519:524   */\n      dup3\n        /* \"#utility.yul\":486:525   */\n      tag_54\n      jump\t// in\n    tag_53:\n        /* \"#utility.yul\":541:612   */\n      tag_55\n        /* \"#utility.yul\":605:611   */\n      dup2\n        /* \"#utility.yul\":600:603   */\n      dup6\n        /* \"#utility.yul\":541:612   */\n      tag_56\n      jump\t// in\n    tag_55:\n        /* \"#utility.yul\":534:612   */\n      swap4\n      pop\n        /* \"#utility.yul\":621:673   */\n      tag_57\n        /* \"#utility.yul\":666:672   */\n      dup2\n        /* \"#utility.yul\":661:664   */\n      dup6\n        /* \"#utility.yul\":654:658   */\n      0x20\n        /* \"#utility.yul\":647:652   */\n      dup7\n        /* \"#utility.yul\":643:659   */\n      add\n        /* \"#utility.yul\":621:673   */\n      tag_58\n      jump\t// in\n    tag_57:\n        /* \"#utility.yul\":698:727   */\n      tag_59\n        /* \"#utility.yul\":720:726   */\n      dup2\n        /* \"#utility.yul\":698:727   */\n      tag_60\n      jump\t// in\n    tag_59:\n        /* \"#utility.yul\":693:696   */\n      dup5\n        /* \"#utility.yul\":689:728   */\n      add\n        /* \"#utility.yul\":682:728   */\n      swap2\n      pop\n        /* \"#utility.yul\":462:734   */\n      pop\n        /* \"#utility.yul\":370:734   */\n      swap3\n      swap2\n      pop\n      pop\n      jump\t// out\n        /* \"#utility.yul\":740:852   */\n    tag_61:\n        /* \"#utility.yul\":823:845   */\n      tag_63\n        /* \"#utility.yul\":839:844   */\n      dup2\n        /* \"#utility.yul\":823:845   */\n      tag_64\n      jump\t// in\n    tag_63:\n        /* \"#utility.yul\":818:821   */\n      dup3\n        /* \"#utility.yul\":811:846   */\n      mstore\n        /* \"#utility.yul\":740:852   */\n      pop\n      pop\n      jump\t// out\n        /* \"#utility.yul\":858:1080   */\n    tag_20:\n        /* \"#utility.yul\":951:955   */\n      0x00\n        /* \"#utility.yul\":989:991   */\n      0x20\n        /* \"#utility.yul\":978:987   */\n      dup3\n        /* \"#utility.yul\":974:992   */\n      add\n        /* \"#utility.yul\":966:992   */\n      swap1\n      pop\n        /* \"#utility.yul\":1002:1073   */\n      tag_66\n        /* \"#utility.yul\":1070:1071   */\n      0x00\n        /* \"#utility.yul\":1059:1068   */\n      dup4\n        /* \"#utility.yul\":1055:1072   */\n      add\n        /* \"#utility.yul\":1046:1052   */\n      dup5\n        /* \"#utility.yul\":1002:1073   */\n      tag_39\n      jump\t// in\n    tag_66:\n        /* \"#utility.yul\":858:1080   */\n      swap3\n      swap2\n      pop\n      pop\n      jump\t// out\n        /* \"#utility.yul\":1086:1296   */\n    tag_16:\n        /* \"#utility.yul\":1173:1177   */\n      0x00\n        /* \"#utility.yul\":1211:1213   */\n      0x20\n        /* \"#utility.yul\":1200:1209   */\n      dup3\n        /* \"#utility.yul\":1196:1214   */\n      add\n        /* \"#utility.yul\":1188:1214   */\n      swap1\n      pop\n        /* \"#utility.yul\":1224:1289   */\n      tag_68\n        /* \"#utility.yul\":1286:1287   */\n      0x00\n        /* \"#utility.yul\":1275:1284   */\n      dup4\n        /* \"#utility.yul\":1271:1288   */\n      add\n        /* \"#utility.yul\":1262:1268   */\n      dup5\n        /* \"#utility.yul\":1224:1289   */\n      tag_43\n      jump\t// in\n    tag_68:\n        /* \"#utility.yul\":1086:1296   */\n      swap3\n      swap2\n      pop\n      pop\n      jump\t// out\n        /* \"#utility.yul\":1302:1524   */\n    tag_28:\n        /* \"#utility.yul\":1395:1399   */\n      0x00\n        /* \"#utility.yul\":1433:1435   */\n      0x20\n        /* \"#utility.yul\":1422:1431   */\n      dup3\n        /* \"#utility.yul\":1418:1436   */\n      add\n        /* \"#utility.yul\":1410:1436   */\n      swap1\n      pop\n        /* \"#utility.yul\":1446:1517   */\n      tag_70\n        /* \"#utility.yul\":1514:1515   */\n      0x00\n        /* \"#utility.yul\":1503:1512   */\n      dup4\n        /* \"#utility.yul\":1499:1516   */\n      add\n        /* \"#utility.yul\":1490:1496   */\n      dup5\n        /* \"#utility.yul\":1446:1517   */\n      tag_47\n      jump\t// in\n    tag_70:\n        /* \"#utility.yul\":1302:1524   */\n      swap3\n      swap2\n      pop\n      pop\n      jump\t// out\n        /* \"#utility.yul\":1530:1843   */\n    tag_24:\n        /* \"#utility.yul\":1643:1647   */\n      0x00\n        /* \"#utility.yul\":1681:1683   */\n      0x20\n        /* \"#utility.yul\":1670:1679   */\n      dup3\n        /* \"#utility.yul\":1666:1684   */\n      add\n        /* \"#utility.yul\":1658:1684   */\n      swap1\n      pop\n        /* \"#utility.yul\":1730:1739   */\n      dup2\n        /* \"#utility.yul\":1724:1728   */\n      dup2\n        /* \"#utility.yul\":1720:1740   */\n      sub\n        /* \"#utility.yul\":1716:1717   */\n      0x00\n        /* \"#utility.yul\":1705:1714   */\n      dup4\n        /* \"#utility.yul\":1701:1718   */\n      add\n        /* \"#utility.yul\":1694:1741   */\n      mstore\n        /* \"#utility.yul\":1758:1836   */\n      tag_72\n        /* \"#utility.yul\":1831:1835   */\n      dup2\n        /* \"#utility.yul\":1822:1828   */\n      dup5\n        /* \"#utility.yul\":1758:1836   */\n      tag_51\n      jump\t// in\n    tag_72:\n        /* \"#utility.yul\":1750:1836   */\n      swap1\n      pop\n        /* \"#utility.yul\":1530:1843   */\n      swap3\n      swap2\n      pop\n      pop\n      jump\t// out\n        /* \"#utility.yul\":1849:2063   */\n    tag_12:\n        /* \"#utility.yul\":1938:1942   */\n      0x00\n        /* \"#utility.yul\":1976:1978   */\n      0x20\n        /* \"#utility.yul\":1965:1974   */\n      dup3\n        /* \"#utility.yul\":1961:1979   */\n      add\n        /* \"#utility.yul\":1953:1979   */\n      swap1\n      pop\n        /* \"#utility.yul\":1989:2056   */\n      tag_74\n        /* \"#utility.yul\":2053:2054   */\n      0x00\n        /* \"#utility.yul\":2042:2051   */\n      dup4\n        /* \"#utility.yul\":2038:2055   */\n      add\n        /* \"#utility.yul\":2029:2035   */\n      dup5\n        /* \"#utility.yul\":1989:2056   */\n      tag_61\n      jump\t// in\n    tag_74:\n        /* \"#utility.yul\":1849:2063   */\n      swap3\n      swap2\n      pop\n      pop\n      jump\t// out\n        /* \"#utility.yul\":2069:2168   */\n    tag_54:\n        /* \"#utility.yul\":2121:2127   */\n      0x00\n        /* \"#utility.yul\":2155:2160   */\n      dup2\n        /* \"#utility.yul\":2149:2161   */\n      mload\n        /* \"#utility.yul\":2139:2161   */\n      swap1\n      pop\n        /* \"#utility.yul\":2069:2168   */\n      swap2\n      swap1\n      pop\n      jump\t// out\n        /* \"#utility.yul\":2174:2343   */\n    tag_56:\n        /* \"#utility.yul\":2258:2269   */\n      0x00\n        /* \"#utility.yul\":2292:2298   */\n      dup3\n        /* \"#utility.yul\":2287:2290   */\n      dup3\n        /* \"#utility.yul\":2280:2299   */\n      mstore\n        /* \"#utility.yul\":2332:2336   */\n      0x20\n        /* \"#utility.yul\":2327:2330   */\n      dup3\n        /* \"#utility.yul\":2323:2337   */\n      add\n        /* \"#utility.yul\":2308:2337   */\n      swap1\n      pop\n        /* \"#utility.yul\":2174:2343   */\n      swap3\n      swap2\n      pop\n      pop\n      jump\t// out\n        /* \"#utility.yul\":2349:2445   */\n    tag_42:\n        /* \"#utility.yul\":2386:2393   */\n      0x00\n        /* \"#utility.yul\":2415:2439   */\n      tag_78\n        /* \"#utility.yul\":2433:2438   */\n      dup3\n        /* \"#utility.yul\":2415:2439   */\n      tag_79\n      jump\t// in\n    tag_78:\n        /* \"#utility.yul\":2404:2439   */\n      swap1\n      pop\n        /* \"#utility.yul\":2349:2445   */\n      swap2\n      swap1\n      pop\n      jump\t// out\n        /* \"#utility.yul\":2451:2541   */\n    tag_46:\n        /* \"#utility.yul\":2485:2492   */\n      0x00\n        /* \"#utility.yul\":2528:2533   */\n      dup2\n        /* \"#utility.yul\":2521:2534   */\n      iszero\n        /* \"#utility.yul\":2514:2535   */\n      iszero\n        /* \"#utility.yul\":2503:2535   */\n      swap1\n      pop\n        /* \"#utility.yul\":2451:2541   */\n      swap2\n      swap1\n      pop\n      jump\t// out\n        /* \"#utility.yul\":2547:2624   */\n    tag_50:\n        /* \"#utility.yul\":2584:2591   */\n      0x00\n        /* \"#utility.yul\":2613:2618   */\n      dup2\n        /* \"#utility.yul\":2602:2618   */\n      swap1\n      pop\n        /* \"#utility.yul\":2547:2624   */\n      swap2\n      swap1\n      pop\n      jump\t// out\n        /* \"#utility.yul\":2630:2756   */\n    tag_79:\n        /* \"#utility.yul\":2667:2674   */\n      0x00\n        /* \"#utility.yul\":2707:2749   */\n      0xffffffffffffffffffffffffffffffffffffffff\n        /* \"#utility.yul\":2700:2705   */\n      dup3\n        /* \"#utility.yul\":2696:2750   */\n      and\n        /* \"#utility.yul\":2685:2750   */\n      swap1\n      pop\n        /* \"#utility.yul\":2630:2756   */\n      swap2\n      swap1\n      pop\n      jump\t// out\n        /* \"#utility.yul\":2762:2848   */\n    tag_64:\n        /* \"#utility.yul\":2797:2804   */\n      0x00\n        /* \"#utility.yul\":2837:2841   */\n      0xff\n        /* \"#utility.yul\":2830:2835   */\n      dup3\n        /* \"#utility.yul\":2826:2842   */\n      and\n        /* \"#utility.yul\":2815:2842   */\n      swap1\n      pop\n        /* \"#utility.yul\":2762:2848   */\n      swap2\n      swap1\n      pop\n      jump\t// out\n        /* \"#utility.yul\":2854:3161   */\n    tag_58:\n        /* \"#utility.yul\":2922:2923   */\n      0x00\n        /* \"#utility.yul\":2932:3045   */\n    tag_85:\n        /* \"#utility.yul\":2946:2952   */\n      dup4\n        /* \"#utility.yul\":2943:2944   */\n      dup2\n        /* \"#utility.yul\":2940:2953   */\n      lt\n        /* \"#utility.yul\":2932:3045   */\n      iszero\n      tag_87\n      jumpi\n        /* \"#utility.yul\":3031:3032   */\n      dup1\n        /* \"#utility.yul\":3026:3029   */\n      dup3\n        /* \"#utility.yul\":3022:3033   */\n      add\n        /* \"#utility.yul\":3016:3034   */\n      mload\n        /* \"#utility.yul\":3012:3013   */\n      dup2\n        /* \"#utility.yul\":3007:3010   */\n      dup5\n        /* \"#utility.yul\":3003:3014   */\n      add\n        /* \"#utility.yul\":2996:3035   */\n      mstore\n        /* \"#utility.yul\":2968:2970   */\n      0x20\n        /* \"#utility.yul\":2965:2966   */\n      dup2\n        /* \"#utility.yul\":2961:2971   */\n      add\n        /* \"#utility.yul\":2956:2971   */\n      swap1\n      pop\n        /* \"#utility.yul\":2932:3045   */\n      jump(tag_85)\n    tag_87:\n        /* \"#utility.yul\":3063:3069   */\n      dup4\n        /* \"#utility.yul\":3060:3061   */\n      dup2\n        /* \"#utility.yul\":3057:3070   */\n      gt\n        /* \"#utility.yul\":3054:3155   */\n      iszero\n      tag_88\n      jumpi\n        /* \"#utility.yul\":3143:3144   */\n      0x00\n        /* \"#utility.yul\":3134:3140   */\n      dup5\n        /* \"#utility.yul\":3129:3132   */\n      dup5\n        /* \"#utility.yul\":3125:3141   */\n      add\n        /* \"#utility.yul\":3118:3145   */\n      mstore\n        /* \"#utility.yul\":3054:3155   */\n    tag_88:\n        /* \"#utility.yul\":2903:3161   */\n      pop\n        /* \"#utility.yul\":2854:3161   */\n      pop\n      pop\n      pop\n      jump\t// out\n        /* \"#utility.yul\":3167:3487   */\n    tag_33:\n        /* \"#utility.yul\":3211:3217   */\n      0x00\n        /* \"#utility.yul\":3248:3249   */\n      0x02\n        /* \"#utility.yul\":3242:3246   */\n      dup3\n        /* \"#utility.yul\":3238:3250   */\n      div\n        /* \"#utility.yul\":3228:3250   */\n      swap1\n      pop\n        /* \"#utility.yul\":3295:3296   */\n      0x01\n        /* \"#utility.yul\":3289:3293   */\n      dup3\n        /* \"#utility.yul\":3285:3297   */\n      and\n        /* \"#utility.yul\":3316:3334   */\n      dup1\n        /* \"#utility.yul\":3306:3387   */\n      tag_90\n      jumpi\n        /* \"#utility.yul\":3372:3376   */\n      0x7f\n        /* \"#utility.yul\":3364:3370   */\n      dup3\n        /* \"#utility.yul\":3360:3377   */\n      and\n        /* \"#utility.yul\":3350:3377   */\n      swap2\n      pop\n        /* \"#utility.yul\":3306:3387   */\n    tag_90:\n        /* \"#utility.yul\":3434:3436   */\n      0x20\n        /* \"#utility.yul\":3426:3432   */\n      dup3\n        /* \"#utility.yul\":3423:3437   */\n      lt\n        /* \"#utility.yul\":3403:3421   */\n      dup2\n        /* \"#utility.yul\":3400:3438   */\n      eq\n        /* \"#utility.yul\":3397:3481   */\n      iszero\n      tag_91\n      jumpi\n        /* \"#utility.yul\":3453:3471   */\n      tag_92\n      tag_93\n      jump\t// in\n    tag_92:\n        /* \"#utility.yul\":3397:3481   */\n    tag_91:\n        /* \"#utility.yul\":3218:3487   */\n      pop\n        /* \"#utility.yul\":3167:3487   */\n      swap2\n      swap1\n      pop\n      jump\t// out\n        /* \"#utility.yul\":3493:3673   */\n    tag_93:\n        /* \"#utility.yul\":3541:3618   */\n      0x4e487b7100000000000000000000000000000000000000000000000000000000\n        /* \"#utility.yul\":3538:3539   */\n      0x00\n        /* \"#utility.yul\":3531:3619   */\n      mstore\n        /* \"#utility.yul\":3638:3642   */\n      0x22\n        /* \"#utility.yul\":3635:3636   */\n      0x04\n        /* \"#utility.yul\":3628:3643   */\n      mstore\n        /* \"#utility.yul\":3662:3666   */\n      0x24\n        /* \"#utility.yul\":3659:3660   */\n      0x00\n        /* \"#utility.yul\":3652:3667   */\n      revert\n        /* \"#utility.yul\":3679:3781   */\n    tag_60:\n        /* \"#utility.yul\":3720:3726   */\n      0x00\n        /* \"#utility.yul\":3771:3773   */\n      0x1f\n        /* \"#utility.yul\":3767:3774   */\n      not\n        /* \"#utility.yul\":3762:3764   */\n      0x1f\n        /* \"#utility.yul\":3755:3760   */\n      dup4\n        /* \"#utility.yul\":3751:3765   */\n      add\n        /* \"#utility.yul\":3747:3775   */\n      and\n        /* \"#utility.yul\":3737:3775   */\n      swap1\n      pop\n        /* \"#utility.yul\":3679:3781   */\n      swap2\n      swap1\n      pop\n      jump\t// out\n\n    auxdata: 0xa26469706673582212200ed058a65bff2205bb0e55a6101920dc0cb1968dd82441a8cc110749cc663a4864736f6c63430008070033\n}\n",
				"bytecode": {
					"linkReferences": {},
					"object": "60806040526003600160006101000a81548160ff021916908360ff1602179055507fffffffffffffffffffffffffffffffffffffffffffffffffffffffffffffffe0600360006101000a81548160ff021916908360000b60ff16021790555060416004556040518060400160405280600d81526020017f537472696e67207075626c696300000000000000000000000000000000000000815250600690805190602001906100ae929190610201565b506040518060400160405280600e81526020017f537472696e672050726976617465000000000000000000000000000000000000815250600790805190602001906100fa929190610201565b506001600860016101000a81548160ff0219169083151502179055506000600860026101000a81548160ff021916908315150217905550604051602001610140906102c7565b60405160208183030381529060405280519060200120600b55735b38da6a701c568545dcfcb03fcb875f56beddc4600d60006101000a81548173ffffffffffffffffffffffffffffffffffffffff021916908373ffffffffffffffffffffffffffffffffffffffff16021790555033600e60006101000a81548173ffffffffffffffffffffffffffffffffffffffff021916908373ffffffffffffffffffffffffffffffffffffffff1602179055503480156101fb57600080fd5b50610371565b82805461020d906102e7565b90600052602060002090601f01602090048101928261022f5760008555610276565b82601f1061024857805160ff1916838001178555610276565b82800160010185558215610276579182015b8281111561027557825182559160200191906001019061025a565b5b5090506102839190610287565b5090565b5b808211156102a0576000816000905550600101610288565b5090565b60006102b1600a836102dc565b91506102bc82610348565b600a82019050919050565b60006102d2826102a4565b9150819050919050565b600081905092915050565b600060028204905060018216806102ff57607f821691505b6020821081141561031357610312610319565b5b50919050565b7f4e487b7100000000000000000000000000000000000000000000000000000000600052602260045260246000fd5b7f48656c6c6f20776f726400000000000000000000000000000000000000000000600082015250565b610470806103806000396000f3fe608060405234801561001057600080fd5b50600436106100625760003560e01c80634df7e3d0146100675780635760fa05146100855780635f7d462e146100a3578063b83d07b7146100c1578063cd97d84e146100df578063e2bed7b4146100fd575b600080fd5b61006f61011b565b60405161007c9190610309565b60405180910390f35b61008d61012e565b60405161009a91906102b1565b60405180910390f35b6100ab610141565b6040516100b89190610296565b60405180910390f35b6100c9610167565b6040516100d691906102e7565b60405180910390f35b6100e76101f5565b6040516100f491906102cc565b60405180910390f35b6101056101fb565b6040516101129190610296565b60405180910390f35b600160009054906101000a900460ff1681565b600860019054906101000a900460ff1681565b600e60009054906101000a900473ffffffffffffffffffffffffffffffffffffffff1681565b60068054610174906103c8565b80601f01602080910402602001604051908101604052809291908181526020018280546101a0906103c8565b80156101ed5780601f106101c2576101008083540402835291602001916101ed565b820191906000526020600020905b8154815290600101906020018083116101d057829003601f168201915b505050505081565b600b5481565b600d60009054906101000a900473ffffffffffffffffffffffffffffffffffffffff1681565b61022a81610340565b82525050565b61023981610352565b82525050565b6102488161035e565b82525050565b600061025982610324565b610263818561032f565b9350610273818560208601610395565b61027c81610429565b840191505092915050565b61029081610388565b82525050565b60006020820190506102ab6000830184610221565b92915050565b60006020820190506102c66000830184610230565b92915050565b60006020820190506102e1600083018461023f565b92915050565b60006020820190508181036000830152610301818461024e565b905092915050565b600060208201905061031e6000830184610287565b92915050565b600081519050919050565b600082825260208201905092915050565b600061034b82610368565b9050919050565b60008115159050919050565b6000819050919050565b600073ffffffffffffffffffffffffffffffffffffffff82169050919050565b600060ff82169050919050565b60005b838110156103b3578082015181840152602081019050610398565b838111156103c2576000848401525b50505050565b600060028204905060018216806103e057607f821691505b602082108114156103f4576103f36103fa565b5b50919050565b7f4e487b7100000000000000000000000000000000000000000000000000000000600052602260045260246000fd5b6000601f19601f830116905091905056fea26469706673582212200ed058a65bff2205bb0e55a6101920dc0cb1968dd82441a8cc110749cc663a4864736f6c63430008070033",
					"opcodes": "PUSH1 0x80 PUSH1 0x40 MSTORE PUSH1 0x3 PUSH1 0x1 PUSH1 0x0 PUSH2 0x100 EXP DUP2 SLOAD DUP2 PUSH1 0xFF MUL NOT AND SWAP1 DUP4 PUSH1 0xFF AND MUL OR SWAP1 SSTORE POP PUSH32 0xFFFFFFFFFFFFFFFFFFFFFFFFFFFFFFFFFFFFFFFFFFFFFFFFFFFFFFFFFFFFFFE0 PUSH1 0x3 PUSH1 0x0 PUSH2 0x100 EXP DUP2 SLOAD DUP2 PUSH1 0xFF MUL NOT AND SWAP1 DUP4 PUSH1 0x0 SIGNEXTEND PUSH1 0xFF AND MUL OR SWAP1 SSTORE POP PUSH1 0x41 PUSH1 0x4 SSTORE PUSH1 0x40 MLOAD DUP1 PUSH1 0x40 ADD PUSH1 0x40 MSTORE DUP1 PUSH1 0xD DUP2 MSTORE PUSH1 0x20 ADD PUSH32 0x537472696E67207075626C696300000000000000000000000000000000000000 DUP2 MSTORE POP PUSH1 0x6 SWAP1 DUP1 MLOAD SWAP1 PUSH1 0x20 ADD SWAP1 PUSH2 0xAE SWAP3 SWAP2 SWAP1 PUSH2 0x201 JUMP JUMPDEST POP PUSH1 0x40 MLOAD DUP1 PUSH1 0x40 ADD PUSH1 0x40 MSTORE DUP1 PUSH1 0xE DUP2 MSTORE PUSH1 0x20 ADD PUSH32 0x537472696E672050726976617465000000000000000000000000000000000000 DUP2 MSTORE POP PUSH1 0x7 SWAP1 DUP1 MLOAD SWAP1 PUSH1 0x20 ADD SWAP1 PUSH2 0xFA SWAP3 SWAP2 SWAP1 PUSH2 0x201 JUMP JUMPDEST POP PUSH1 0x1 PUSH1 0x8 PUSH1 0x1 PUSH2 0x100 EXP DUP2 SLOAD DUP2 PUSH1 0xFF MUL NOT AND SWAP1 DUP4 ISZERO ISZERO MUL OR SWAP1 SSTORE POP PUSH1 0x0 PUSH1 0x8 PUSH1 0x2 PUSH2 0x100 EXP DUP2 SLOAD DUP2 PUSH1 0xFF MUL NOT AND SWAP1 DUP4 ISZERO ISZERO MUL OR SWAP1 SSTORE POP PUSH1 0x40 MLOAD PUSH1 0x20 ADD PUSH2 0x140 SWAP1 PUSH2 0x2C7 JUMP JUMPDEST PUSH1 0x40 MLOAD PUSH1 0x20 DUP2 DUP4 SUB SUB DUP2 MSTORE SWAP1 PUSH1 0x40 MSTORE DUP1 MLOAD SWAP1 PUSH1 0x20 ADD KECCAK256 PUSH1 0xB SSTORE PUSH20 0x5B38DA6A701C568545DCFCB03FCB875F56BEDDC4 PUSH1 0xD PUSH1 0x0 PUSH2 0x100 EXP DUP2 SLOAD DUP2 PUSH20 0xFFFFFFFFFFFFFFFFFFFFFFFFFFFFFFFFFFFFFFFF MUL NOT AND SWAP1 DUP4 PUSH20 0xFFFFFFFFFFFFFFFFFFFFFFFFFFFFFFFFFFFFFFFF AND MUL OR SWAP1 SSTORE POP CALLER PUSH1 0xE PUSH1 0x0 PUSH2 0x100 EXP DUP2 SLOAD DUP2 PUSH20 0xFFFFFFFFFFFFFFFFFFFFFFFFFFFFFFFFFFFFFFFF MUL NOT AND SWAP1 DUP4 PUSH20 0xFFFFFFFFFFFFFFFFFFFFFFFFFFFFFFFFFFFFFFFF AND MUL OR SWAP1 SSTORE POP CALLVALUE DUP1 ISZERO PUSH2 0x1FB JUMPI PUSH1 0x0 DUP1 REVERT JUMPDEST POP PUSH2 0x371 JUMP JUMPDEST DUP3 DUP1 SLOAD PUSH2 0x20D SWAP1 PUSH2 0x2E7 JUMP JUMPDEST SWAP1 PUSH1 0x0 MSTORE PUSH1 0x20 PUSH1 0x0 KECCAK256 SWAP1 PUSH1 0x1F ADD PUSH1 0x20 SWAP1 DIV DUP2 ADD SWAP3 DUP3 PUSH2 0x22F JUMPI PUSH1 0x0 DUP6 SSTORE PUSH2 0x276 JUMP JUMPDEST DUP3 PUSH1 0x1F LT PUSH2 0x248 JUMPI DUP1 MLOAD PUSH1 0xFF NOT AND DUP4 DUP1 ADD OR DUP6 SSTORE PUSH2 0x276 JUMP JUMPDEST DUP3 DUP1 ADD PUSH1 0x1 ADD DUP6 SSTORE DUP3 ISZERO PUSH2 0x276 JUMPI SWAP2 DUP3 ADD JUMPDEST DUP3 DUP2 GT ISZERO PUSH2 0x275 JUMPI DUP3 MLOAD DUP3 SSTORE SWAP2 PUSH1 0x20 ADD SWAP2 SWAP1 PUSH1 0x1 ADD SWAP1 PUSH2 0x25A JUMP JUMPDEST JUMPDEST POP SWAP1 POP PUSH2 0x283 SWAP2 SWAP1 PUSH2 0x287 JUMP JUMPDEST POP SWAP1 JUMP JUMPDEST JUMPDEST DUP1 DUP3 GT ISZERO PUSH2 0x2A0 JUMPI PUSH1 0x0 DUP2 PUSH1 0x0 SWAP1 SSTORE POP PUSH1 0x1 ADD PUSH2 0x288 JUMP JUMPDEST POP SWAP1 JUMP JUMPDEST PUSH1 0x0 PUSH2 0x2B1 PUSH1 0xA DUP4 PUSH2 0x2DC JUMP JUMPDEST SWAP2 POP PUSH2 0x2BC DUP3 PUSH2 0x348 JUMP JUMPDEST PUSH1 0xA DUP3 ADD SWAP1 POP SWAP2 SWAP1 POP JUMP JUMPDEST PUSH1 0x0 PUSH2 0x2D2 DUP3 PUSH2 0x2A4 JUMP JUMPDEST SWAP2 POP DUP2 SWAP1 POP SWAP2 SWAP1 POP JUMP JUMPDEST PUSH1 0x0 DUP2 SWAP1 POP SWAP3 SWAP2 POP POP JUMP JUMPDEST PUSH1 0x0 PUSH1 0x2 DUP3 DIV SWAP1 POP PUSH1 0x1 DUP3 AND DUP1 PUSH2 0x2FF JUMPI PUSH1 0x7F DUP3 AND SWAP2 POP JUMPDEST PUSH1 0x20 DUP3 LT DUP2 EQ ISZERO PUSH2 0x313 JUMPI PUSH2 0x312 PUSH2 0x319 JUMP JUMPDEST JUMPDEST POP SWAP2 SWAP1 POP JUMP JUMPDEST PUSH32 0x4E487B7100000000000000000000000000000000000000000000000000000000 PUSH1 0x0 MSTORE PUSH1 0x22 PUSH1 0x4 MSTORE PUSH1 0x24 PUSH1 0x0 REVERT JUMPDEST PUSH32 0x48656C6C6F20776F726400000000000000000000000000000000000000000000 PUSH1 0x0 DUP3 ADD MSTORE POP JUMP JUMPDEST PUSH2 0x470 DUP1 PUSH2 0x380 PUSH1 0x0 CODECOPY PUSH1 0x0 RETURN INVALID PUSH1 0x80 PUSH1 0x40 MSTORE CALLVALUE DUP1 ISZERO PUSH2 0x10 JUMPI PUSH1 0x0 DUP1 REVERT JUMPDEST POP PUSH1 0x4 CALLDATASIZE LT PUSH2 0x62 JUMPI PUSH1 0x0 CALLDATALOAD PUSH1 0xE0 SHR DUP1 PUSH4 0x4DF7E3D0 EQ PUSH2 0x67 JUMPI DUP1 PUSH4 0x5760FA05 EQ PUSH2 0x85 JUMPI DUP1 PUSH4 0x5F7D462E EQ PUSH2 0xA3 JUMPI DUP1 PUSH4 0xB83D07B7 EQ PUSH2 0xC1 JUMPI DUP1 PUSH4 0xCD97D84E EQ PUSH2 0xDF JUMPI DUP1 PUSH4 0xE2BED7B4 EQ PUSH2 0xFD JUMPI JUMPDEST PUSH1 0x0 DUP1 REVERT JUMPDEST PUSH2 0x6F PUSH2 0x11B JUMP JUMPDEST PUSH1 0x40 MLOAD PUSH2 0x7C SWAP2 SWAP1 PUSH2 0x309 JUMP JUMPDEST PUSH1 0x40 MLOAD DUP1 SWAP2 SUB SWAP1 RETURN JUMPDEST PUSH2 0x8D PUSH2 0x12E JUMP JUMPDEST PUSH1 0x40 MLOAD PUSH2 0x9A SWAP2 SWAP1 PUSH2 0x2B1 JUMP JUMPDEST PUSH1 0x40 MLOAD DUP1 SWAP2 SUB SWAP1 RETURN JUMPDEST PUSH2 0xAB PUSH2 0x141 JUMP JUMPDEST PUSH1 0x40 MLOAD PUSH2 0xB8 SWAP2 SWAP1 PUSH2 0x296 JUMP JUMPDEST PUSH1 0x40 MLOAD DUP1 SWAP2 SUB SWAP1 RETURN JUMPDEST PUSH2 0xC9 PUSH2 0x167 JUMP JUMPDEST PUSH1 0x40 MLOAD PUSH2 0xD6 SWAP2 SWAP1 PUSH2 0x2E7 JUMP JUMPDEST PUSH1 0x40 MLOAD DUP1 SWAP2 SUB SWAP1 RETURN JUMPDEST PUSH2 0xE7 PUSH2 0x1F5 JUMP JUMPDEST PUSH1 0x40 MLOAD PUSH2 0xF4 SWAP2 SWAP1 PUSH2 0x2CC JUMP JUMPDEST PUSH1 0x40 MLOAD DUP1 SWAP2 SUB SWAP1 RETURN JUMPDEST PUSH2 0x105 PUSH2 0x1FB JUMP JUMPDEST PUSH1 0x40 MLOAD PUSH2 0x112 SWAP2 SWAP1 PUSH2 0x296 JUMP JUMPDEST PUSH1 0x40 MLOAD DUP1 SWAP2 SUB SWAP1 RETURN JUMPDEST PUSH1 0x1 PUSH1 0x0 SWAP1 SLOAD SWAP1 PUSH2 0x100 EXP SWAP1 DIV PUSH1 0xFF AND DUP2 JUMP JUMPDEST PUSH1 0x8 PUSH1 0x1 SWAP1 SLOAD SWAP1 PUSH2 0x100 EXP SWAP1 DIV PUSH1 0xFF AND DUP2 JUMP JUMPDEST PUSH1 0xE PUSH1 0x0 SWAP1 SLOAD SWAP1 PUSH2 0x100 EXP SWAP1 DIV PUSH20 0xFFFFFFFFFFFFFFFFFFFFFFFFFFFFFFFFFFFFFFFF AND DUP2 JUMP JUMPDEST PUSH1 0x6 DUP1 SLOAD PUSH2 0x174 SWAP1 PUSH2 0x3C8 JUMP JUMPDEST DUP1 PUSH1 0x1F ADD PUSH1 0x20 DUP1 SWAP2 DIV MUL PUSH1 0x20 ADD PUSH1 0x40 MLOAD SWAP1 DUP2 ADD PUSH1 0x40 MSTORE DUP1 SWAP3 SWAP2 SWAP1 DUP2 DUP2 MSTORE PUSH1 0x20 ADD DUP3 DUP1 SLOAD PUSH2 0x1A0 SWAP1 PUSH2 0x3C8 JUMP JUMPDEST DUP1 ISZERO PUSH2 0x1ED JUMPI DUP1 PUSH1 0x1F LT PUSH2 0x1C2 JUMPI PUSH2 0x100 DUP1 DUP4 SLOAD DIV MUL DUP4 MSTORE SWAP2 PUSH1 0x20 ADD SWAP2 PUSH2 0x1ED JUMP JUMPDEST DUP3 ADD SWAP2 SWAP1 PUSH1 0x0 MSTORE PUSH1 0x20 PUSH1 0x0 KECCAK256 SWAP1 JUMPDEST DUP2 SLOAD DUP2 MSTORE SWAP1 PUSH1 0x1 ADD SWAP1 PUSH1 0x20 ADD DUP1 DUP4 GT PUSH2 0x1D0 JUMPI DUP3 SWAP1 SUB PUSH1 0x1F AND DUP3 ADD SWAP2 JUMPDEST POP POP POP POP POP DUP2 JUMP JUMPDEST PUSH1 0xB SLOAD DUP2 JUMP JUMPDEST PUSH1 0xD PUSH1 0x0 SWAP1 SLOAD SWAP1 PUSH2 0x100 EXP SWAP1 DIV PUSH20 0xFFFFFFFFFFFFFFFFFFFFFFFFFFFFFFFFFFFFFFFF AND DUP2 JUMP JUMPDEST PUSH2 0x22A DUP2 PUSH2 0x340 JUMP JUMPDEST DUP3 MSTORE POP POP JUMP JUMPDEST PUSH2 0x239 DUP2 PUSH2 0x352 JUMP JUMPDEST DUP3 MSTORE POP POP JUMP JUMPDEST PUSH2 0x248 DUP2 PUSH2 0x35E JUMP JUMPDEST DUP3 MSTORE POP POP JUMP JUMPDEST PUSH1 0x0 PUSH2 0x259 DUP3 PUSH2 0x324 JUMP JUMPDEST PUSH2 0x263 DUP2 DUP6 PUSH2 0x32F JUMP JUMPDEST SWAP4 POP PUSH2 0x273 DUP2 DUP6 PUSH1 0x20 DUP7 ADD PUSH2 0x395 JUMP JUMPDEST PUSH2 0x27C DUP2 PUSH2 0x429 JUMP JUMPDEST DUP5 ADD SWAP2 POP POP SWAP3 SWAP2 POP POP JUMP JUMPDEST PUSH2 0x290 DUP2 PUSH2 0x388 JUMP JUMPDEST DUP3 MSTORE POP POP JUMP JUMPDEST PUSH1 0x0 PUSH1 0x20 DUP3 ADD SWAP1 POP PUSH2 0x2AB PUSH1 0x0 DUP4 ADD DUP5 PUSH2 0x221 JUMP JUMPDEST SWAP3 SWAP2 POP POP JUMP JUMPDEST PUSH1 0x0 PUSH1 0x20 DUP3 ADD SWAP1 POP PUSH2 0x2C6 PUSH1 0x0 DUP4 ADD DUP5 PUSH2 0x230 JUMP JUMPDEST SWAP3 SWAP2 POP POP JUMP JUMPDEST PUSH1 0x0 PUSH1 0x20 DUP3 ADD SWAP1 POP PUSH2 0x2E1 PUSH1 0x0 DUP4 ADD DUP5 PUSH2 0x23F JUMP JUMPDEST SWAP3 SWAP2 POP POP JUMP JUMPDEST PUSH1 0x0 PUSH1 0x20 DUP3 ADD SWAP1 POP DUP2 DUP2 SUB PUSH1 0x0 DUP4 ADD MSTORE PUSH2 0x301 DUP2 DUP5 PUSH2 0x24E JUMP JUMPDEST SWAP1 POP SWAP3 SWAP2 POP POP JUMP JUMPDEST PUSH1 0x0 PUSH1 0x20 DUP3 ADD SWAP1 POP PUSH2 0x31E PUSH1 0x0 DUP4 ADD DUP5 PUSH2 0x287 JUMP JUMPDEST SWAP3 SWAP2 POP POP JUMP JUMPDEST PUSH1 0x0 DUP2 MLOAD SWAP1 POP SWAP2 SWAP1 POP JUMP JUMPDEST PUSH1 0x0 DUP3 DUP3 MSTORE PUSH1 0x20 DUP3 ADD SWAP1 POP SWAP3 SWAP2 POP POP JUMP JUMPDEST PUSH1 0x0 PUSH2 0x34B DUP3 PUSH2 0x368 JUMP JUMPDEST SWAP1 POP SWAP2 SWAP1 POP JUMP JUMPDEST PUSH1 0x0 DUP2 ISZERO ISZERO SWAP1 POP SWAP2 SWAP1 POP JUMP JUMPDEST PUSH1 0x0 DUP2 SWAP1 POP SWAP2 SWAP1 POP JUMP JUMPDEST PUSH1 0x0 PUSH20 0xFFFFFFFFFFFFFFFFFFFFFFFFFFFFFFFFFFFFFFFF DUP3 AND SWAP1 POP SWAP2 SWAP1 POP JUMP JUMPDEST PUSH1 0x0 PUSH1 0xFF DUP3 AND SWAP1 POP SWAP2 SWAP1 POP JUMP JUMPDEST PUSH1 0x0 JUMPDEST DUP4 DUP2 LT ISZERO PUSH2 0x3B3 JUMPI DUP1 DUP3 ADD MLOAD DUP2 DUP5 ADD MSTORE PUSH1 0x20 DUP2 ADD SWAP1 POP PUSH2 0x398 JUMP JUMPDEST DUP4 DUP2 GT ISZERO PUSH2 0x3C2 JUMPI PUSH1 0x0 DUP5 DUP5 ADD MSTORE JUMPDEST POP POP POP POP JUMP JUMPDEST PUSH1 0x0 PUSH1 0x2 DUP3 DIV SWAP1 POP PUSH1 0x1 DUP3 AND DUP1 PUSH2 0x3E0 JUMPI PUSH1 0x7F DUP3 AND SWAP2 POP JUMPDEST PUSH1 0x20 DUP3 LT DUP2 EQ ISZERO PUSH2 0x3F4 JUMPI PUSH2 0x3F3 PUSH2 0x3FA JUMP JUMPDEST JUMPDEST POP SWAP2 SWAP1 POP JUMP JUMPDEST PUSH32 0x4E487B7100000000000000000000000000000000000000000000000000000000 PUSH1 0x0 MSTORE PUSH1 0x22 PUSH1 0x4 MSTORE PUSH1 0x24 PUSH1 0x0 REVERT JUMPDEST PUSH1 0x0 PUSH1 0x1F NOT PUSH1 0x1F DUP4 ADD AND SWAP1 POP SWAP2 SWAP1 POP JUMP INVALID LOG2 PUSH5 0x6970667358 0x22 SLT KECCAK256 0xE 0xD0 PC 0xA6 JUMPDEST SELFDESTRUCT 0x22 SDIV 0xBB 0xE SSTORE 0xA6 LT NOT KECCAK256 0xDC 0xC 0xB1 SWAP7 DUP14 0xD8 0x24 COINBASE 0xA8 0xCC GT SMOD 0x49 0xCC PUSH7 0x3A4864736F6C63 NUMBER STOP ADDMOD SMOD STOP CALLER "
				},
				"gasEstimates": {
					"creation": {
						"codeDepositCost": "227200",
						"executionCost": "infinite",
						"totalCost": "infinite"
					},
					"external": {
						"addres_two()": "2536",
						"address_one()": "2602",
						"b()": "2449",
						"bool_true()": "2521",
						"hashing()": "2495",
						"str_public()": "infinite"
					}
				},
				"methodIdentifiers": {
					"addres_two()": "5f7d462e",
					"address_one()": "e2bed7b4",
					"b()": "4df7e3d0",
					"bool_true()": "5760fa05",
					"hashing()": "cd97d84e",
					"str_public()": "b83d07b7"
				}
			},
			"storageLayout": {
				"storage": [
					{
						"astId": 3,
						"contract": "contracts/first_contract.sol:variables_modifiers",
						"label": "a",
						"offset": 0,
						"slot": "0",
						"type": "t_uint256"
					},
					{
						"astId": 6,
						"contract": "contracts/first_contract.sol:variables_modifiers",
						"label": "b",
						"offset": 0,
						"slot": "1",
						"type": "t_uint8"
					},
					{
						"astId": 8,
						"contract": "contracts/first_contract.sol:variables_modifiers",
						"label": "c",
						"offset": 0,
						"slot": "2",
						"type": "t_int256"
					},
					{
						"astId": 12,
						"contract": "contracts/first_contract.sol:variables_modifiers",
						"label": "d",
						"offset": 0,
						"slot": "3",
						"type": "t_int8"
					},
					{
						"astId": 15,
						"contract": "contracts/first_contract.sol:variables_modifiers",
						"label": "e",
						"offset": 0,
						"slot": "4",
						"type": "t_int256"
					},
					{
						"astId": 17,
						"contract": "contracts/first_contract.sol:variables_modifiers",
						"label": "str",
						"offset": 0,
						"slot": "5",
						"type": "t_string_storage"
					},
					{
						"astId": 20,
						"contract": "contracts/first_contract.sol:variables_modifiers",
						"label": "str_public",
						"offset": 0,
						"slot": "6",
						"type": "t_string_storage"
					},
					{
						"astId": 23,
						"contract": "contracts/first_contract.sol:variables_modifiers",
						"label": "str_private",
						"offset": 0,
						"slot": "7",
						"type": "t_string_storage"
					},
					{
						"astId": 25,
						"contract": "contracts/first_contract.sol:variables_modifiers",
						"label": "boolean",
						"offset": 0,
						"slot": "8",
						"type": "t_bool"
					},
					{
						"astId": 28,
						"contract": "contracts/first_contract.sol:variables_modifiers",
						"label": "bool_true",
						"offset": 1,
						"slot": "8",
						"type": "t_bool"
					},
					{
						"astId": 31,
						"contract": "contracts/first_contract.sol:variables_modifiers",
						"label": "bool_false",
						"offset": 2,
						"slot": "8",
						"type": "t_bool"
					},
					{
						"astId": 33,
						"contract": "contracts/first_contract.sol:variables_modifiers",
						"label": "first_bytes",
						"offset": 0,
						"slot": "9",
						"type": "t_bytes32"
					},
					{
						"astId": 35,
						"contract": "contracts/first_contract.sol:variables_modifiers",
						"label": "second_bytes",
						"offset": 0,
						"slot": "10",
						"type": "t_bytes4"
					},
					{
						"astId": 37,
						"contract": "contracts/first_contract.sol:variables_modifiers",
						"label": "byte_one",
						"offset": 4,
						"slot": "10",
						"type": "t_bytes1"
					},
					{
						"astId": 45,
						"contract": "contracts/first_contract.sol:variables_modifiers",
						"label": "hashing",
						"offset": 0,
						"slot": "11",
						"type": "t_bytes32"
					},
					{
						"astId": 47,
						"contract": "contracts/first_contract.sol:variables_modifiers",
						"label": "my_address",
						"offset": 0,
						"slot": "12",
						"type": "t_address"
					},
					{
						"astId": 50,
						"contract": "contracts/first_contract.sol:variables_modifiers",
						"label": "address_one",
						"offset": 0,
						"slot": "13",
						"type": "t_address"
					},
					{
						"astId": 54,
						"contract": "contracts/first_contract.sol:variables_modifiers",
						"label": "addres_two",
						"offset": 0,
						"slot": "14",
						"type": "t_address"
					}
				],
				"types": {
					"t_address": {
						"encoding": "inplace",
						"label": "address",
						"numberOfBytes": "20"
					},
					"t_bool": {
						"encoding": "inplace",
						"label": "bool",
						"numberOfBytes": "1"
					},
					"t_bytes1": {
						"encoding": "inplace",
						"label": "bytes1",
						"numberOfBytes": "1"
					},
					"t_bytes32": {
						"encoding": "inplace",
						"label": "bytes32",
						"numberOfBytes": "32"
					},
					"t_bytes4": {
						"encoding": "inplace",
						"label": "bytes4",
						"numberOfBytes": "4"
					},
					"t_int256": {
						"encoding": "inplace",
						"label": "int256",
						"numberOfBytes": "32"
					},
					"t_int8": {
						"encoding": "inplace",
						"label": "int8",
						"numberOfBytes": "1"
					},
					"t_string_storage": {
						"encoding": "bytes",
						"label": "string",
						"numberOfBytes": "32"
					},
					"t_uint256": {
						"encoding": "inplace",
						"label": "uint256",
						"numberOfBytes": "32"
					},
					"t_uint8": {
						"encoding": "inplace",
						"label": "uint8",
						"numberOfBytes": "1"
					}
				}
			},
			"userdoc": {
				"kind": "user",
				"methods": {},
				"version": 1
			}
		}
	}
}