{
	"contracts/first_contract.sol": {
		"variables_modifiers": {
			"abi": [
				{
					"inputs": [],
					"name": "addres_two",
					"outputs": [
						{
							"internalType": "address",
							"name": "",
							"type": "address"
						}
					],
					"stateMutability": "view",
					"type": "function"
				},
				{
					"inputs": [],
					"name": "address_one",
					"outputs": [
						{
							"internalType": "address",
							"name": "",
							"type": "address"
						}
					],
					"stateMutability": "view",
					"type": "function"
				},
				{
					"inputs": [],
					"name": "b",
					"outputs": [
						{
							"internalType": "uint8",
							"name": "",
							"type": "uint8"
						}
					],
					"stateMutability": "view",
					"type": "function"
				},
				{
					"inputs": [],
					"name": "bool_true",
					"outputs": [
						{
							"internalType": "bool",
							"name": "",
							"type": "bool"
						}
					],
					"stateMutability": "view",
					"type": "function"
				},
				{
					"inputs": [],
					"name": "displayState",
					"outputs": [
						{
							"internalType": "enum variables_modifiers.options",
							"name": "",
							"type": "uint8"
						}
					],
					"stateMutability": "view",
					"type": "function"
				},
				{
					"inputs": [],
					"name": "hashing",
					"outputs": [
						{
							"internalType": "bytes32",
							"name": "",
							"type": "bytes32"
						}
					],
					"stateMutability": "view",
					"type": "function"
				},
				{
					"inputs": [],
					"name": "hashing_ripemd160",
					"outputs": [
						{
							"internalType": "bytes20",
							"name": "",
							"type": "bytes20"
						}
					],
					"stateMutability": "view",
					"type": "function"
				},
				{
					"inputs": [],
					"name": "hashing_sha256",
					"outputs": [
						{
							"internalType": "bytes32",
							"name": "",
							"type": "bytes32"
						}
					],
					"stateMutability": "view",
					"type": "function"
				},
				{
					"inputs": [],
					"name": "str_public",
					"outputs": [
						{
							"internalType": "string",
							"name": "",
							"type": "string"
						}
					],
					"stateMutability": "view",
					"type": "function"
				},
				{
					"inputs": [],
					"name": "turnOf",
					"outputs": [],
					"stateMutability": "nonpayable",
					"type": "function"
				},
				{
					"inputs": [],
					"name": "turnOn",
					"outputs": [],
					"stateMutability": "nonpayable",
					"type": "function"
				}
			],
			"devdoc": {
				"kind": "dev",
				"methods": {},
				"version": 1
			},
			"evm": {
				"assembly": "    /* \"contracts/first_contract.sol\":60:1434  contract variables_modifiers {\r... */\n  mstore(0x40, 0x80)\n    /* \"contracts/first_contract.sol\":215:216  3 */\n  0x03\n    /* \"contracts/first_contract.sol\":198:216  uint8 public b = 3 */\n  0x01\n  exp(0x0100, 0x00)\n  dup2\n  sload\n  dup2\n  0xff\n  mul\n  not\n  and\n  swap1\n  dup4\n  0xff\n  and\n  mul\n  or\n  swap1\n  sstore\n  pop\n    /* \"contracts/first_contract.sol\":275:278  -32 */\n  0xffffffffffffffffffffffffffffffffffffffffffffffffffffffffffffffe0\n    /* \"contracts/first_contract.sol\":266:278  int8 d = -32 */\n  0x03\n  exp(0x0100, 0x00)\n  dup2\n  sload\n  dup2\n  0xff\n  mul\n  not\n  and\n  swap1\n  dup4\n  0x00\n  signextend\n  0xff\n  and\n  mul\n  or\n  swap1\n  sstore\n  pop\n    /* \"contracts/first_contract.sol\":293:295  65 */\n  0x41\n    /* \"contracts/first_contract.sol\":285:295  int e = 65 */\n  0x04\n  sstore\n    /* \"contracts/first_contract.sol\":337:379  string public str_public = \"String public\" */\n  mload(0x40)\n  dup1\n  0x40\n  add\n  0x40\n  mstore\n  dup1\n  0x0d\n  dup2\n  mstore\n  0x20\n  add\n  0x537472696e67207075626c696300000000000000000000000000000000000000\n  dup2\n  mstore\n  pop\n  0x06\n  swap1\n  dup1\n  mload\n  swap1\n  0x20\n  add\n  swap1\n  tag_1\n  swap3\n  swap2\n  swap1\n  tag_2\n  jump\t// in\ntag_1:\n  pop\n    /* \"contracts/first_contract.sol\":386:431  string private str_private = \"String Private\" */\n  mload(0x40)\n  dup1\n  0x40\n  add\n  0x40\n  mstore\n  dup1\n  0x0e\n  dup2\n  mstore\n  0x20\n  add\n  0x537472696e672050726976617465000000000000000000000000000000000000\n  dup2\n  mstore\n  pop\n  0x07\n  swap1\n  dup1\n  mload\n  swap1\n  0x20\n  add\n  swap1\n  tag_3\n  swap3\n  swap2\n  swap1\n  tag_2\n  jump\t// in\ntag_3:\n  pop\n    /* \"contracts/first_contract.sol\":498:502  true */\n  0x01\n    /* \"contracts/first_contract.sol\":474:502  bool public bool_true = true */\n  0x08\n  exp(0x0100, 0x01)\n  dup2\n  sload\n  dup2\n  0xff\n  mul\n  not\n  and\n  swap1\n  dup4\n  iszero\n  iszero\n  mul\n  or\n  swap1\n  sstore\n  pop\n    /* \"contracts/first_contract.sol\":535:540  false */\n  0x00\n    /* \"contracts/first_contract.sol\":509:540  bool private bool_false = false */\n  0x08\n  exp(0x0100, 0x02)\n  dup2\n  sload\n  dup2\n  0xff\n  mul\n  not\n  and\n  swap1\n  dup4\n  iszero\n  iszero\n  mul\n  or\n  swap1\n  sstore\n  pop\n    /* \"contracts/first_contract.sol\":696:726  abi.encodePacked(\"Hello word\") */\n  add(0x20, mload(0x40))\n  tag_4\n  swap1\n  tag_5\n  jump\t// in\ntag_4:\n  mload(0x40)\n  0x20\n  dup2\n  dup4\n  sub\n  sub\n  dup2\n  mstore\n  swap1\n  0x40\n  mstore\n    /* \"contracts/first_contract.sol\":686:727  keccak256(abi.encodePacked(\"Hello word\")) */\n  dup1\n  mload\n  swap1\n  0x20\n  add\n  keccak256\n    /* \"contracts/first_contract.sol\":661:727  bytes32 public hashing = keccak256(abi.encodePacked(\"Hello word\")) */\n  0x0b\n  sstore\n    /* \"contracts/first_contract.sol\":766:804  sha256(abi.encodePacked(\"Hello Word\")) */\n  0x02\n    /* \"contracts/first_contract.sol\":773:803  abi.encodePacked(\"Hello Word\") */\n  add(0x20, mload(0x40))\n  tag_6\n  swap1\n  tag_7\n  jump\t// in\ntag_6:\n  mload(0x40)\n  0x20\n  dup2\n  dup4\n  sub\n  sub\n  dup2\n  mstore\n  swap1\n  0x40\n  mstore\n    /* \"contracts/first_contract.sol\":766:804  sha256(abi.encodePacked(\"Hello Word\")) */\n  mload(0x40)\n  tag_8\n  swap2\n  swap1\n  tag_9\n  jump\t// in\ntag_8:\n  0x20\n  mload(0x40)\n  dup1\n  dup4\n  sub\n  dup2\n  dup6\n  gas\n  staticcall\n  iszero\n  dup1\n  iszero\n  tag_11\n  jumpi\n  returndatasize\n  0x00\n  dup1\n  returndatacopy\n  revert(0x00, returndatasize)\ntag_11:\n  pop\n  pop\n  pop\n  mload(0x40)\n  returndatasize\n  not(0x1f)\n  0x1f\n  dup3\n  add\n  and\n  dup3\n  add\n  dup1\n  0x40\n  mstore\n  pop\n  dup2\n  add\n  swap1\n  tag_12\n  swap2\n  swap1\n  tag_13\n  jump\t// in\ntag_12:\n    /* \"contracts/first_contract.sol\":734:804  bytes32 public hashing_sha256 = sha256(abi.encodePacked(\"Hello Word\")) */\n  0x0c\n  sstore\n    /* \"contracts/first_contract.sol\":846:887  ripemd160(abi.encodePacked(\"Hello Word\")) */\n  0x03\n    /* \"contracts/first_contract.sol\":856:886  abi.encodePacked(\"Hello Word\") */\n  add(0x20, mload(0x40))\n  tag_14\n  swap1\n  tag_7\n  jump\t// in\ntag_14:\n  mload(0x40)\n  0x20\n  dup2\n  dup4\n  sub\n  sub\n  dup2\n  mstore\n  swap1\n  0x40\n  mstore\n    /* \"contracts/first_contract.sol\":846:887  ripemd160(abi.encodePacked(\"Hello Word\")) */\n  mload(0x40)\n  tag_15\n  swap2\n  swap1\n  tag_9\n  jump\t// in\ntag_15:\n  0x20\n  mload(0x40)\n  dup1\n  dup4\n  sub\n  dup2\n  dup6\n  gas\n  staticcall\n  iszero\n  dup1\n  iszero\n  tag_17\n  jumpi\n  returndatasize\n  0x00\n  dup1\n  returndatacopy\n  revert(0x00, returndatasize)\ntag_17:\n  pop\n  pop\n  pop\n  shl(0x60, mload(mload(0x40)))\n    /* \"contracts/first_contract.sol\":811:887  bytes20 public hashing_ripemd160 = ripemd160(abi.encodePacked(\"Hello Word\")) */\n  0x0d\n  exp(0x0100, 0x00)\n  dup2\n  sload\n  dup2\n  0xffffffffffffffffffffffffffffffffffffffff\n  mul\n  not\n  and\n  swap1\n  dup4\n  0x60\n  shr\n  mul\n  or\n  swap1\n  sstore\n  pop\n    /* \"contracts/first_contract.sol\":966:1008  0x5B38Da6a701c568545dCfcB03FcB875f56beddC4 */\n  0x5b38da6a701c568545dcfcb03fcb875f56beddc4\n    /* \"contracts/first_contract.sol\":937:1008  address public address_one = 0x5B38Da6a701c568545dCfcB03FcB875f56beddC4 */\n  0x0f\n  exp(0x0100, 0x00)\n  dup2\n  sload\n  dup2\n  0xffffffffffffffffffffffffffffffffffffffff\n  mul\n  not\n  and\n  swap1\n  dup4\n  0xffffffffffffffffffffffffffffffffffffffff\n  and\n  mul\n  or\n  swap1\n  sstore\n  pop\n    /* \"contracts/first_contract.sol\":1043:1053  msg.sender */\n  caller\n    /* \"contracts/first_contract.sol\":1015:1053  address public addres_two = msg.sender */\n  0x10\n  exp(0x0100, 0x00)\n  dup2\n  sload\n  dup2\n  0xffffffffffffffffffffffffffffffffffffffff\n  mul\n  not\n  and\n  swap1\n  dup4\n  0xffffffffffffffffffffffffffffffffffffffff\n  and\n  mul\n  or\n  swap1\n  sstore\n  pop\n    /* \"contracts/first_contract.sol\":60:1434  contract variables_modifiers {\r... */\n  callvalue\n  dup1\n  iszero\n  tag_18\n  jumpi\n  0x00\n  dup1\n  revert\ntag_18:\n  pop\n  jump(tag_19)\ntag_2:\n  dup3\n  dup1\n  sload\n  tag_20\n  swap1\n  tag_21\n  jump\t// in\ntag_20:\n  swap1\n  0x00\n  mstore\n  keccak256(0x00, 0x20)\n  swap1\n  0x1f\n  add\n  0x20\n  swap1\n  div\n  dup2\n  add\n  swap3\n  dup3\n  tag_23\n  jumpi\n  0x00\n  dup6\n  sstore\n  jump(tag_22)\ntag_23:\n  dup3\n  0x1f\n  lt\n  tag_24\n  jumpi\n  dup1\n  mload\n  not(0xff)\n  and\n  dup4\n  dup1\n  add\n  or\n  dup6\n  sstore\n  jump(tag_22)\ntag_24:\n  dup3\n  dup1\n  add\n  0x01\n  add\n  dup6\n  sstore\n  dup3\n  iszero\n  tag_22\n  jumpi\n  swap2\n  dup3\n  add\ntag_25:\n  dup3\n  dup2\n  gt\n  iszero\n  tag_26\n  jumpi\n  dup3\n  mload\n  dup3\n  sstore\n  swap2\n  0x20\n  add\n  swap2\n  swap1\n  0x01\n  add\n  swap1\n  jump(tag_25)\ntag_26:\ntag_22:\n  pop\n  swap1\n  pop\n  tag_27\n  swap2\n  swap1\n  tag_28\n  jump\t// in\ntag_27:\n  pop\n  swap1\n  jump\t// out\ntag_28:\ntag_29:\n  dup1\n  dup3\n  gt\n  iszero\n  tag_30\n  jumpi\n  0x00\n  dup2\n  0x00\n  swap1\n  sstore\n  pop\n  0x01\n  add\n  jump(tag_29)\ntag_30:\n  pop\n  swap1\n  jump\t// out\n    /* \"#utility.yul\":7:150   */\ntag_32:\n    /* \"#utility.yul\":64:69   */\n  0x00\n    /* \"#utility.yul\":95:101   */\n  dup2\n    /* \"#utility.yul\":89:102   */\n  mload\n    /* \"#utility.yul\":80:102   */\n  swap1\n  pop\n    /* \"#utility.yul\":111:144   */\n  tag_34\n    /* \"#utility.yul\":138:143   */\n  dup2\n    /* \"#utility.yul\":111:144   */\n  tag_35\n  jump\t// in\ntag_34:\n    /* \"#utility.yul\":7:150   */\n  swap3\n  swap2\n  pop\n  pop\n  jump\t// out\n    /* \"#utility.yul\":156:507   */\ntag_13:\n    /* \"#utility.yul\":226:232   */\n  0x00\n    /* \"#utility.yul\":275:277   */\n  0x20\n    /* \"#utility.yul\":263:272   */\n  dup3\n    /* \"#utility.yul\":254:261   */\n  dup5\n    /* \"#utility.yul\":250:273   */\n  sub\n    /* \"#utility.yul\":246:278   */\n  slt\n    /* \"#utility.yul\":243:362   */\n  iszero\n  tag_37\n  jumpi\n    /* \"#utility.yul\":281:360   */\n  tag_38\n  tag_39\n  jump\t// in\ntag_38:\n    /* \"#utility.yul\":243:362   */\ntag_37:\n    /* \"#utility.yul\":401:402   */\n  0x00\n    /* \"#utility.yul\":426:490   */\n  tag_40\n    /* \"#utility.yul\":482:489   */\n  dup5\n    /* \"#utility.yul\":473:479   */\n  dup3\n    /* \"#utility.yul\":462:471   */\n  dup6\n    /* \"#utility.yul\":458:480   */\n  add\n    /* \"#utility.yul\":426:490   */\n  tag_32\n  jump\t// in\ntag_40:\n    /* \"#utility.yul\":416:490   */\n  swap2\n  pop\n    /* \"#utility.yul\":372:500   */\n  pop\n    /* \"#utility.yul\":156:507   */\n  swap3\n  swap2\n  pop\n  pop\n  jump\t// out\n    /* \"#utility.yul\":513:886   */\ntag_41:\n    /* \"#utility.yul\":617:620   */\n  0x00\n    /* \"#utility.yul\":645:683   */\n  tag_43\n    /* \"#utility.yul\":677:682   */\n  dup3\n    /* \"#utility.yul\":645:683   */\n  tag_44\n  jump\t// in\ntag_43:\n    /* \"#utility.yul\":699:787   */\n  tag_45\n    /* \"#utility.yul\":780:786   */\n  dup2\n    /* \"#utility.yul\":775:778   */\n  dup6\n    /* \"#utility.yul\":699:787   */\n  tag_46\n  jump\t// in\ntag_45:\n    /* \"#utility.yul\":692:787   */\n  swap4\n  pop\n    /* \"#utility.yul\":796:848   */\n  tag_47\n    /* \"#utility.yul\":841:847   */\n  dup2\n    /* \"#utility.yul\":836:839   */\n  dup6\n    /* \"#utility.yul\":829:833   */\n  0x20\n    /* \"#utility.yul\":822:827   */\n  dup7\n    /* \"#utility.yul\":818:834   */\n  add\n    /* \"#utility.yul\":796:848   */\n  tag_48\n  jump\t// in\ntag_47:\n    /* \"#utility.yul\":873:879   */\n  dup1\n    /* \"#utility.yul\":868:871   */\n  dup5\n    /* \"#utility.yul\":864:880   */\n  add\n    /* \"#utility.yul\":857:880   */\n  swap2\n  pop\n    /* \"#utility.yul\":621:886   */\n  pop\n    /* \"#utility.yul\":513:886   */\n  swap3\n  swap2\n  pop\n  pop\n  jump\t// out\n    /* \"#utility.yul\":892:1294   */\ntag_49:\n    /* \"#utility.yul\":1052:1055   */\n  0x00\n    /* \"#utility.yul\":1073:1158   */\n  tag_51\n    /* \"#utility.yul\":1155:1157   */\n  0x0a\n    /* \"#utility.yul\":1150:1153   */\n  dup4\n    /* \"#utility.yul\":1073:1158   */\n  tag_52\n  jump\t// in\ntag_51:\n    /* \"#utility.yul\":1066:1158   */\n  swap2\n  pop\n    /* \"#utility.yul\":1167:1260   */\n  tag_53\n    /* \"#utility.yul\":1256:1259   */\n  dup3\n    /* \"#utility.yul\":1167:1260   */\n  tag_54\n  jump\t// in\ntag_53:\n    /* \"#utility.yul\":1285:1287   */\n  0x0a\n    /* \"#utility.yul\":1280:1283   */\n  dup3\n    /* \"#utility.yul\":1276:1288   */\n  add\n    /* \"#utility.yul\":1269:1288   */\n  swap1\n  pop\n    /* \"#utility.yul\":892:1294   */\n  swap2\n  swap1\n  pop\n  jump\t// out\n    /* \"#utility.yul\":1300:1702   */\ntag_55:\n    /* \"#utility.yul\":1460:1463   */\n  0x00\n    /* \"#utility.yul\":1481:1566   */\n  tag_57\n    /* \"#utility.yul\":1563:1565   */\n  0x0a\n    /* \"#utility.yul\":1558:1561   */\n  dup4\n    /* \"#utility.yul\":1481:1566   */\n  tag_52\n  jump\t// in\ntag_57:\n    /* \"#utility.yul\":1474:1566   */\n  swap2\n  pop\n    /* \"#utility.yul\":1575:1668   */\n  tag_58\n    /* \"#utility.yul\":1664:1667   */\n  dup3\n    /* \"#utility.yul\":1575:1668   */\n  tag_59\n  jump\t// in\ntag_58:\n    /* \"#utility.yul\":1693:1695   */\n  0x0a\n    /* \"#utility.yul\":1688:1691   */\n  dup3\n    /* \"#utility.yul\":1684:1696   */\n  add\n    /* \"#utility.yul\":1677:1696   */\n  swap1\n  pop\n    /* \"#utility.yul\":1300:1702   */\n  swap2\n  swap1\n  pop\n  jump\t// out\n    /* \"#utility.yul\":1708:1979   */\ntag_9:\n    /* \"#utility.yul\":1838:1841   */\n  0x00\n    /* \"#utility.yul\":1860:1953   */\n  tag_61\n    /* \"#utility.yul\":1949:1952   */\n  dup3\n    /* \"#utility.yul\":1940:1946   */\n  dup5\n    /* \"#utility.yul\":1860:1953   */\n  tag_41\n  jump\t// in\ntag_61:\n    /* \"#utility.yul\":1853:1953   */\n  swap2\n  pop\n    /* \"#utility.yul\":1970:1973   */\n  dup2\n    /* \"#utility.yul\":1963:1973   */\n  swap1\n  pop\n    /* \"#utility.yul\":1708:1979   */\n  swap3\n  swap2\n  pop\n  pop\n  jump\t// out\n    /* \"#utility.yul\":1985:2366   */\ntag_5:\n    /* \"#utility.yul\":2170:2173   */\n  0x00\n    /* \"#utility.yul\":2192:2340   */\n  tag_63\n    /* \"#utility.yul\":2336:2339   */\n  dup3\n    /* \"#utility.yul\":2192:2340   */\n  tag_49\n  jump\t// in\ntag_63:\n    /* \"#utility.yul\":2185:2340   */\n  swap2\n  pop\n    /* \"#utility.yul\":2357:2360   */\n  dup2\n    /* \"#utility.yul\":2350:2360   */\n  swap1\n  pop\n    /* \"#utility.yul\":1985:2366   */\n  swap2\n  swap1\n  pop\n  jump\t// out\n    /* \"#utility.yul\":2372:2753   */\ntag_7:\n    /* \"#utility.yul\":2557:2560   */\n  0x00\n    /* \"#utility.yul\":2579:2727   */\n  tag_65\n    /* \"#utility.yul\":2723:2726   */\n  dup3\n    /* \"#utility.yul\":2579:2727   */\n  tag_55\n  jump\t// in\ntag_65:\n    /* \"#utility.yul\":2572:2727   */\n  swap2\n  pop\n    /* \"#utility.yul\":2744:2747   */\n  dup2\n    /* \"#utility.yul\":2737:2747   */\n  swap1\n  pop\n    /* \"#utility.yul\":2372:2753   */\n  swap2\n  swap1\n  pop\n  jump\t// out\n    /* \"#utility.yul\":2840:2938   */\ntag_44:\n    /* \"#utility.yul\":2891:2897   */\n  0x00\n    /* \"#utility.yul\":2925:2930   */\n  dup2\n    /* \"#utility.yul\":2919:2931   */\n  mload\n    /* \"#utility.yul\":2909:2931   */\n  swap1\n  pop\n    /* \"#utility.yul\":2840:2938   */\n  swap2\n  swap1\n  pop\n  jump\t// out\n    /* \"#utility.yul\":2944:3091   */\ntag_46:\n    /* \"#utility.yul\":3045:3056   */\n  0x00\n    /* \"#utility.yul\":3082:3085   */\n  dup2\n    /* \"#utility.yul\":3067:3085   */\n  swap1\n  pop\n    /* \"#utility.yul\":2944:3091   */\n  swap3\n  swap2\n  pop\n  pop\n  jump\t// out\n    /* \"#utility.yul\":3097:3245   */\ntag_52:\n    /* \"#utility.yul\":3199:3210   */\n  0x00\n    /* \"#utility.yul\":3236:3239   */\n  dup2\n    /* \"#utility.yul\":3221:3239   */\n  swap1\n  pop\n    /* \"#utility.yul\":3097:3245   */\n  swap3\n  swap2\n  pop\n  pop\n  jump\t// out\n    /* \"#utility.yul\":3251:3328   */\ntag_71:\n    /* \"#utility.yul\":3288:3295   */\n  0x00\n    /* \"#utility.yul\":3317:3322   */\n  dup2\n    /* \"#utility.yul\":3306:3322   */\n  swap1\n  pop\n    /* \"#utility.yul\":3251:3328   */\n  swap2\n  swap1\n  pop\n  jump\t// out\n    /* \"#utility.yul\":3334:3641   */\ntag_48:\n    /* \"#utility.yul\":3402:3403   */\n  0x00\n    /* \"#utility.yul\":3412:3525   */\ntag_74:\n    /* \"#utility.yul\":3426:3432   */\n  dup4\n    /* \"#utility.yul\":3423:3424   */\n  dup2\n    /* \"#utility.yul\":3420:3433   */\n  lt\n    /* \"#utility.yul\":3412:3525   */\n  iszero\n  tag_76\n  jumpi\n    /* \"#utility.yul\":3511:3512   */\n  dup1\n    /* \"#utility.yul\":3506:3509   */\n  dup3\n    /* \"#utility.yul\":3502:3513   */\n  add\n    /* \"#utility.yul\":3496:3514   */\n  mload\n    /* \"#utility.yul\":3492:3493   */\n  dup2\n    /* \"#utility.yul\":3487:3490   */\n  dup5\n    /* \"#utility.yul\":3483:3494   */\n  add\n    /* \"#utility.yul\":3476:3515   */\n  mstore\n    /* \"#utility.yul\":3448:3450   */\n  0x20\n    /* \"#utility.yul\":3445:3446   */\n  dup2\n    /* \"#utility.yul\":3441:3451   */\n  add\n    /* \"#utility.yul\":3436:3451   */\n  swap1\n  pop\n    /* \"#utility.yul\":3412:3525   */\n  jump(tag_74)\ntag_76:\n    /* \"#utility.yul\":3543:3549   */\n  dup4\n    /* \"#utility.yul\":3540:3541   */\n  dup2\n    /* \"#utility.yul\":3537:3550   */\n  gt\n    /* \"#utility.yul\":3534:3635   */\n  iszero\n  tag_77\n  jumpi\n    /* \"#utility.yul\":3623:3624   */\n  0x00\n    /* \"#utility.yul\":3614:3620   */\n  dup5\n    /* \"#utility.yul\":3609:3612   */\n  dup5\n    /* \"#utility.yul\":3605:3621   */\n  add\n    /* \"#utility.yul\":3598:3625   */\n  mstore\n    /* \"#utility.yul\":3534:3635   */\ntag_77:\n    /* \"#utility.yul\":3383:3641   */\n  pop\n    /* \"#utility.yul\":3334:3641   */\n  pop\n  pop\n  pop\n  jump\t// out\n    /* \"#utility.yul\":3647:3967   */\ntag_21:\n    /* \"#utility.yul\":3691:3697   */\n  0x00\n    /* \"#utility.yul\":3728:3729   */\n  0x02\n    /* \"#utility.yul\":3722:3726   */\n  dup3\n    /* \"#utility.yul\":3718:3730   */\n  div\n    /* \"#utility.yul\":3708:3730   */\n  swap1\n  pop\n    /* \"#utility.yul\":3775:3776   */\n  0x01\n    /* \"#utility.yul\":3769:3773   */\n  dup3\n    /* \"#utility.yul\":3765:3777   */\n  and\n    /* \"#utility.yul\":3796:3814   */\n  dup1\n    /* \"#utility.yul\":3786:3867   */\n  tag_79\n  jumpi\n    /* \"#utility.yul\":3852:3856   */\n  0x7f\n    /* \"#utility.yul\":3844:3850   */\n  dup3\n    /* \"#utility.yul\":3840:3857   */\n  and\n    /* \"#utility.yul\":3830:3857   */\n  swap2\n  pop\n    /* \"#utility.yul\":3786:3867   */\ntag_79:\n    /* \"#utility.yul\":3914:3916   */\n  0x20\n    /* \"#utility.yul\":3906:3912   */\n  dup3\n    /* \"#utility.yul\":3903:3917   */\n  lt\n    /* \"#utility.yul\":3883:3901   */\n  dup2\n    /* \"#utility.yul\":3880:3918   */\n  eq\n    /* \"#utility.yul\":3877:3961   */\n  iszero\n  tag_80\n  jumpi\n    /* \"#utility.yul\":3933:3951   */\n  tag_81\n  tag_82\n  jump\t// in\ntag_81:\n    /* \"#utility.yul\":3877:3961   */\ntag_80:\n    /* \"#utility.yul\":3698:3967   */\n  pop\n    /* \"#utility.yul\":3647:3967   */\n  swap2\n  swap1\n  pop\n  jump\t// out\n    /* \"#utility.yul\":3973:4153   */\ntag_82:\n    /* \"#utility.yul\":4021:4098   */\n  0x4e487b7100000000000000000000000000000000000000000000000000000000\n    /* \"#utility.yul\":4018:4019   */\n  0x00\n    /* \"#utility.yul\":4011:4099   */\n  mstore\n    /* \"#utility.yul\":4118:4122   */\n  0x22\n    /* \"#utility.yul\":4115:4116   */\n  0x04\n    /* \"#utility.yul\":4108:4123   */\n  mstore\n    /* \"#utility.yul\":4142:4146   */\n  0x24\n    /* \"#utility.yul\":4139:4140   */\n  0x00\n    /* \"#utility.yul\":4132:4147   */\n  revert\n    /* \"#utility.yul\":4282:4399   */\ntag_39:\n    /* \"#utility.yul\":4391:4392   */\n  0x00\n    /* \"#utility.yul\":4388:4389   */\n  dup1\n    /* \"#utility.yul\":4381:4393   */\n  revert\n    /* \"#utility.yul\":4405:4565   */\ntag_54:\n    /* \"#utility.yul\":4545:4557   */\n  0x48656c6c6f20776f726400000000000000000000000000000000000000000000\n    /* \"#utility.yul\":4541:4542   */\n  0x00\n    /* \"#utility.yul\":4533:4539   */\n  dup3\n    /* \"#utility.yul\":4529:4543   */\n  add\n    /* \"#utility.yul\":4522:4558   */\n  mstore\n    /* \"#utility.yul\":4405:4565   */\n  pop\n  jump\t// out\n    /* \"#utility.yul\":4571:4731   */\ntag_59:\n    /* \"#utility.yul\":4711:4723   */\n  0x48656c6c6f20576f726400000000000000000000000000000000000000000000\n    /* \"#utility.yul\":4707:4708   */\n  0x00\n    /* \"#utility.yul\":4699:4705   */\n  dup3\n    /* \"#utility.yul\":4695:4709   */\n  add\n    /* \"#utility.yul\":4688:4724   */\n  mstore\n    /* \"#utility.yul\":4571:4731   */\n  pop\n  jump\t// out\n    /* \"#utility.yul\":4737:4859   */\ntag_35:\n    /* \"#utility.yul\":4810:4834   */\n  tag_90\n    /* \"#utility.yul\":4828:4833   */\n  dup2\n    /* \"#utility.yul\":4810:4834   */\n  tag_71\n  jump\t// in\ntag_90:\n    /* \"#utility.yul\":4803:4808   */\n  dup2\n    /* \"#utility.yul\":4800:4835   */\n  eq\n    /* \"#utility.yul\":4790:4853   */\n  tag_91\n  jumpi\n    /* \"#utility.yul\":4849:4850   */\n  0x00\n    /* \"#utility.yul\":4846:4847   */\n  dup1\n    /* \"#utility.yul\":4839:4851   */\n  revert\n    /* \"#utility.yul\":4790:4853   */\ntag_91:\n    /* \"#utility.yul\":4737:4859   */\n  pop\n  jump\t// out\n    /* \"contracts/first_contract.sol\":60:1434  contract variables_modifiers {\r... */\ntag_19:\n  dataSize(sub_0)\n  dup1\n  dataOffset(sub_0)\n  0x00\n  codecopy\n  0x00\n  return\nstop\n\nsub_0: assembly {\n        /* \"contracts/first_contract.sol\":60:1434  contract variables_modifiers {\r... */\n      mstore(0x40, 0x80)\n      callvalue\n      dup1\n      iszero\n      tag_1\n      jumpi\n      0x00\n      dup1\n      revert\n    tag_1:\n      pop\n      jumpi(tag_2, lt(calldatasize, 0x04))\n      shr(0xe0, calldataload(0x00))\n      dup1\n      0xb654b765\n      gt\n      tag_14\n      jumpi\n      dup1\n      0xb654b765\n      eq\n      tag_8\n      jumpi\n      dup1\n      0xb83d07b7\n      eq\n      tag_9\n      jumpi\n      dup1\n      0xba33ed7d\n      eq\n      tag_10\n      jumpi\n      dup1\n      0xc7109d04\n      eq\n      tag_11\n      jumpi\n      dup1\n      0xcd97d84e\n      eq\n      tag_12\n      jumpi\n      dup1\n      0xe2bed7b4\n      eq\n      tag_13\n      jumpi\n      jump(tag_2)\n    tag_14:\n      dup1\n      0x4df7e3d0\n      eq\n      tag_3\n      jumpi\n      dup1\n      0x5760fa05\n      eq\n      tag_4\n      jumpi\n      dup1\n      0x5f7d462e\n      eq\n      tag_5\n      jumpi\n      dup1\n      0x7272eea1\n      eq\n      tag_6\n      jumpi\n      dup1\n      0x7a68ef7f\n      eq\n      tag_7\n      jumpi\n    tag_2:\n      0x00\n      dup1\n      revert\n        /* \"contracts/first_contract.sol\":198:216  uint8 public b = 3 */\n    tag_3:\n      tag_15\n      tag_16\n      jump\t// in\n    tag_15:\n      mload(0x40)\n      tag_17\n      swap2\n      swap1\n      tag_18\n      jump\t// in\n    tag_17:\n      mload(0x40)\n      dup1\n      swap2\n      sub\n      swap1\n      return\n        /* \"contracts/first_contract.sol\":474:502  bool public bool_true = true */\n    tag_4:\n      tag_19\n      tag_20\n      jump\t// in\n    tag_19:\n      mload(0x40)\n      tag_21\n      swap2\n      swap1\n      tag_22\n      jump\t// in\n    tag_21:\n      mload(0x40)\n      dup1\n      swap2\n      sub\n      swap1\n      return\n        /* \"contracts/first_contract.sol\":1015:1053  address public addres_two = msg.sender */\n    tag_5:\n      tag_23\n      tag_24\n      jump\t// in\n    tag_23:\n      mload(0x40)\n      tag_25\n      swap2\n      swap1\n      tag_26\n      jump\t// in\n    tag_25:\n      mload(0x40)\n      dup1\n      swap2\n      sub\n      swap1\n      return\n        /* \"contracts/first_contract.sol\":1343:1427  function displayState() public view returns (options){\r... */\n    tag_6:\n      tag_27\n      tag_28\n      jump\t// in\n    tag_27:\n      mload(0x40)\n      tag_29\n      swap2\n      swap1\n      tag_30\n      jump\t// in\n    tag_29:\n      mload(0x40)\n      dup1\n      swap2\n      sub\n      swap1\n      return\n        /* \"contracts/first_contract.sol\":811:887  bytes20 public hashing_ripemd160 = ripemd160(abi.encodePacked(\"Hello Word\")) */\n    tag_7:\n      tag_31\n      tag_32\n      jump\t// in\n    tag_31:\n      mload(0x40)\n      tag_33\n      swap2\n      swap1\n      tag_34\n      jump\t// in\n    tag_33:\n      mload(0x40)\n      dup1\n      swap2\n      sub\n      swap1\n      return\n        /* \"contracts/first_contract.sol\":1272:1335  function turnOf() public {\r... */\n    tag_8:\n      tag_35\n      tag_36\n      jump\t// in\n    tag_35:\n      stop\n        /* \"contracts/first_contract.sol\":337:379  string public str_public = \"String public\" */\n    tag_9:\n      tag_37\n      tag_38\n      jump\t// in\n    tag_37:\n      mload(0x40)\n      tag_39\n      swap2\n      swap1\n      tag_40\n      jump\t// in\n    tag_39:\n      mload(0x40)\n      dup1\n      swap2\n      sub\n      swap1\n      return\n        /* \"contracts/first_contract.sol\":1202:1264  function turnOn() public {\r... */\n    tag_10:\n      tag_41\n      tag_42\n      jump\t// in\n    tag_41:\n      stop\n        /* \"contracts/first_contract.sol\":734:804  bytes32 public hashing_sha256 = sha256(abi.encodePacked(\"Hello Word\")) */\n    tag_11:\n      tag_43\n      tag_44\n      jump\t// in\n    tag_43:\n      mload(0x40)\n      tag_45\n      swap2\n      swap1\n      tag_46\n      jump\t// in\n    tag_45:\n      mload(0x40)\n      dup1\n      swap2\n      sub\n      swap1\n      return\n        /* \"contracts/first_contract.sol\":661:727  bytes32 public hashing = keccak256(abi.encodePacked(\"Hello word\")) */\n    tag_12:\n      tag_47\n      tag_48\n      jump\t// in\n    tag_47:\n      mload(0x40)\n      tag_49\n      swap2\n      swap1\n      tag_46\n      jump\t// in\n    tag_49:\n      mload(0x40)\n      dup1\n      swap2\n      sub\n      swap1\n      return\n        /* \"contracts/first_contract.sol\":937:1008  address public address_one = 0x5B38Da6a701c568545dCfcB03FcB875f56beddC4 */\n    tag_13:\n      tag_50\n      tag_51\n      jump\t// in\n    tag_50:\n      mload(0x40)\n      tag_52\n      swap2\n      swap1\n      tag_26\n      jump\t// in\n    tag_52:\n      mload(0x40)\n      dup1\n      swap2\n      sub\n      swap1\n      return\n        /* \"contracts/first_contract.sol\":198:216  uint8 public b = 3 */\n    tag_16:\n      0x01\n      0x00\n      swap1\n      sload\n      swap1\n      0x0100\n      exp\n      swap1\n      div\n      0xff\n      and\n      dup2\n      jump\t// out\n        /* \"contracts/first_contract.sol\":474:502  bool public bool_true = true */\n    tag_20:\n      0x08\n      0x01\n      swap1\n      sload\n      swap1\n      0x0100\n      exp\n      swap1\n      div\n      0xff\n      and\n      dup2\n      jump\t// out\n        /* \"contracts/first_contract.sol\":1015:1053  address public addres_two = msg.sender */\n    tag_24:\n      0x10\n      0x00\n      swap1\n      sload\n      swap1\n      0x0100\n      exp\n      swap1\n      div\n      0xffffffffffffffffffffffffffffffffffffffff\n      and\n      dup2\n      jump\t// out\n        /* \"contracts/first_contract.sol\":1343:1427  function displayState() public view returns (options){\r... */\n    tag_28:\n        /* \"contracts/first_contract.sol\":1388:1395  options */\n      0x00\n        /* \"contracts/first_contract.sol\":1414:1419  state */\n      0x10\n      0x14\n      swap1\n      sload\n      swap1\n      0x0100\n      exp\n      swap1\n      div\n      0xff\n      and\n        /* \"contracts/first_contract.sol\":1407:1419  return state */\n      swap1\n      pop\n        /* \"contracts/first_contract.sol\":1343:1427  function displayState() public view returns (options){\r... */\n      swap1\n      jump\t// out\n        /* \"contracts/first_contract.sol\":811:887  bytes20 public hashing_ripemd160 = ripemd160(abi.encodePacked(\"Hello Word\")) */\n    tag_32:\n      0x0d\n      0x00\n      swap1\n      sload\n      swap1\n      0x0100\n      exp\n      swap1\n      div\n      0x60\n      shl\n      dup2\n      jump\t// out\n        /* \"contracts/first_contract.sol\":1272:1335  function turnOf() public {\r... */\n    tag_36:\n        /* \"contracts/first_contract.sol\":1316:1327  options.OFF */\n      0x01\n        /* \"contracts/first_contract.sol\":1308:1313  state */\n      0x10\n      0x14\n        /* \"contracts/first_contract.sol\":1308:1327  state = options.OFF */\n      0x0100\n      exp\n      dup2\n      sload\n      dup2\n      0xff\n      mul\n      not\n      and\n      swap1\n      dup4\n      0x01\n      dup2\n      gt\n      iszero\n      tag_55\n      jumpi\n      tag_56\n      tag_57\n      jump\t// in\n    tag_56:\n    tag_55:\n      mul\n      or\n      swap1\n      sstore\n      pop\n        /* \"contracts/first_contract.sol\":1272:1335  function turnOf() public {\r... */\n      jump\t// out\n        /* \"contracts/first_contract.sol\":337:379  string public str_public = \"String public\" */\n    tag_38:\n      0x06\n      dup1\n      sload\n      tag_58\n      swap1\n      tag_59\n      jump\t// in\n    tag_58:\n      dup1\n      0x1f\n      add\n      0x20\n      dup1\n      swap2\n      div\n      mul\n      0x20\n      add\n      mload(0x40)\n      swap1\n      dup2\n      add\n      0x40\n      mstore\n      dup1\n      swap3\n      swap2\n      swap1\n      dup2\n      dup2\n      mstore\n      0x20\n      add\n      dup3\n      dup1\n      sload\n      tag_60\n      swap1\n      tag_59\n      jump\t// in\n    tag_60:\n      dup1\n      iszero\n      tag_61\n      jumpi\n      dup1\n      0x1f\n      lt\n      tag_62\n      jumpi\n      0x0100\n      dup1\n      dup4\n      sload\n      div\n      mul\n      dup4\n      mstore\n      swap2\n      0x20\n      add\n      swap2\n      jump(tag_61)\n    tag_62:\n      dup3\n      add\n      swap2\n      swap1\n      0x00\n      mstore\n      keccak256(0x00, 0x20)\n      swap1\n    tag_63:\n      dup2\n      sload\n      dup2\n      mstore\n      swap1\n      0x01\n      add\n      swap1\n      0x20\n      add\n      dup1\n      dup4\n      gt\n      tag_63\n      jumpi\n      dup3\n      swap1\n      sub\n      0x1f\n      and\n      dup3\n      add\n      swap2\n    tag_61:\n      pop\n      pop\n      pop\n      pop\n      pop\n      dup2\n      jump\t// out\n        /* \"contracts/first_contract.sol\":1202:1264  function turnOn() public {\r... */\n    tag_42:\n        /* \"contracts/first_contract.sol\":1246:1256  options.ON */\n      0x00\n        /* \"contracts/first_contract.sol\":1238:1243  state */\n      0x10\n      0x14\n        /* \"contracts/first_contract.sol\":1238:1256  state = options.ON */\n      0x0100\n      exp\n      dup2\n      sload\n      dup2\n      0xff\n      mul\n      not\n      and\n      swap1\n      dup4\n      0x01\n      dup2\n      gt\n      iszero\n      tag_65\n      jumpi\n      tag_66\n      tag_57\n      jump\t// in\n    tag_66:\n    tag_65:\n      mul\n      or\n      swap1\n      sstore\n      pop\n        /* \"contracts/first_contract.sol\":1202:1264  function turnOn() public {\r... */\n      jump\t// out\n        /* \"contracts/first_contract.sol\":734:804  bytes32 public hashing_sha256 = sha256(abi.encodePacked(\"Hello Word\")) */\n    tag_44:\n      sload(0x0c)\n      dup2\n      jump\t// out\n        /* \"contracts/first_contract.sol\":661:727  bytes32 public hashing = keccak256(abi.encodePacked(\"Hello word\")) */\n    tag_48:\n      sload(0x0b)\n      dup2\n      jump\t// out\n        /* \"contracts/first_contract.sol\":937:1008  address public address_one = 0x5B38Da6a701c568545dCfcB03FcB875f56beddC4 */\n    tag_51:\n      0x0f\n      0x00\n      swap1\n      sload\n      swap1\n      0x0100\n      exp\n      swap1\n      div\n      0xffffffffffffffffffffffffffffffffffffffff\n      and\n      dup2\n      jump\t// out\n        /* \"#utility.yul\":7:125   */\n    tag_68:\n        /* \"#utility.yul\":94:118   */\n      tag_70\n        /* \"#utility.yul\":112:117   */\n      dup2\n        /* \"#utility.yul\":94:118   */\n      tag_71\n      jump\t// in\n    tag_70:\n        /* \"#utility.yul\":89:92   */\n      dup3\n        /* \"#utility.yul\":82:119   */\n      mstore\n        /* \"#utility.yul\":7:125   */\n      pop\n      pop\n      jump\t// out\n        /* \"#utility.yul\":131:240   */\n    tag_72:\n        /* \"#utility.yul\":212:233   */\n      tag_74\n        /* \"#utility.yul\":227:232   */\n      dup2\n        /* \"#utility.yul\":212:233   */\n      tag_75\n      jump\t// in\n    tag_74:\n        /* \"#utility.yul\":207:210   */\n      dup3\n        /* \"#utility.yul\":200:234   */\n      mstore\n        /* \"#utility.yul\":131:240   */\n      pop\n      pop\n      jump\t// out\n        /* \"#utility.yul\":246:364   */\n    tag_76:\n        /* \"#utility.yul\":333:357   */\n      tag_78\n        /* \"#utility.yul\":351:356   */\n      dup2\n        /* \"#utility.yul\":333:357   */\n      tag_79\n      jump\t// in\n    tag_78:\n        /* \"#utility.yul\":328:331   */\n      dup3\n        /* \"#utility.yul\":321:358   */\n      mstore\n        /* \"#utility.yul\":246:364   */\n      pop\n      pop\n      jump\t// out\n        /* \"#utility.yul\":370:488   */\n    tag_80:\n        /* \"#utility.yul\":457:481   */\n      tag_82\n        /* \"#utility.yul\":475:480   */\n      dup2\n        /* \"#utility.yul\":457:481   */\n      tag_83\n      jump\t// in\n    tag_82:\n        /* \"#utility.yul\":452:455   */\n      dup3\n        /* \"#utility.yul\":445:482   */\n      mstore\n        /* \"#utility.yul\":370:488   */\n      pop\n      pop\n      jump\t// out\n        /* \"#utility.yul\":494:641   */\n    tag_84:\n        /* \"#utility.yul\":589:634   */\n      tag_86\n        /* \"#utility.yul\":628:633   */\n      dup2\n        /* \"#utility.yul\":589:634   */\n      tag_87\n      jump\t// in\n    tag_86:\n        /* \"#utility.yul\":584:587   */\n      dup3\n        /* \"#utility.yul\":577:635   */\n      mstore\n        /* \"#utility.yul\":494:641   */\n      pop\n      pop\n      jump\t// out\n        /* \"#utility.yul\":647:1011   */\n    tag_88:\n        /* \"#utility.yul\":735:738   */\n      0x00\n        /* \"#utility.yul\":763:802   */\n      tag_90\n        /* \"#utility.yul\":796:801   */\n      dup3\n        /* \"#utility.yul\":763:802   */\n      tag_91\n      jump\t// in\n    tag_90:\n        /* \"#utility.yul\":818:889   */\n      tag_92\n        /* \"#utility.yul\":882:888   */\n      dup2\n        /* \"#utility.yul\":877:880   */\n      dup6\n        /* \"#utility.yul\":818:889   */\n      tag_93\n      jump\t// in\n    tag_92:\n        /* \"#utility.yul\":811:889   */\n      swap4\n      pop\n        /* \"#utility.yul\":898:950   */\n      tag_94\n        /* \"#utility.yul\":943:949   */\n      dup2\n        /* \"#utility.yul\":938:941   */\n      dup6\n        /* \"#utility.yul\":931:935   */\n      0x20\n        /* \"#utility.yul\":924:929   */\n      dup7\n        /* \"#utility.yul\":920:936   */\n      add\n        /* \"#utility.yul\":898:950   */\n      tag_95\n      jump\t// in\n    tag_94:\n        /* \"#utility.yul\":975:1004   */\n      tag_96\n        /* \"#utility.yul\":997:1003   */\n      dup2\n        /* \"#utility.yul\":975:1004   */\n      tag_97\n      jump\t// in\n    tag_96:\n        /* \"#utility.yul\":970:973   */\n      dup5\n        /* \"#utility.yul\":966:1005   */\n      add\n        /* \"#utility.yul\":959:1005   */\n      swap2\n      pop\n        /* \"#utility.yul\":739:1011   */\n      pop\n        /* \"#utility.yul\":647:1011   */\n      swap3\n      swap2\n      pop\n      pop\n      jump\t// out\n        /* \"#utility.yul\":1017:1129   */\n    tag_98:\n        /* \"#utility.yul\":1100:1122   */\n      tag_100\n        /* \"#utility.yul\":1116:1121   */\n      dup2\n        /* \"#utility.yul\":1100:1122   */\n      tag_101\n      jump\t// in\n    tag_100:\n        /* \"#utility.yul\":1095:1098   */\n      dup3\n        /* \"#utility.yul\":1088:1123   */\n      mstore\n        /* \"#utility.yul\":1017:1129   */\n      pop\n      pop\n      jump\t// out\n        /* \"#utility.yul\":1135:1357   */\n    tag_26:\n        /* \"#utility.yul\":1228:1232   */\n      0x00\n        /* \"#utility.yul\":1266:1268   */\n      0x20\n        /* \"#utility.yul\":1255:1264   */\n      dup3\n        /* \"#utility.yul\":1251:1269   */\n      add\n        /* \"#utility.yul\":1243:1269   */\n      swap1\n      pop\n        /* \"#utility.yul\":1279:1350   */\n      tag_103\n        /* \"#utility.yul\":1347:1348   */\n      0x00\n        /* \"#utility.yul\":1336:1345   */\n      dup4\n        /* \"#utility.yul\":1332:1349   */\n      add\n        /* \"#utility.yul\":1323:1329   */\n      dup5\n        /* \"#utility.yul\":1279:1350   */\n      tag_68\n      jump\t// in\n    tag_103:\n        /* \"#utility.yul\":1135:1357   */\n      swap3\n      swap2\n      pop\n      pop\n      jump\t// out\n        /* \"#utility.yul\":1363:1573   */\n    tag_22:\n        /* \"#utility.yul\":1450:1454   */\n      0x00\n        /* \"#utility.yul\":1488:1490   */\n      0x20\n        /* \"#utility.yul\":1477:1486   */\n      dup3\n        /* \"#utility.yul\":1473:1491   */\n      add\n        /* \"#utility.yul\":1465:1491   */\n      swap1\n      pop\n        /* \"#utility.yul\":1501:1566   */\n      tag_105\n        /* \"#utility.yul\":1563:1564   */\n      0x00\n        /* \"#utility.yul\":1552:1561   */\n      dup4\n        /* \"#utility.yul\":1548:1565   */\n      add\n        /* \"#utility.yul\":1539:1545   */\n      dup5\n        /* \"#utility.yul\":1501:1566   */\n      tag_72\n      jump\t// in\n    tag_105:\n        /* \"#utility.yul\":1363:1573   */\n      swap3\n      swap2\n      pop\n      pop\n      jump\t// out\n        /* \"#utility.yul\":1579:1801   */\n    tag_34:\n        /* \"#utility.yul\":1672:1676   */\n      0x00\n        /* \"#utility.yul\":1710:1712   */\n      0x20\n        /* \"#utility.yul\":1699:1708   */\n      dup3\n        /* \"#utility.yul\":1695:1713   */\n      add\n        /* \"#utility.yul\":1687:1713   */\n      swap1\n      pop\n        /* \"#utility.yul\":1723:1794   */\n      tag_107\n        /* \"#utility.yul\":1791:1792   */\n      0x00\n        /* \"#utility.yul\":1780:1789   */\n      dup4\n        /* \"#utility.yul\":1776:1793   */\n      add\n        /* \"#utility.yul\":1767:1773   */\n      dup5\n        /* \"#utility.yul\":1723:1794   */\n      tag_76\n      jump\t// in\n    tag_107:\n        /* \"#utility.yul\":1579:1801   */\n      swap3\n      swap2\n      pop\n      pop\n      jump\t// out\n        /* \"#utility.yul\":1807:2029   */\n    tag_46:\n        /* \"#utility.yul\":1900:1904   */\n      0x00\n        /* \"#utility.yul\":1938:1940   */\n      0x20\n        /* \"#utility.yul\":1927:1936   */\n      dup3\n        /* \"#utility.yul\":1923:1941   */\n      add\n        /* \"#utility.yul\":1915:1941   */\n      swap1\n      pop\n        /* \"#utility.yul\":1951:2022   */\n      tag_109\n        /* \"#utility.yul\":2019:2020   */\n      0x00\n        /* \"#utility.yul\":2008:2017   */\n      dup4\n        /* \"#utility.yul\":2004:2021   */\n      add\n        /* \"#utility.yul\":1995:2001   */\n      dup5\n        /* \"#utility.yul\":1951:2022   */\n      tag_80\n      jump\t// in\n    tag_109:\n        /* \"#utility.yul\":1807:2029   */\n      swap3\n      swap2\n      pop\n      pop\n      jump\t// out\n        /* \"#utility.yul\":2035:2273   */\n    tag_30:\n        /* \"#utility.yul\":2136:2140   */\n      0x00\n        /* \"#utility.yul\":2174:2176   */\n      0x20\n        /* \"#utility.yul\":2163:2172   */\n      dup3\n        /* \"#utility.yul\":2159:2177   */\n      add\n        /* \"#utility.yul\":2151:2177   */\n      swap1\n      pop\n        /* \"#utility.yul\":2187:2266   */\n      tag_111\n        /* \"#utility.yul\":2263:2264   */\n      0x00\n        /* \"#utility.yul\":2252:2261   */\n      dup4\n        /* \"#utility.yul\":2248:2265   */\n      add\n        /* \"#utility.yul\":2239:2245   */\n      dup5\n        /* \"#utility.yul\":2187:2266   */\n      tag_84\n      jump\t// in\n    tag_111:\n        /* \"#utility.yul\":2035:2273   */\n      swap3\n      swap2\n      pop\n      pop\n      jump\t// out\n        /* \"#utility.yul\":2279:2592   */\n    tag_40:\n        /* \"#utility.yul\":2392:2396   */\n      0x00\n        /* \"#utility.yul\":2430:2432   */\n      0x20\n        /* \"#utility.yul\":2419:2428   */\n      dup3\n        /* \"#utility.yul\":2415:2433   */\n      add\n        /* \"#utility.yul\":2407:2433   */\n      swap1\n      pop\n        /* \"#utility.yul\":2479:2488   */\n      dup2\n        /* \"#utility.yul\":2473:2477   */\n      dup2\n        /* \"#utility.yul\":2469:2489   */\n      sub\n        /* \"#utility.yul\":2465:2466   */\n      0x00\n        /* \"#utility.yul\":2454:2463   */\n      dup4\n        /* \"#utility.yul\":2450:2467   */\n      add\n        /* \"#utility.yul\":2443:2490   */\n      mstore\n        /* \"#utility.yul\":2507:2585   */\n      tag_113\n        /* \"#utility.yul\":2580:2584   */\n      dup2\n        /* \"#utility.yul\":2571:2577   */\n      dup5\n        /* \"#utility.yul\":2507:2585   */\n      tag_88\n      jump\t// in\n    tag_113:\n        /* \"#utility.yul\":2499:2585   */\n      swap1\n      pop\n        /* \"#utility.yul\":2279:2592   */\n      swap3\n      swap2\n      pop\n      pop\n      jump\t// out\n        /* \"#utility.yul\":2598:2812   */\n    tag_18:\n        /* \"#utility.yul\":2687:2691   */\n      0x00\n        /* \"#utility.yul\":2725:2727   */\n      0x20\n        /* \"#utility.yul\":2714:2723   */\n      dup3\n        /* \"#utility.yul\":2710:2728   */\n      add\n        /* \"#utility.yul\":2702:2728   */\n      swap1\n      pop\n        /* \"#utility.yul\":2738:2805   */\n      tag_115\n        /* \"#utility.yul\":2802:2803   */\n      0x00\n        /* \"#utility.yul\":2791:2800   */\n      dup4\n        /* \"#utility.yul\":2787:2804   */\n      add\n        /* \"#utility.yul\":2778:2784   */\n      dup5\n        /* \"#utility.yul\":2738:2805   */\n      tag_98\n      jump\t// in\n    tag_115:\n        /* \"#utility.yul\":2598:2812   */\n      swap3\n      swap2\n      pop\n      pop\n      jump\t// out\n        /* \"#utility.yul\":2818:2917   */\n    tag_91:\n        /* \"#utility.yul\":2870:2876   */\n      0x00\n        /* \"#utility.yul\":2904:2909   */\n      dup2\n        /* \"#utility.yul\":2898:2910   */\n      mload\n        /* \"#utility.yul\":2888:2910   */\n      swap1\n      pop\n        /* \"#utility.yul\":2818:2917   */\n      swap2\n      swap1\n      pop\n      jump\t// out\n        /* \"#utility.yul\":2923:3092   */\n    tag_93:\n        /* \"#utility.yul\":3007:3018   */\n      0x00\n        /* \"#utility.yul\":3041:3047   */\n      dup3\n        /* \"#utility.yul\":3036:3039   */\n      dup3\n        /* \"#utility.yul\":3029:3048   */\n      mstore\n        /* \"#utility.yul\":3081:3085   */\n      0x20\n        /* \"#utility.yul\":3076:3079   */\n      dup3\n        /* \"#utility.yul\":3072:3086   */\n      add\n        /* \"#utility.yul\":3057:3086   */\n      swap1\n      pop\n        /* \"#utility.yul\":2923:3092   */\n      swap3\n      swap2\n      pop\n      pop\n      jump\t// out\n        /* \"#utility.yul\":3098:3194   */\n    tag_71:\n        /* \"#utility.yul\":3135:3142   */\n      0x00\n        /* \"#utility.yul\":3164:3188   */\n      tag_119\n        /* \"#utility.yul\":3182:3187   */\n      dup3\n        /* \"#utility.yul\":3164:3188   */\n      tag_120\n      jump\t// in\n    tag_119:\n        /* \"#utility.yul\":3153:3188   */\n      swap1\n      pop\n        /* \"#utility.yul\":3098:3194   */\n      swap2\n      swap1\n      pop\n      jump\t// out\n        /* \"#utility.yul\":3200:3290   */\n    tag_75:\n        /* \"#utility.yul\":3234:3241   */\n      0x00\n        /* \"#utility.yul\":3277:3282   */\n      dup2\n        /* \"#utility.yul\":3270:3283   */\n      iszero\n        /* \"#utility.yul\":3263:3284   */\n      iszero\n        /* \"#utility.yul\":3252:3284   */\n      swap1\n      pop\n        /* \"#utility.yul\":3200:3290   */\n      swap2\n      swap1\n      pop\n      jump\t// out\n        /* \"#utility.yul\":3296:3446   */\n    tag_79:\n        /* \"#utility.yul\":3333:3340   */\n      0x00\n        /* \"#utility.yul\":3373:3439   */\n      0xffffffffffffffffffffffffffffffffffffffff000000000000000000000000\n        /* \"#utility.yul\":3366:3371   */\n      dup3\n        /* \"#utility.yul\":3362:3440   */\n      and\n        /* \"#utility.yul\":3351:3440   */\n      swap1\n      pop\n        /* \"#utility.yul\":3296:3446   */\n      swap2\n      swap1\n      pop\n      jump\t// out\n        /* \"#utility.yul\":3452:3529   */\n    tag_83:\n        /* \"#utility.yul\":3489:3496   */\n      0x00\n        /* \"#utility.yul\":3518:3523   */\n      dup2\n        /* \"#utility.yul\":3507:3523   */\n      swap1\n      pop\n        /* \"#utility.yul\":3452:3529   */\n      swap2\n      swap1\n      pop\n      jump\t// out\n        /* \"#utility.yul\":3535:3666   */\n    tag_124:\n        /* \"#utility.yul\":3582:3589   */\n      0x00\n        /* \"#utility.yul\":3611:3616   */\n      dup2\n        /* \"#utility.yul\":3600:3616   */\n      swap1\n      pop\n        /* \"#utility.yul\":3617:3660   */\n      tag_126\n        /* \"#utility.yul\":3654:3659   */\n      dup3\n        /* \"#utility.yul\":3617:3660   */\n      tag_127\n      jump\t// in\n    tag_126:\n        /* \"#utility.yul\":3535:3666   */\n      swap2\n      swap1\n      pop\n      jump\t// out\n        /* \"#utility.yul\":3672:3798   */\n    tag_120:\n        /* \"#utility.yul\":3709:3716   */\n      0x00\n        /* \"#utility.yul\":3749:3791   */\n      0xffffffffffffffffffffffffffffffffffffffff\n        /* \"#utility.yul\":3742:3747   */\n      dup3\n        /* \"#utility.yul\":3738:3792   */\n      and\n        /* \"#utility.yul\":3727:3792   */\n      swap1\n      pop\n        /* \"#utility.yul\":3672:3798   */\n      swap2\n      swap1\n      pop\n      jump\t// out\n        /* \"#utility.yul\":3804:3890   */\n    tag_101:\n        /* \"#utility.yul\":3839:3846   */\n      0x00\n        /* \"#utility.yul\":3879:3883   */\n      0xff\n        /* \"#utility.yul\":3872:3877   */\n      dup3\n        /* \"#utility.yul\":3868:3884   */\n      and\n        /* \"#utility.yul\":3857:3884   */\n      swap1\n      pop\n        /* \"#utility.yul\":3804:3890   */\n      swap2\n      swap1\n      pop\n      jump\t// out\n        /* \"#utility.yul\":3896:4027   */\n    tag_87:\n        /* \"#utility.yul\":3954:3963   */\n      0x00\n        /* \"#utility.yul\":3987:4021   */\n      tag_131\n        /* \"#utility.yul\":4015:4020   */\n      dup3\n        /* \"#utility.yul\":3987:4021   */\n      tag_124\n      jump\t// in\n    tag_131:\n        /* \"#utility.yul\":3974:4021   */\n      swap1\n      pop\n        /* \"#utility.yul\":3896:4027   */\n      swap2\n      swap1\n      pop\n      jump\t// out\n        /* \"#utility.yul\":4033:4340   */\n    tag_95:\n        /* \"#utility.yul\":4101:4102   */\n      0x00\n        /* \"#utility.yul\":4111:4224   */\n    tag_133:\n        /* \"#utility.yul\":4125:4131   */\n      dup4\n        /* \"#utility.yul\":4122:4123   */\n      dup2\n        /* \"#utility.yul\":4119:4132   */\n      lt\n        /* \"#utility.yul\":4111:4224   */\n      iszero\n      tag_135\n      jumpi\n        /* \"#utility.yul\":4210:4211   */\n      dup1\n        /* \"#utility.yul\":4205:4208   */\n      dup3\n        /* \"#utility.yul\":4201:4212   */\n      add\n        /* \"#utility.yul\":4195:4213   */\n      mload\n        /* \"#utility.yul\":4191:4192   */\n      dup2\n        /* \"#utility.yul\":4186:4189   */\n      dup5\n        /* \"#utility.yul\":4182:4193   */\n      add\n        /* \"#utility.yul\":4175:4214   */\n      mstore\n        /* \"#utility.yul\":4147:4149   */\n      0x20\n        /* \"#utility.yul\":4144:4145   */\n      dup2\n        /* \"#utility.yul\":4140:4150   */\n      add\n        /* \"#utility.yul\":4135:4150   */\n      swap1\n      pop\n        /* \"#utility.yul\":4111:4224   */\n      jump(tag_133)\n    tag_135:\n        /* \"#utility.yul\":4242:4248   */\n      dup4\n        /* \"#utility.yul\":4239:4240   */\n      dup2\n        /* \"#utility.yul\":4236:4249   */\n      gt\n        /* \"#utility.yul\":4233:4334   */\n      iszero\n      tag_136\n      jumpi\n        /* \"#utility.yul\":4322:4323   */\n      0x00\n        /* \"#utility.yul\":4313:4319   */\n      dup5\n        /* \"#utility.yul\":4308:4311   */\n      dup5\n        /* \"#utility.yul\":4304:4320   */\n      add\n        /* \"#utility.yul\":4297:4324   */\n      mstore\n        /* \"#utility.yul\":4233:4334   */\n    tag_136:\n        /* \"#utility.yul\":4082:4340   */\n      pop\n        /* \"#utility.yul\":4033:4340   */\n      pop\n      pop\n      pop\n      jump\t// out\n        /* \"#utility.yul\":4346:4666   */\n    tag_59:\n        /* \"#utility.yul\":4390:4396   */\n      0x00\n        /* \"#utility.yul\":4427:4428   */\n      0x02\n        /* \"#utility.yul\":4421:4425   */\n      dup3\n        /* \"#utility.yul\":4417:4429   */\n      div\n        /* \"#utility.yul\":4407:4429   */\n      swap1\n      pop\n        /* \"#utility.yul\":4474:4475   */\n      0x01\n        /* \"#utility.yul\":4468:4472   */\n      dup3\n        /* \"#utility.yul\":4464:4476   */\n      and\n        /* \"#utility.yul\":4495:4513   */\n      dup1\n        /* \"#utility.yul\":4485:4566   */\n      tag_138\n      jumpi\n        /* \"#utility.yul\":4551:4555   */\n      0x7f\n        /* \"#utility.yul\":4543:4549   */\n      dup3\n        /* \"#utility.yul\":4539:4556   */\n      and\n        /* \"#utility.yul\":4529:4556   */\n      swap2\n      pop\n        /* \"#utility.yul\":4485:4566   */\n    tag_138:\n        /* \"#utility.yul\":4613:4615   */\n      0x20\n        /* \"#utility.yul\":4605:4611   */\n      dup3\n        /* \"#utility.yul\":4602:4616   */\n      lt\n        /* \"#utility.yul\":4582:4600   */\n      dup2\n        /* \"#utility.yul\":4579:4617   */\n      eq\n        /* \"#utility.yul\":4576:4660   */\n      iszero\n      tag_139\n      jumpi\n        /* \"#utility.yul\":4632:4650   */\n      tag_140\n      tag_141\n      jump\t// in\n    tag_140:\n        /* \"#utility.yul\":4576:4660   */\n    tag_139:\n        /* \"#utility.yul\":4397:4666   */\n      pop\n        /* \"#utility.yul\":4346:4666   */\n      swap2\n      swap1\n      pop\n      jump\t// out\n        /* \"#utility.yul\":4672:4852   */\n    tag_57:\n        /* \"#utility.yul\":4720:4797   */\n      0x4e487b7100000000000000000000000000000000000000000000000000000000\n        /* \"#utility.yul\":4717:4718   */\n      0x00\n        /* \"#utility.yul\":4710:4798   */\n      mstore\n        /* \"#utility.yul\":4817:4821   */\n      0x21\n        /* \"#utility.yul\":4814:4815   */\n      0x04\n        /* \"#utility.yul\":4807:4822   */\n      mstore\n        /* \"#utility.yul\":4841:4845   */\n      0x24\n        /* \"#utility.yul\":4838:4839   */\n      0x00\n        /* \"#utility.yul\":4831:4846   */\n      revert\n        /* \"#utility.yul\":4858:5038   */\n    tag_141:\n        /* \"#utility.yul\":4906:4983   */\n      0x4e487b7100000000000000000000000000000000000000000000000000000000\n        /* \"#utility.yul\":4903:4904   */\n      0x00\n        /* \"#utility.yul\":4896:4984   */\n      mstore\n        /* \"#utility.yul\":5003:5007   */\n      0x22\n        /* \"#utility.yul\":5000:5001   */\n      0x04\n        /* \"#utility.yul\":4993:5008   */\n      mstore\n        /* \"#utility.yul\":5027:5031   */\n      0x24\n        /* \"#utility.yul\":5024:5025   */\n      0x00\n        /* \"#utility.yul\":5017:5032   */\n      revert\n        /* \"#utility.yul\":5044:5146   */\n    tag_97:\n        /* \"#utility.yul\":5085:5091   */\n      0x00\n        /* \"#utility.yul\":5136:5138   */\n      0x1f\n        /* \"#utility.yul\":5132:5139   */\n      not\n        /* \"#utility.yul\":5127:5129   */\n      0x1f\n        /* \"#utility.yul\":5120:5125   */\n      dup4\n        /* \"#utility.yul\":5116:5130   */\n      add\n        /* \"#utility.yul\":5112:5140   */\n      and\n        /* \"#utility.yul\":5102:5140   */\n      swap1\n      pop\n        /* \"#utility.yul\":5044:5146   */\n      swap2\n      swap1\n      pop\n      jump\t// out\n        /* \"#utility.yul\":5152:5267   */\n    tag_127:\n        /* \"#utility.yul\":5235:5236   */\n      0x02\n        /* \"#utility.yul\":5228:5233   */\n      dup2\n        /* \"#utility.yul\":5225:5237   */\n      lt\n        /* \"#utility.yul\":5215:5261   */\n      tag_146\n      jumpi\n        /* \"#utility.yul\":5241:5259   */\n      tag_147\n      tag_57\n      jump\t// in\n    tag_147:\n        /* \"#utility.yul\":5215:5261   */\n    tag_146:\n        /* \"#utility.yul\":5152:5267   */\n      pop\n      jump\t// out\n\n    auxdata: 0xa2646970667358221220ab9cd81f3ee4b1c02b814c4bd38510930daee57d9a24665a4fcfb2dc9bbf901664736f6c63430008070033\n}\n",
				"bytecode": {
					"linkReferences": {},
					"object": "60806040526003600160006101000a81548160ff021916908360ff1602179055507fffffffffffffffffffffffffffffffffffffffffffffffffffffffffffffffe0600360006101000a81548160ff021916908360000b60ff16021790555060416004556040518060400160405280600d81526020017f537472696e67207075626c69630000000000000000000000000000000000000081525060069080519060200190620000b092919062000306565b506040518060400160405280600e81526020017f537472696e67205072697661746500000000000000000000000000000000000081525060079080519060200190620000fe92919062000306565b506001600860016101000a81548160ff0219169083151502179055506000600860026101000a81548160ff02191690831515021790555060405160200162000146906200049d565b60405160208183030381529060405280519060200120600b5560026040516020016200017290620004b4565b60405160208183030381529060405260405162000190919062000484565b602060405180830381855afa158015620001ae573d6000803e3d6000fd5b5050506040513d601f19601f82011682018060405250810190620001d39190620003cd565b600c556003604051602001620001e990620004b4565b60405160208183030381529060405260405162000207919062000484565b602060405180830381855afa15801562000225573d6000803e3d6000fd5b5050506040515160601b600d60006101000a81548173ffffffffffffffffffffffffffffffffffffffff021916908360601c0217905550735b38da6a701c568545dcfcb03fcb875f56beddc4600f60006101000a81548173ffffffffffffffffffffffffffffffffffffffff021916908373ffffffffffffffffffffffffffffffffffffffff16021790555033601060006101000a81548173ffffffffffffffffffffffffffffffffffffffff021916908373ffffffffffffffffffffffffffffffffffffffff160217905550348015620002ff57600080fd5b5062000602565b82805462000314906200052c565b90600052602060002090601f01602090048101928262000338576000855562000384565b82601f106200035357805160ff191683800117855562000384565b8280016001018555821562000384579182015b828111156200038357825182559160200191906001019062000366565b5b50905062000393919062000397565b5090565b5b80821115620003b257600081600090555060010162000398565b5090565b600081519050620003c781620005e8565b92915050565b600060208284031215620003e657620003e562000591565b5b6000620003f684828501620003b6565b91505092915050565b60006200040c82620004cb565b620004188185620004d6565b93506200042a818560208601620004f6565b80840191505092915050565b600062000445600a83620004e1565b9150620004528262000596565b600a82019050919050565b60006200046c600a83620004e1565b91506200047982620005bf565b600a82019050919050565b6000620004928284620003ff565b915081905092915050565b6000620004aa8262000436565b9150819050919050565b6000620004c1826200045d565b9150819050919050565b600081519050919050565b600081905092915050565b600081905092915050565b6000819050919050565b60005b8381101562000516578082015181840152602081019050620004f9565b8381111562000526576000848401525b50505050565b600060028204905060018216806200054557607f821691505b602082108114156200055c576200055b62000562565b5b50919050565b7f4e487b7100000000000000000000000000000000000000000000000000000000600052602260045260246000fd5b600080fd5b7f48656c6c6f20776f726400000000000000000000000000000000000000000000600082015250565b7f48656c6c6f20576f726400000000000000000000000000000000000000000000600082015250565b620005f381620004ec565b8114620005ff57600080fd5b50565b61069780620006126000396000f3fe608060405234801561001057600080fd5b50600436106100a95760003560e01c8063b654b76511610071578063b654b76514610144578063b83d07b71461014e578063ba33ed7d1461016c578063c7109d0414610176578063cd97d84e14610194578063e2bed7b4146101b2576100a9565b80634df7e3d0146100ae5780635760fa05146100cc5780635f7d462e146100ea5780637272eea1146101085780637a68ef7f14610126575b600080fd5b6100b66101d0565b6040516100c3919061049c565b60405180910390f35b6100d46101e3565b6040516100e1919061040e565b60405180910390f35b6100f26101f6565b6040516100ff91906103f3565b60405180910390f35b61011061021c565b60405161011d919061045f565b60405180910390f35b61012e610233565b60405161013b9190610429565b60405180910390f35b61014c610246565b005b610156610273565b604051610163919061047a565b60405180910390f35b610174610301565b005b61017e61032e565b60405161018b9190610444565b60405180910390f35b61019c610334565b6040516101a99190610444565b60405180910390f35b6101ba61033a565b6040516101c791906103f3565b60405180910390f35b600160009054906101000a900460ff1681565b600860019054906101000a900460ff1681565b601060009054906101000a900473ffffffffffffffffffffffffffffffffffffffff1681565b6000601060149054906101000a900460ff16905090565b600d60009054906101000a900460601b81565b6001601060146101000a81548160ff0219169083600181111561026c5761026b6105de565b5b0217905550565b60068054610280906105ac565b80601f01602080910402602001604051908101604052809291908181526020018280546102ac906105ac565b80156102f95780601f106102ce576101008083540402835291602001916102f9565b820191906000526020600020905b8154815290600101906020018083116102dc57829003601f168201915b505050505081565b6000601060146101000a81548160ff02191690836001811115610327576103266105de565b5b0217905550565b600c5481565b600b5481565b600f60009054906101000a900473ffffffffffffffffffffffffffffffffffffffff1681565b610369816104d3565b82525050565b610378816104e5565b82525050565b610387816104f1565b82525050565b6103968161051d565b82525050565b6103a581610567565b82525050565b60006103b6826104b7565b6103c081856104c2565b93506103d0818560208601610579565b6103d98161063c565b840191505092915050565b6103ed8161055a565b82525050565b60006020820190506104086000830184610360565b92915050565b6000602082019050610423600083018461036f565b92915050565b600060208201905061043e600083018461037e565b92915050565b6000602082019050610459600083018461038d565b92915050565b6000602082019050610474600083018461039c565b92915050565b6000602082019050818103600083015261049481846103ab565b905092915050565b60006020820190506104b160008301846103e4565b92915050565b600081519050919050565b600082825260208201905092915050565b60006104de8261053a565b9050919050565b60008115159050919050565b60007fffffffffffffffffffffffffffffffffffffffff00000000000000000000000082169050919050565b6000819050919050565b60008190506105358261064d565b919050565b600073ffffffffffffffffffffffffffffffffffffffff82169050919050565b600060ff82169050919050565b600061057282610527565b9050919050565b60005b8381101561059757808201518184015260208101905061057c565b838111156105a6576000848401525b50505050565b600060028204905060018216806105c457607f821691505b602082108114156105d8576105d761060d565b5b50919050565b7f4e487b7100000000000000000000000000000000000000000000000000000000600052602160045260246000fd5b7f4e487b7100000000000000000000000000000000000000000000000000000000600052602260045260246000fd5b6000601f19601f8301169050919050565b6002811061065e5761065d6105de565b5b5056fea2646970667358221220ab9cd81f3ee4b1c02b814c4bd38510930daee57d9a24665a4fcfb2dc9bbf901664736f6c63430008070033",
					"opcodes": "PUSH1 0x80 PUSH1 0x40 MSTORE PUSH1 0x3 PUSH1 0x1 PUSH1 0x0 PUSH2 0x100 EXP DUP2 SLOAD DUP2 PUSH1 0xFF MUL NOT AND SWAP1 DUP4 PUSH1 0xFF AND MUL OR SWAP1 SSTORE POP PUSH32 0xFFFFFFFFFFFFFFFFFFFFFFFFFFFFFFFFFFFFFFFFFFFFFFFFFFFFFFFFFFFFFFE0 PUSH1 0x3 PUSH1 0x0 PUSH2 0x100 EXP DUP2 SLOAD DUP2 PUSH1 0xFF MUL NOT AND SWAP1 DUP4 PUSH1 0x0 SIGNEXTEND PUSH1 0xFF AND MUL OR SWAP1 SSTORE POP PUSH1 0x41 PUSH1 0x4 SSTORE PUSH1 0x40 MLOAD DUP1 PUSH1 0x40 ADD PUSH1 0x40 MSTORE DUP1 PUSH1 0xD DUP2 MSTORE PUSH1 0x20 ADD PUSH32 0x537472696E67207075626C696300000000000000000000000000000000000000 DUP2 MSTORE POP PUSH1 0x6 SWAP1 DUP1 MLOAD SWAP1 PUSH1 0x20 ADD SWAP1 PUSH3 0xB0 SWAP3 SWAP2 SWAP1 PUSH3 0x306 JUMP JUMPDEST POP PUSH1 0x40 MLOAD DUP1 PUSH1 0x40 ADD PUSH1 0x40 MSTORE DUP1 PUSH1 0xE DUP2 MSTORE PUSH1 0x20 ADD PUSH32 0x537472696E672050726976617465000000000000000000000000000000000000 DUP2 MSTORE POP PUSH1 0x7 SWAP1 DUP1 MLOAD SWAP1 PUSH1 0x20 ADD SWAP1 PUSH3 0xFE SWAP3 SWAP2 SWAP1 PUSH3 0x306 JUMP JUMPDEST POP PUSH1 0x1 PUSH1 0x8 PUSH1 0x1 PUSH2 0x100 EXP DUP2 SLOAD DUP2 PUSH1 0xFF MUL NOT AND SWAP1 DUP4 ISZERO ISZERO MUL OR SWAP1 SSTORE POP PUSH1 0x0 PUSH1 0x8 PUSH1 0x2 PUSH2 0x100 EXP DUP2 SLOAD DUP2 PUSH1 0xFF MUL NOT AND SWAP1 DUP4 ISZERO ISZERO MUL OR SWAP1 SSTORE POP PUSH1 0x40 MLOAD PUSH1 0x20 ADD PUSH3 0x146 SWAP1 PUSH3 0x49D JUMP JUMPDEST PUSH1 0x40 MLOAD PUSH1 0x20 DUP2 DUP4 SUB SUB DUP2 MSTORE SWAP1 PUSH1 0x40 MSTORE DUP1 MLOAD SWAP1 PUSH1 0x20 ADD KECCAK256 PUSH1 0xB SSTORE PUSH1 0x2 PUSH1 0x40 MLOAD PUSH1 0x20 ADD PUSH3 0x172 SWAP1 PUSH3 0x4B4 JUMP JUMPDEST PUSH1 0x40 MLOAD PUSH1 0x20 DUP2 DUP4 SUB SUB DUP2 MSTORE SWAP1 PUSH1 0x40 MSTORE PUSH1 0x40 MLOAD PUSH3 0x190 SWAP2 SWAP1 PUSH3 0x484 JUMP JUMPDEST PUSH1 0x20 PUSH1 0x40 MLOAD DUP1 DUP4 SUB DUP2 DUP6 GAS STATICCALL ISZERO DUP1 ISZERO PUSH3 0x1AE JUMPI RETURNDATASIZE PUSH1 0x0 DUP1 RETURNDATACOPY RETURNDATASIZE PUSH1 0x0 REVERT JUMPDEST POP POP POP PUSH1 0x40 MLOAD RETURNDATASIZE PUSH1 0x1F NOT PUSH1 0x1F DUP3 ADD AND DUP3 ADD DUP1 PUSH1 0x40 MSTORE POP DUP2 ADD SWAP1 PUSH3 0x1D3 SWAP2 SWAP1 PUSH3 0x3CD JUMP JUMPDEST PUSH1 0xC SSTORE PUSH1 0x3 PUSH1 0x40 MLOAD PUSH1 0x20 ADD PUSH3 0x1E9 SWAP1 PUSH3 0x4B4 JUMP JUMPDEST PUSH1 0x40 MLOAD PUSH1 0x20 DUP2 DUP4 SUB SUB DUP2 MSTORE SWAP1 PUSH1 0x40 MSTORE PUSH1 0x40 MLOAD PUSH3 0x207 SWAP2 SWAP1 PUSH3 0x484 JUMP JUMPDEST PUSH1 0x20 PUSH1 0x40 MLOAD DUP1 DUP4 SUB DUP2 DUP6 GAS STATICCALL ISZERO DUP1 ISZERO PUSH3 0x225 JUMPI RETURNDATASIZE PUSH1 0x0 DUP1 RETURNDATACOPY RETURNDATASIZE PUSH1 0x0 REVERT JUMPDEST POP POP POP PUSH1 0x40 MLOAD MLOAD PUSH1 0x60 SHL PUSH1 0xD PUSH1 0x0 PUSH2 0x100 EXP DUP2 SLOAD DUP2 PUSH20 0xFFFFFFFFFFFFFFFFFFFFFFFFFFFFFFFFFFFFFFFF MUL NOT AND SWAP1 DUP4 PUSH1 0x60 SHR MUL OR SWAP1 SSTORE POP PUSH20 0x5B38DA6A701C568545DCFCB03FCB875F56BEDDC4 PUSH1 0xF PUSH1 0x0 PUSH2 0x100 EXP DUP2 SLOAD DUP2 PUSH20 0xFFFFFFFFFFFFFFFFFFFFFFFFFFFFFFFFFFFFFFFF MUL NOT AND SWAP1 DUP4 PUSH20 0xFFFFFFFFFFFFFFFFFFFFFFFFFFFFFFFFFFFFFFFF AND MUL OR SWAP1 SSTORE POP CALLER PUSH1 0x10 PUSH1 0x0 PUSH2 0x100 EXP DUP2 SLOAD DUP2 PUSH20 0xFFFFFFFFFFFFFFFFFFFFFFFFFFFFFFFFFFFFFFFF MUL NOT AND SWAP1 DUP4 PUSH20 0xFFFFFFFFFFFFFFFFFFFFFFFFFFFFFFFFFFFFFFFF AND MUL OR SWAP1 SSTORE POP CALLVALUE DUP1 ISZERO PUSH3 0x2FF JUMPI PUSH1 0x0 DUP1 REVERT JUMPDEST POP PUSH3 0x602 JUMP JUMPDEST DUP3 DUP1 SLOAD PUSH3 0x314 SWAP1 PUSH3 0x52C JUMP JUMPDEST SWAP1 PUSH1 0x0 MSTORE PUSH1 0x20 PUSH1 0x0 KECCAK256 SWAP1 PUSH1 0x1F ADD PUSH1 0x20 SWAP1 DIV DUP2 ADD SWAP3 DUP3 PUSH3 0x338 JUMPI PUSH1 0x0 DUP6 SSTORE PUSH3 0x384 JUMP JUMPDEST DUP3 PUSH1 0x1F LT PUSH3 0x353 JUMPI DUP1 MLOAD PUSH1 0xFF NOT AND DUP4 DUP1 ADD OR DUP6 SSTORE PUSH3 0x384 JUMP JUMPDEST DUP3 DUP1 ADD PUSH1 0x1 ADD DUP6 SSTORE DUP3 ISZERO PUSH3 0x384 JUMPI SWAP2 DUP3 ADD JUMPDEST DUP3 DUP2 GT ISZERO PUSH3 0x383 JUMPI DUP3 MLOAD DUP3 SSTORE SWAP2 PUSH1 0x20 ADD SWAP2 SWAP1 PUSH1 0x1 ADD SWAP1 PUSH3 0x366 JUMP JUMPDEST JUMPDEST POP SWAP1 POP PUSH3 0x393 SWAP2 SWAP1 PUSH3 0x397 JUMP JUMPDEST POP SWAP1 JUMP JUMPDEST JUMPDEST DUP1 DUP3 GT ISZERO PUSH3 0x3B2 JUMPI PUSH1 0x0 DUP2 PUSH1 0x0 SWAP1 SSTORE POP PUSH1 0x1 ADD PUSH3 0x398 JUMP JUMPDEST POP SWAP1 JUMP JUMPDEST PUSH1 0x0 DUP2 MLOAD SWAP1 POP PUSH3 0x3C7 DUP2 PUSH3 0x5E8 JUMP JUMPDEST SWAP3 SWAP2 POP POP JUMP JUMPDEST PUSH1 0x0 PUSH1 0x20 DUP3 DUP5 SUB SLT ISZERO PUSH3 0x3E6 JUMPI PUSH3 0x3E5 PUSH3 0x591 JUMP JUMPDEST JUMPDEST PUSH1 0x0 PUSH3 0x3F6 DUP5 DUP3 DUP6 ADD PUSH3 0x3B6 JUMP JUMPDEST SWAP2 POP POP SWAP3 SWAP2 POP POP JUMP JUMPDEST PUSH1 0x0 PUSH3 0x40C DUP3 PUSH3 0x4CB JUMP JUMPDEST PUSH3 0x418 DUP2 DUP6 PUSH3 0x4D6 JUMP JUMPDEST SWAP4 POP PUSH3 0x42A DUP2 DUP6 PUSH1 0x20 DUP7 ADD PUSH3 0x4F6 JUMP JUMPDEST DUP1 DUP5 ADD SWAP2 POP POP SWAP3 SWAP2 POP POP JUMP JUMPDEST PUSH1 0x0 PUSH3 0x445 PUSH1 0xA DUP4 PUSH3 0x4E1 JUMP JUMPDEST SWAP2 POP PUSH3 0x452 DUP3 PUSH3 0x596 JUMP JUMPDEST PUSH1 0xA DUP3 ADD SWAP1 POP SWAP2 SWAP1 POP JUMP JUMPDEST PUSH1 0x0 PUSH3 0x46C PUSH1 0xA DUP4 PUSH3 0x4E1 JUMP JUMPDEST SWAP2 POP PUSH3 0x479 DUP3 PUSH3 0x5BF JUMP JUMPDEST PUSH1 0xA DUP3 ADD SWAP1 POP SWAP2 SWAP1 POP JUMP JUMPDEST PUSH1 0x0 PUSH3 0x492 DUP3 DUP5 PUSH3 0x3FF JUMP JUMPDEST SWAP2 POP DUP2 SWAP1 POP SWAP3 SWAP2 POP POP JUMP JUMPDEST PUSH1 0x0 PUSH3 0x4AA DUP3 PUSH3 0x436 JUMP JUMPDEST SWAP2 POP DUP2 SWAP1 POP SWAP2 SWAP1 POP JUMP JUMPDEST PUSH1 0x0 PUSH3 0x4C1 DUP3 PUSH3 0x45D JUMP JUMPDEST SWAP2 POP DUP2 SWAP1 POP SWAP2 SWAP1 POP JUMP JUMPDEST PUSH1 0x0 DUP2 MLOAD SWAP1 POP SWAP2 SWAP1 POP JUMP JUMPDEST PUSH1 0x0 DUP2 SWAP1 POP SWAP3 SWAP2 POP POP JUMP JUMPDEST PUSH1 0x0 DUP2 SWAP1 POP SWAP3 SWAP2 POP POP JUMP JUMPDEST PUSH1 0x0 DUP2 SWAP1 POP SWAP2 SWAP1 POP JUMP JUMPDEST PUSH1 0x0 JUMPDEST DUP4 DUP2 LT ISZERO PUSH3 0x516 JUMPI DUP1 DUP3 ADD MLOAD DUP2 DUP5 ADD MSTORE PUSH1 0x20 DUP2 ADD SWAP1 POP PUSH3 0x4F9 JUMP JUMPDEST DUP4 DUP2 GT ISZERO PUSH3 0x526 JUMPI PUSH1 0x0 DUP5 DUP5 ADD MSTORE JUMPDEST POP POP POP POP JUMP JUMPDEST PUSH1 0x0 PUSH1 0x2 DUP3 DIV SWAP1 POP PUSH1 0x1 DUP3 AND DUP1 PUSH3 0x545 JUMPI PUSH1 0x7F DUP3 AND SWAP2 POP JUMPDEST PUSH1 0x20 DUP3 LT DUP2 EQ ISZERO PUSH3 0x55C JUMPI PUSH3 0x55B PUSH3 0x562 JUMP JUMPDEST JUMPDEST POP SWAP2 SWAP1 POP JUMP JUMPDEST PUSH32 0x4E487B7100000000000000000000000000000000000000000000000000000000 PUSH1 0x0 MSTORE PUSH1 0x22 PUSH1 0x4 MSTORE PUSH1 0x24 PUSH1 0x0 REVERT JUMPDEST PUSH1 0x0 DUP1 REVERT JUMPDEST PUSH32 0x48656C6C6F20776F726400000000000000000000000000000000000000000000 PUSH1 0x0 DUP3 ADD MSTORE POP JUMP JUMPDEST PUSH32 0x48656C6C6F20576F726400000000000000000000000000000000000000000000 PUSH1 0x0 DUP3 ADD MSTORE POP JUMP JUMPDEST PUSH3 0x5F3 DUP2 PUSH3 0x4EC JUMP JUMPDEST DUP2 EQ PUSH3 0x5FF JUMPI PUSH1 0x0 DUP1 REVERT JUMPDEST POP JUMP JUMPDEST PUSH2 0x697 DUP1 PUSH3 0x612 PUSH1 0x0 CODECOPY PUSH1 0x0 RETURN INVALID PUSH1 0x80 PUSH1 0x40 MSTORE CALLVALUE DUP1 ISZERO PUSH2 0x10 JUMPI PUSH1 0x0 DUP1 REVERT JUMPDEST POP PUSH1 0x4 CALLDATASIZE LT PUSH2 0xA9 JUMPI PUSH1 0x0 CALLDATALOAD PUSH1 0xE0 SHR DUP1 PUSH4 0xB654B765 GT PUSH2 0x71 JUMPI DUP1 PUSH4 0xB654B765 EQ PUSH2 0x144 JUMPI DUP1 PUSH4 0xB83D07B7 EQ PUSH2 0x14E JUMPI DUP1 PUSH4 0xBA33ED7D EQ PUSH2 0x16C JUMPI DUP1 PUSH4 0xC7109D04 EQ PUSH2 0x176 JUMPI DUP1 PUSH4 0xCD97D84E EQ PUSH2 0x194 JUMPI DUP1 PUSH4 0xE2BED7B4 EQ PUSH2 0x1B2 JUMPI PUSH2 0xA9 JUMP JUMPDEST DUP1 PUSH4 0x4DF7E3D0 EQ PUSH2 0xAE JUMPI DUP1 PUSH4 0x5760FA05 EQ PUSH2 0xCC JUMPI DUP1 PUSH4 0x5F7D462E EQ PUSH2 0xEA JUMPI DUP1 PUSH4 0x7272EEA1 EQ PUSH2 0x108 JUMPI DUP1 PUSH4 0x7A68EF7F EQ PUSH2 0x126 JUMPI JUMPDEST PUSH1 0x0 DUP1 REVERT JUMPDEST PUSH2 0xB6 PUSH2 0x1D0 JUMP JUMPDEST PUSH1 0x40 MLOAD PUSH2 0xC3 SWAP2 SWAP1 PUSH2 0x49C JUMP JUMPDEST PUSH1 0x40 MLOAD DUP1 SWAP2 SUB SWAP1 RETURN JUMPDEST PUSH2 0xD4 PUSH2 0x1E3 JUMP JUMPDEST PUSH1 0x40 MLOAD PUSH2 0xE1 SWAP2 SWAP1 PUSH2 0x40E JUMP JUMPDEST PUSH1 0x40 MLOAD DUP1 SWAP2 SUB SWAP1 RETURN JUMPDEST PUSH2 0xF2 PUSH2 0x1F6 JUMP JUMPDEST PUSH1 0x40 MLOAD PUSH2 0xFF SWAP2 SWAP1 PUSH2 0x3F3 JUMP JUMPDEST PUSH1 0x40 MLOAD DUP1 SWAP2 SUB SWAP1 RETURN JUMPDEST PUSH2 0x110 PUSH2 0x21C JUMP JUMPDEST PUSH1 0x40 MLOAD PUSH2 0x11D SWAP2 SWAP1 PUSH2 0x45F JUMP JUMPDEST PUSH1 0x40 MLOAD DUP1 SWAP2 SUB SWAP1 RETURN JUMPDEST PUSH2 0x12E PUSH2 0x233 JUMP JUMPDEST PUSH1 0x40 MLOAD PUSH2 0x13B SWAP2 SWAP1 PUSH2 0x429 JUMP JUMPDEST PUSH1 0x40 MLOAD DUP1 SWAP2 SUB SWAP1 RETURN JUMPDEST PUSH2 0x14C PUSH2 0x246 JUMP JUMPDEST STOP JUMPDEST PUSH2 0x156 PUSH2 0x273 JUMP JUMPDEST PUSH1 0x40 MLOAD PUSH2 0x163 SWAP2 SWAP1 PUSH2 0x47A JUMP JUMPDEST PUSH1 0x40 MLOAD DUP1 SWAP2 SUB SWAP1 RETURN JUMPDEST PUSH2 0x174 PUSH2 0x301 JUMP JUMPDEST STOP JUMPDEST PUSH2 0x17E PUSH2 0x32E JUMP JUMPDEST PUSH1 0x40 MLOAD PUSH2 0x18B SWAP2 SWAP1 PUSH2 0x444 JUMP JUMPDEST PUSH1 0x40 MLOAD DUP1 SWAP2 SUB SWAP1 RETURN JUMPDEST PUSH2 0x19C PUSH2 0x334 JUMP JUMPDEST PUSH1 0x40 MLOAD PUSH2 0x1A9 SWAP2 SWAP1 PUSH2 0x444 JUMP JUMPDEST PUSH1 0x40 MLOAD DUP1 SWAP2 SUB SWAP1 RETURN JUMPDEST PUSH2 0x1BA PUSH2 0x33A JUMP JUMPDEST PUSH1 0x40 MLOAD PUSH2 0x1C7 SWAP2 SWAP1 PUSH2 0x3F3 JUMP JUMPDEST PUSH1 0x40 MLOAD DUP1 SWAP2 SUB SWAP1 RETURN JUMPDEST PUSH1 0x1 PUSH1 0x0 SWAP1 SLOAD SWAP1 PUSH2 0x100 EXP SWAP1 DIV PUSH1 0xFF AND DUP2 JUMP JUMPDEST PUSH1 0x8 PUSH1 0x1 SWAP1 SLOAD SWAP1 PUSH2 0x100 EXP SWAP1 DIV PUSH1 0xFF AND DUP2 JUMP JUMPDEST PUSH1 0x10 PUSH1 0x0 SWAP1 SLOAD SWAP1 PUSH2 0x100 EXP SWAP1 DIV PUSH20 0xFFFFFFFFFFFFFFFFFFFFFFFFFFFFFFFFFFFFFFFF AND DUP2 JUMP JUMPDEST PUSH1 0x0 PUSH1 0x10 PUSH1 0x14 SWAP1 SLOAD SWAP1 PUSH2 0x100 EXP SWAP1 DIV PUSH1 0xFF AND SWAP1 POP SWAP1 JUMP JUMPDEST PUSH1 0xD PUSH1 0x0 SWAP1 SLOAD SWAP1 PUSH2 0x100 EXP SWAP1 DIV PUSH1 0x60 SHL DUP2 JUMP JUMPDEST PUSH1 0x1 PUSH1 0x10 PUSH1 0x14 PUSH2 0x100 EXP DUP2 SLOAD DUP2 PUSH1 0xFF MUL NOT AND SWAP1 DUP4 PUSH1 0x1 DUP2 GT ISZERO PUSH2 0x26C JUMPI PUSH2 0x26B PUSH2 0x5DE JUMP JUMPDEST JUMPDEST MUL OR SWAP1 SSTORE POP JUMP JUMPDEST PUSH1 0x6 DUP1 SLOAD PUSH2 0x280 SWAP1 PUSH2 0x5AC JUMP JUMPDEST DUP1 PUSH1 0x1F ADD PUSH1 0x20 DUP1 SWAP2 DIV MUL PUSH1 0x20 ADD PUSH1 0x40 MLOAD SWAP1 DUP2 ADD PUSH1 0x40 MSTORE DUP1 SWAP3 SWAP2 SWAP1 DUP2 DUP2 MSTORE PUSH1 0x20 ADD DUP3 DUP1 SLOAD PUSH2 0x2AC SWAP1 PUSH2 0x5AC JUMP JUMPDEST DUP1 ISZERO PUSH2 0x2F9 JUMPI DUP1 PUSH1 0x1F LT PUSH2 0x2CE JUMPI PUSH2 0x100 DUP1 DUP4 SLOAD DIV MUL DUP4 MSTORE SWAP2 PUSH1 0x20 ADD SWAP2 PUSH2 0x2F9 JUMP JUMPDEST DUP3 ADD SWAP2 SWAP1 PUSH1 0x0 MSTORE PUSH1 0x20 PUSH1 0x0 KECCAK256 SWAP1 JUMPDEST DUP2 SLOAD DUP2 MSTORE SWAP1 PUSH1 0x1 ADD SWAP1 PUSH1 0x20 ADD DUP1 DUP4 GT PUSH2 0x2DC JUMPI DUP3 SWAP1 SUB PUSH1 0x1F AND DUP3 ADD SWAP2 JUMPDEST POP POP POP POP POP DUP2 JUMP JUMPDEST PUSH1 0x0 PUSH1 0x10 PUSH1 0x14 PUSH2 0x100 EXP DUP2 SLOAD DUP2 PUSH1 0xFF MUL NOT AND SWAP1 DUP4 PUSH1 0x1 DUP2 GT ISZERO PUSH2 0x327 JUMPI PUSH2 0x326 PUSH2 0x5DE JUMP JUMPDEST JUMPDEST MUL OR SWAP1 SSTORE POP JUMP JUMPDEST PUSH1 0xC SLOAD DUP2 JUMP JUMPDEST PUSH1 0xB SLOAD DUP2 JUMP JUMPDEST PUSH1 0xF PUSH1 0x0 SWAP1 SLOAD SWAP1 PUSH2 0x100 EXP SWAP1 DIV PUSH20 0xFFFFFFFFFFFFFFFFFFFFFFFFFFFFFFFFFFFFFFFF AND DUP2 JUMP JUMPDEST PUSH2 0x369 DUP2 PUSH2 0x4D3 JUMP JUMPDEST DUP3 MSTORE POP POP JUMP JUMPDEST PUSH2 0x378 DUP2 PUSH2 0x4E5 JUMP JUMPDEST DUP3 MSTORE POP POP JUMP JUMPDEST PUSH2 0x387 DUP2 PUSH2 0x4F1 JUMP JUMPDEST DUP3 MSTORE POP POP JUMP JUMPDEST PUSH2 0x396 DUP2 PUSH2 0x51D JUMP JUMPDEST DUP3 MSTORE POP POP JUMP JUMPDEST PUSH2 0x3A5 DUP2 PUSH2 0x567 JUMP JUMPDEST DUP3 MSTORE POP POP JUMP JUMPDEST PUSH1 0x0 PUSH2 0x3B6 DUP3 PUSH2 0x4B7 JUMP JUMPDEST PUSH2 0x3C0 DUP2 DUP6 PUSH2 0x4C2 JUMP JUMPDEST SWAP4 POP PUSH2 0x3D0 DUP2 DUP6 PUSH1 0x20 DUP7 ADD PUSH2 0x579 JUMP JUMPDEST PUSH2 0x3D9 DUP2 PUSH2 0x63C JUMP JUMPDEST DUP5 ADD SWAP2 POP POP SWAP3 SWAP2 POP POP JUMP JUMPDEST PUSH2 0x3ED DUP2 PUSH2 0x55A JUMP JUMPDEST DUP3 MSTORE POP POP JUMP JUMPDEST PUSH1 0x0 PUSH1 0x20 DUP3 ADD SWAP1 POP PUSH2 0x408 PUSH1 0x0 DUP4 ADD DUP5 PUSH2 0x360 JUMP JUMPDEST SWAP3 SWAP2 POP POP JUMP JUMPDEST PUSH1 0x0 PUSH1 0x20 DUP3 ADD SWAP1 POP PUSH2 0x423 PUSH1 0x0 DUP4 ADD DUP5 PUSH2 0x36F JUMP JUMPDEST SWAP3 SWAP2 POP POP JUMP JUMPDEST PUSH1 0x0 PUSH1 0x20 DUP3 ADD SWAP1 POP PUSH2 0x43E PUSH1 0x0 DUP4 ADD DUP5 PUSH2 0x37E JUMP JUMPDEST SWAP3 SWAP2 POP POP JUMP JUMPDEST PUSH1 0x0 PUSH1 0x20 DUP3 ADD SWAP1 POP PUSH2 0x459 PUSH1 0x0 DUP4 ADD DUP5 PUSH2 0x38D JUMP JUMPDEST SWAP3 SWAP2 POP POP JUMP JUMPDEST PUSH1 0x0 PUSH1 0x20 DUP3 ADD SWAP1 POP PUSH2 0x474 PUSH1 0x0 DUP4 ADD DUP5 PUSH2 0x39C JUMP JUMPDEST SWAP3 SWAP2 POP POP JUMP JUMPDEST PUSH1 0x0 PUSH1 0x20 DUP3 ADD SWAP1 POP DUP2 DUP2 SUB PUSH1 0x0 DUP4 ADD MSTORE PUSH2 0x494 DUP2 DUP5 PUSH2 0x3AB JUMP JUMPDEST SWAP1 POP SWAP3 SWAP2 POP POP JUMP JUMPDEST PUSH1 0x0 PUSH1 0x20 DUP3 ADD SWAP1 POP PUSH2 0x4B1 PUSH1 0x0 DUP4 ADD DUP5 PUSH2 0x3E4 JUMP JUMPDEST SWAP3 SWAP2 POP POP JUMP JUMPDEST PUSH1 0x0 DUP2 MLOAD SWAP1 POP SWAP2 SWAP1 POP JUMP JUMPDEST PUSH1 0x0 DUP3 DUP3 MSTORE PUSH1 0x20 DUP3 ADD SWAP1 POP SWAP3 SWAP2 POP POP JUMP JUMPDEST PUSH1 0x0 PUSH2 0x4DE DUP3 PUSH2 0x53A JUMP JUMPDEST SWAP1 POP SWAP2 SWAP1 POP JUMP JUMPDEST PUSH1 0x0 DUP2 ISZERO ISZERO SWAP1 POP SWAP2 SWAP1 POP JUMP JUMPDEST PUSH1 0x0 PUSH32 0xFFFFFFFFFFFFFFFFFFFFFFFFFFFFFFFFFFFFFFFF000000000000000000000000 DUP3 AND SWAP1 POP SWAP2 SWAP1 POP JUMP JUMPDEST PUSH1 0x0 DUP2 SWAP1 POP SWAP2 SWAP1 POP JUMP JUMPDEST PUSH1 0x0 DUP2 SWAP1 POP PUSH2 0x535 DUP3 PUSH2 0x64D JUMP JUMPDEST SWAP2 SWAP1 POP JUMP JUMPDEST PUSH1 0x0 PUSH20 0xFFFFFFFFFFFFFFFFFFFFFFFFFFFFFFFFFFFFFFFF DUP3 AND SWAP1 POP SWAP2 SWAP1 POP JUMP JUMPDEST PUSH1 0x0 PUSH1 0xFF DUP3 AND SWAP1 POP SWAP2 SWAP1 POP JUMP JUMPDEST PUSH1 0x0 PUSH2 0x572 DUP3 PUSH2 0x527 JUMP JUMPDEST SWAP1 POP SWAP2 SWAP1 POP JUMP JUMPDEST PUSH1 0x0 JUMPDEST DUP4 DUP2 LT ISZERO PUSH2 0x597 JUMPI DUP1 DUP3 ADD MLOAD DUP2 DUP5 ADD MSTORE PUSH1 0x20 DUP2 ADD SWAP1 POP PUSH2 0x57C JUMP JUMPDEST DUP4 DUP2 GT ISZERO PUSH2 0x5A6 JUMPI PUSH1 0x0 DUP5 DUP5 ADD MSTORE JUMPDEST POP POP POP POP JUMP JUMPDEST PUSH1 0x0 PUSH1 0x2 DUP3 DIV SWAP1 POP PUSH1 0x1 DUP3 AND DUP1 PUSH2 0x5C4 JUMPI PUSH1 0x7F DUP3 AND SWAP2 POP JUMPDEST PUSH1 0x20 DUP3 LT DUP2 EQ ISZERO PUSH2 0x5D8 JUMPI PUSH2 0x5D7 PUSH2 0x60D JUMP JUMPDEST JUMPDEST POP SWAP2 SWAP1 POP JUMP JUMPDEST PUSH32 0x4E487B7100000000000000000000000000000000000000000000000000000000 PUSH1 0x0 MSTORE PUSH1 0x21 PUSH1 0x4 MSTORE PUSH1 0x24 PUSH1 0x0 REVERT JUMPDEST PUSH32 0x4E487B7100000000000000000000000000000000000000000000000000000000 PUSH1 0x0 MSTORE PUSH1 0x22 PUSH1 0x4 MSTORE PUSH1 0x24 PUSH1 0x0 REVERT JUMPDEST PUSH1 0x0 PUSH1 0x1F NOT PUSH1 0x1F DUP4 ADD AND SWAP1 POP SWAP2 SWAP1 POP JUMP JUMPDEST PUSH1 0x2 DUP2 LT PUSH2 0x65E JUMPI PUSH2 0x65D PUSH2 0x5DE JUMP JUMPDEST JUMPDEST POP JUMP INVALID LOG2 PUSH5 0x6970667358 0x22 SLT KECCAK256 0xAB SWAP13 0xD8 0x1F RETURNDATACOPY 0xE4 0xB1 0xC0 0x2B DUP2 0x4C 0x4B 0xD3 DUP6 LT SWAP4 0xD 0xAE 0xE5 PUSH30 0x9A24665A4FCFB2DC9BBF901664736F6C6343000807003300000000000000 "
				},
				"gasEstimates": {
					"creation": {
						"codeDepositCost": "337400",
						"executionCost": "infinite",
						"totalCost": "infinite"
					},
					"external": {
						"addres_two()": "2559",
						"address_one()": "2624",
						"b()": "2472",
						"bool_true()": "2544",
						"displayState()": "2685",
						"hashing()": "2517",
						"hashing_ripemd160()": "2560",
						"hashing_sha256()": "2495",
						"str_public()": "infinite",
						"turnOf()": "24481",
						"turnOn()": "24525"
					}
				},
				"methodIdentifiers": {
					"addres_two()": "5f7d462e",
					"address_one()": "e2bed7b4",
					"b()": "4df7e3d0",
					"bool_true()": "5760fa05",
					"displayState()": "7272eea1",
					"hashing()": "cd97d84e",
					"hashing_ripemd160()": "7a68ef7f",
					"hashing_sha256()": "c7109d04",
					"str_public()": "b83d07b7",
					"turnOf()": "b654b765",
					"turnOn()": "ba33ed7d"
				}
			},
			"storageLayout": {
				"storage": [
					{
						"astId": 3,
						"contract": "contracts/first_contract.sol:variables_modifiers",
						"label": "a",
						"offset": 0,
						"slot": "0",
						"type": "t_uint256"
					},
					{
						"astId": 6,
						"contract": "contracts/first_contract.sol:variables_modifiers",
						"label": "b",
						"offset": 0,
						"slot": "1",
						"type": "t_uint8"
					},
					{
						"astId": 8,
						"contract": "contracts/first_contract.sol:variables_modifiers",
						"label": "c",
						"offset": 0,
						"slot": "2",
						"type": "t_int256"
					},
					{
						"astId": 12,
						"contract": "contracts/first_contract.sol:variables_modifiers",
						"label": "d",
						"offset": 0,
						"slot": "3",
						"type": "t_int8"
					},
					{
						"astId": 15,
						"contract": "contracts/first_contract.sol:variables_modifiers",
						"label": "e",
						"offset": 0,
						"slot": "4",
						"type": "t_int256"
					},
					{
						"astId": 17,
						"contract": "contracts/first_contract.sol:variables_modifiers",
						"label": "str",
						"offset": 0,
						"slot": "5",
						"type": "t_string_storage"
					},
					{
						"astId": 20,
						"contract": "contracts/first_contract.sol:variables_modifiers",
						"label": "str_public",
						"offset": 0,
						"slot": "6",
						"type": "t_string_storage"
					},
					{
						"astId": 23,
						"contract": "contracts/first_contract.sol:variables_modifiers",
						"label": "str_private",
						"offset": 0,
						"slot": "7",
						"type": "t_string_storage"
					},
					{
						"astId": 25,
						"contract": "contracts/first_contract.sol:variables_modifiers",
						"label": "boolean",
						"offset": 0,
						"slot": "8",
						"type": "t_bool"
					},
					{
						"astId": 28,
						"contract": "contracts/first_contract.sol:variables_modifiers",
						"label": "bool_true",
						"offset": 1,
						"slot": "8",
						"type": "t_bool"
					},
					{
						"astId": 31,
						"contract": "contracts/first_contract.sol:variables_modifiers",
						"label": "bool_false",
						"offset": 2,
						"slot": "8",
						"type": "t_bool"
					},
					{
						"astId": 33,
						"contract": "contracts/first_contract.sol:variables_modifiers",
						"label": "first_bytes",
						"offset": 0,
						"slot": "9",
						"type": "t_bytes32"
					},
					{
						"astId": 35,
						"contract": "contracts/first_contract.sol:variables_modifiers",
						"label": "second_bytes",
						"offset": 0,
						"slot": "10",
						"type": "t_bytes4"
					},
					{
						"astId": 37,
						"contract": "contracts/first_contract.sol:variables_modifiers",
						"label": "byte_one",
						"offset": 4,
						"slot": "10",
						"type": "t_bytes1"
					},
					{
						"astId": 45,
						"contract": "contracts/first_contract.sol:variables_modifiers",
						"label": "hashing",
						"offset": 0,
						"slot": "11",
						"type": "t_bytes32"
					},
					{
						"astId": 53,
						"contract": "contracts/first_contract.sol:variables_modifiers",
						"label": "hashing_sha256",
						"offset": 0,
						"slot": "12",
						"type": "t_bytes32"
					},
					{
						"astId": 61,
						"contract": "contracts/first_contract.sol:variables_modifiers",
						"label": "hashing_ripemd160",
						"offset": 0,
						"slot": "13",
						"type": "t_bytes20"
					},
					{
						"astId": 63,
						"contract": "contracts/first_contract.sol:variables_modifiers",
						"label": "my_address",
						"offset": 0,
						"slot": "14",
						"type": "t_address"
					},
					{
						"astId": 66,
						"contract": "contracts/first_contract.sol:variables_modifiers",
						"label": "address_one",
						"offset": 0,
						"slot": "15",
						"type": "t_address"
					},
					{
						"astId": 70,
						"contract": "contracts/first_contract.sol:variables_modifiers",
						"label": "addres_two",
						"offset": 0,
						"slot": "16",
						"type": "t_address"
					},
					{
						"astId": 76,
						"contract": "contracts/first_contract.sol:variables_modifiers",
						"label": "state",
						"offset": 20,
						"slot": "16",
						"type": "t_enum(options)73"
					}
				],
				"types": {
					"t_address": {
						"encoding": "inplace",
						"label": "address",
						"numberOfBytes": "20"
					},
					"t_bool": {
						"encoding": "inplace",
						"label": "bool",
						"numberOfBytes": "1"
					},
					"t_bytes1": {
						"encoding": "inplace",
						"label": "bytes1",
						"numberOfBytes": "1"
					},
					"t_bytes20": {
						"encoding": "inplace",
						"label": "bytes20",
						"numberOfBytes": "20"
					},
					"t_bytes32": {
						"encoding": "inplace",
						"label": "bytes32",
						"numberOfBytes": "32"
					},
					"t_bytes4": {
						"encoding": "inplace",
						"label": "bytes4",
						"numberOfBytes": "4"
					},
					"t_enum(options)73": {
						"encoding": "inplace",
						"label": "enum variables_modifiers.options",
						"numberOfBytes": "1"
					},
					"t_int256": {
						"encoding": "inplace",
						"label": "int256",
						"numberOfBytes": "32"
					},
					"t_int8": {
						"encoding": "inplace",
						"label": "int8",
						"numberOfBytes": "1"
					},
					"t_string_storage": {
						"encoding": "bytes",
						"label": "string",
						"numberOfBytes": "32"
					},
					"t_uint256": {
						"encoding": "inplace",
						"label": "uint256",
						"numberOfBytes": "32"
					},
					"t_uint8": {
						"encoding": "inplace",
						"label": "uint8",
						"numberOfBytes": "1"
					}
				}
			},
			"userdoc": {
				"kind": "user",
				"methods": {},
				"version": 1
			}
		}
	}
}